{
	"contracts/HelloWorld.sol": {
		"SocialMediaPlatform": {
			"abi": [
				{
					"inputs": [],
					"stateMutability": "nonpayable",
					"type": "constructor"
				},
				{
					"anonymous": false,
					"inputs": [
						{
							"indexed": false,
							"internalType": "uint256",
							"name": "postId",
							"type": "uint256"
						},
						{
							"indexed": false,
							"internalType": "address",
							"name": "creator",
							"type": "address"
						},
						{
							"indexed": false,
							"internalType": "string",
							"name": "content",
							"type": "string"
						}
					],
					"name": "PostCreated",
					"type": "event"
				},
				{
					"anonymous": false,
					"inputs": [
						{
							"indexed": false,
							"internalType": "uint256",
							"name": "postId",
							"type": "uint256"
						},
						{
							"indexed": false,
							"internalType": "address",
							"name": "user",
							"type": "address"
						},
						{
							"indexed": false,
							"internalType": "string",
							"name": "interactionType",
							"type": "string"
						}
					],
					"name": "PostInteraction",
					"type": "event"
				},
				{
					"inputs": [
						{
							"internalType": "uint256",
							"name": "postId",
							"type": "uint256"
						},
						{
							"internalType": "string",
							"name": "comment",
							"type": "string"
						}
					],
					"name": "commentOnPost",
					"outputs": [],
					"stateMutability": "payable",
					"type": "function"
				},
				{
					"inputs": [
						{
							"internalType": "string",
							"name": "content",
							"type": "string"
						}
					],
					"name": "createPost",
					"outputs": [],
					"stateMutability": "payable",
					"type": "function"
				},
				{
					"inputs": [],
					"name": "getNextPostID",
					"outputs": [
						{
							"internalType": "uint256",
							"name": "",
							"type": "uint256"
						}
					],
					"stateMutability": "view",
					"type": "function"
				},
				{
					"inputs": [
						{
							"internalType": "uint256",
							"name": "postId",
							"type": "uint256"
						}
					],
					"name": "getPost",
					"outputs": [
						{
							"internalType": "address",
							"name": "",
							"type": "address"
						},
						{
							"internalType": "string",
							"name": "",
							"type": "string"
						},
						{
							"internalType": "uint256",
							"name": "",
							"type": "uint256"
						},
						{
							"internalType": "uint256",
							"name": "",
							"type": "uint256"
						},
						{
							"internalType": "uint256",
							"name": "",
							"type": "uint256"
						},
						{
							"internalType": "string[]",
							"name": "",
							"type": "string[]"
						}
					],
					"stateMutability": "view",
					"type": "function"
				},
				{
					"inputs": [
						{
							"internalType": "uint256",
							"name": "postId",
							"type": "uint256"
						}
					],
					"name": "getPostComments",
					"outputs": [
						{
							"internalType": "string[]",
							"name": "",
							"type": "string[]"
						}
					],
					"stateMutability": "view",
					"type": "function"
				},
				{
					"inputs": [
						{
							"internalType": "uint256",
							"name": "postId",
							"type": "uint256"
						}
					],
					"name": "likePost",
					"outputs": [],
					"stateMutability": "payable",
					"type": "function"
				},
				{
					"inputs": [],
					"name": "owner",
					"outputs": [
						{
							"internalType": "address",
							"name": "",
							"type": "address"
						}
					],
					"stateMutability": "view",
					"type": "function"
				},
				{
					"inputs": [],
					"name": "postIdCounter",
					"outputs": [
						{
							"internalType": "uint256",
							"name": "",
							"type": "uint256"
						}
					],
					"stateMutability": "view",
					"type": "function"
				},
				{
					"inputs": [
						{
							"internalType": "uint256",
							"name": "",
							"type": "uint256"
						}
					],
					"name": "posts",
					"outputs": [
						{
							"internalType": "address",
							"name": "creator",
							"type": "address"
						},
						{
							"internalType": "string",
							"name": "content",
							"type": "string"
						},
						{
							"internalType": "uint256",
							"name": "creationTime",
							"type": "uint256"
						},
						{
							"internalType": "uint256",
							"name": "likes",
							"type": "uint256"
						}
					],
					"stateMutability": "view",
					"type": "function"
				},
				{
					"inputs": [
						{
							"internalType": "address",
							"name": "",
							"type": "address"
						}
					],
					"name": "profiles",
					"outputs": [
						{
							"internalType": "string",
							"name": "username",
							"type": "string"
						},
						{
							"internalType": "string",
							"name": "bio",
							"type": "string"
						}
					],
					"stateMutability": "view",
					"type": "function"
				},
				{
					"inputs": [
						{
							"internalType": "string",
							"name": "username",
							"type": "string"
						},
						{
							"internalType": "string",
							"name": "bio",
							"type": "string"
						}
					],
					"name": "updateUserProfile",
					"outputs": [],
					"stateMutability": "nonpayable",
					"type": "function"
				},
				{
					"inputs": [],
					"name": "withdrawEther",
					"outputs": [],
					"stateMutability": "nonpayable",
					"type": "function"
				}
			],
			"devdoc": {
				"kind": "dev",
				"methods": {},
				"version": 1
			},
			"evm": {
				"assembly": "    /* \"contracts/HelloWorld.sol\":57:3300  contract SocialMediaPlatform {... */\n  mstore(0x40, 0x80)\n    /* \"contracts/HelloWorld.sol\":920:969  constructor() {... */\n  callvalue\n  dup1\n  iszero\n  tag_1\n  jumpi\n  0x00\n  dup1\n  revert\ntag_1:\n  pop\n    /* \"contracts/HelloWorld.sol\":952:962  msg.sender */\n  caller\n    /* \"contracts/HelloWorld.sol\":944:949  owner */\n  0x00\n  dup1\n    /* \"contracts/HelloWorld.sol\":944:962  owner = msg.sender */\n  0x0100\n  exp\n  dup2\n  sload\n  dup2\n  0xffffffffffffffffffffffffffffffffffffffff\n  mul\n  not\n  and\n  swap1\n  dup4\n  0xffffffffffffffffffffffffffffffffffffffff\n  and\n  mul\n  or\n  swap1\n  sstore\n  pop\n    /* \"contracts/HelloWorld.sol\":57:3300  contract SocialMediaPlatform {... */\n  dataSize(sub_0)\n  dup1\n  dataOffset(sub_0)\n  0x00\n  codecopy\n  0x00\n  return\nstop\n\nsub_0: assembly {\n        /* \"contracts/HelloWorld.sol\":57:3300  contract SocialMediaPlatform {... */\n      mstore(0x40, 0x80)\n      jumpi(tag_1, lt(calldatasize, 0x04))\n      shr(0xe0, calldataload(0x00))\n      dup1\n      0x7362377b\n      gt\n      tag_14\n      jumpi\n      dup1\n      0x7362377b\n      eq\n      tag_8\n      jumpi\n      dup1\n      0x8da5cb5b\n      eq\n      tag_9\n      jumpi\n      dup1\n      0xad77c4d0\n      eq\n      tag_10\n      jumpi\n      dup1\n      0xbbe15627\n      eq\n      tag_11\n      jumpi\n      dup1\n      0xc7303c61\n      eq\n      tag_12\n      jumpi\n      dup1\n      0xd524ff76\n      eq\n      tag_13\n      jumpi\n      jump(tag_1)\n    tag_14:\n      dup1\n      0x0b1e7f83\n      eq\n      tag_2\n      jumpi\n      dup1\n      0x40731c24\n      eq\n      tag_3\n      jumpi\n      dup1\n      0x40e06979\n      eq\n      tag_4\n      jumpi\n      dup1\n      0x64732154\n      eq\n      tag_5\n      jumpi\n      dup1\n      0x6a571859\n      eq\n      tag_6\n      jumpi\n      dup1\n      0x725009d3\n      eq\n      tag_7\n      jumpi\n    tag_1:\n      0x00\n      dup1\n      revert\n        /* \"contracts/HelloWorld.sol\":276:313  mapping(uint256 => Post) public posts */\n    tag_2:\n      callvalue\n      dup1\n      iszero\n      tag_15\n      jumpi\n      0x00\n      dup1\n      revert\n    tag_15:\n      pop\n      tag_16\n      0x04\n      dup1\n      calldatasize\n      sub\n      dup2\n      add\n      swap1\n      tag_17\n      swap2\n      swap1\n      tag_18\n      jump\t// in\n    tag_17:\n      tag_19\n      jump\t// in\n    tag_16:\n      mload(0x40)\n      tag_20\n      swap5\n      swap4\n      swap3\n      swap2\n      swap1\n      tag_21\n      jump\t// in\n    tag_20:\n      mload(0x40)\n      dup1\n      swap2\n      sub\n      swap1\n      return\n        /* \"contracts/HelloWorld.sol\":3021:3297  function getPost(uint256 postId) public view returns (address, string memory, uint256, uint256, uint256, string[] memory){... */\n    tag_3:\n      callvalue\n      dup1\n      iszero\n      tag_22\n      jumpi\n      0x00\n      dup1\n      revert\n    tag_22:\n      pop\n      tag_23\n      0x04\n      dup1\n      calldatasize\n      sub\n      dup2\n      add\n      swap1\n      tag_24\n      swap2\n      swap1\n      tag_18\n      jump\t// in\n    tag_24:\n      tag_25\n      jump\t// in\n    tag_23:\n      mload(0x40)\n      tag_26\n      swap7\n      swap6\n      swap5\n      swap4\n      swap3\n      swap2\n      swap1\n      tag_27\n      jump\t// in\n    tag_26:\n      mload(0x40)\n      dup1\n      swap2\n      sub\n      swap1\n      return\n        /* \"contracts/HelloWorld.sol\":1023:1231  function updateUserProfile(string memory username, string memory bio) public {... */\n    tag_4:\n      callvalue\n      dup1\n      iszero\n      tag_28\n      jumpi\n      0x00\n      dup1\n      revert\n    tag_28:\n      pop\n      tag_29\n      0x04\n      dup1\n      calldatasize\n      sub\n      dup2\n      add\n      swap1\n      tag_30\n      swap2\n      swap1\n      tag_31\n      jump\t// in\n    tag_30:\n      tag_32\n      jump\t// in\n    tag_29:\n      stop\n        /* \"contracts/HelloWorld.sol\":2133:2506  function commentOnPost(uint256 postId, string memory comment) public payable {... */\n    tag_5:\n      tag_33\n      0x04\n      dup1\n      calldatasize\n      sub\n      dup2\n      add\n      swap1\n      tag_34\n      swap2\n      swap1\n      tag_35\n      jump\t// in\n    tag_34:\n      tag_36\n      jump\t// in\n    tag_33:\n      stop\n        /* \"contracts/HelloWorld.sol\":119:147  uint256 public postIdCounter */\n    tag_6:\n      callvalue\n      dup1\n      iszero\n      tag_37\n      jumpi\n      0x00\n      dup1\n      revert\n    tag_37:\n      pop\n      tag_38\n      tag_39\n      jump\t// in\n    tag_38:\n      mload(0x40)\n      tag_40\n      swap2\n      swap1\n      tag_41\n      jump\t// in\n    tag_40:\n      mload(0x40)\n      dup1\n      swap2\n      sub\n      swap1\n      return\n        /* \"contracts/HelloWorld.sol\":1737:2090  function likePost(uint256 postId) public payable {... */\n    tag_7:\n      tag_42\n      0x04\n      dup1\n      calldatasize\n      sub\n      dup2\n      add\n      swap1\n      tag_43\n      swap2\n      swap1\n      tag_18\n      jump\t// in\n    tag_43:\n      tag_44\n      jump\t// in\n    tag_42:\n      stop\n        /* \"contracts/HelloWorld.sol\":2577:2737  function withdrawEther() public {... */\n    tag_8:\n      callvalue\n      dup1\n      iszero\n      tag_45\n      jumpi\n      0x00\n      dup1\n      revert\n    tag_45:\n      pop\n      tag_46\n      tag_47\n      jump\t// in\n    tag_46:\n      stop\n        /* \"contracts/HelloWorld.sol\":93:113  address public owner */\n    tag_9:\n      callvalue\n      dup1\n      iszero\n      tag_48\n      jumpi\n      0x00\n      dup1\n      revert\n    tag_48:\n      pop\n      tag_49\n      tag_50\n      jump\t// in\n    tag_49:\n      mload(0x40)\n      tag_51\n      swap2\n      swap1\n      tag_52\n      jump\t// in\n    tag_51:\n      mload(0x40)\n      dup1\n      swap2\n      sub\n      swap1\n      return\n        /* \"contracts/HelloWorld.sol\":2793:2885  function getNextPostID() public view returns (uint256) {... */\n    tag_10:\n      callvalue\n      dup1\n      iszero\n      tag_53\n      jumpi\n      0x00\n      dup1\n      revert\n    tag_53:\n      pop\n      tag_54\n      tag_55\n      jump\t// in\n    tag_54:\n      mload(0x40)\n      tag_56\n      swap2\n      swap1\n      tag_41\n      jump\t// in\n    tag_56:\n      mload(0x40)\n      dup1\n      swap2\n      sub\n      swap1\n      return\n        /* \"contracts/HelloWorld.sol\":192:239  mapping(address => UserProfile) public profiles */\n    tag_11:\n      callvalue\n      dup1\n      iszero\n      tag_57\n      jumpi\n      0x00\n      dup1\n      revert\n    tag_57:\n      pop\n      tag_58\n      0x04\n      dup1\n      calldatasize\n      sub\n      dup2\n      add\n      swap1\n      tag_59\n      swap2\n      swap1\n      tag_60\n      jump\t// in\n    tag_59:\n      tag_61\n      jump\t// in\n    tag_58:\n      mload(0x40)\n      tag_62\n      swap3\n      swap2\n      swap1\n      tag_63\n      jump\t// in\n    tag_62:\n      mload(0x40)\n      dup1\n      swap2\n      sub\n      swap1\n      return\n        /* \"contracts/HelloWorld.sol\":1274:1700  function createPost(string memory content) public payable {... */\n    tag_12:\n      tag_64\n      0x04\n      dup1\n      calldatasize\n      sub\n      dup2\n      add\n      swap1\n      tag_65\n      swap2\n      swap1\n      tag_66\n      jump\t// in\n    tag_65:\n      tag_67\n      jump\t// in\n    tag_64:\n      stop\n        /* \"contracts/HelloWorld.sol\":2895:3015  function getPostComments(uint256 postId) public view returns (string[] memory){... */\n    tag_13:\n      callvalue\n      dup1\n      iszero\n      tag_68\n      jumpi\n      0x00\n      dup1\n      revert\n    tag_68:\n      pop\n      tag_69\n      0x04\n      dup1\n      calldatasize\n      sub\n      dup2\n      add\n      swap1\n      tag_70\n      swap2\n      swap1\n      tag_18\n      jump\t// in\n    tag_70:\n      tag_71\n      jump\t// in\n    tag_69:\n      mload(0x40)\n      tag_72\n      swap2\n      swap1\n      tag_73\n      jump\t// in\n    tag_72:\n      mload(0x40)\n      dup1\n      swap2\n      sub\n      swap1\n      return\n        /* \"contracts/HelloWorld.sol\":276:313  mapping(uint256 => Post) public posts */\n    tag_19:\n      mstore(0x20, 0x03)\n      dup1\n      0x00\n      mstore\n      keccak256(0x00, 0x40)\n      0x00\n      swap2\n      pop\n      swap1\n      pop\n      dup1\n      0x00\n      add\n      0x00\n      swap1\n      sload\n      swap1\n      0x0100\n      exp\n      swap1\n      div\n      0xffffffffffffffffffffffffffffffffffffffff\n      and\n      swap1\n      dup1\n      0x01\n      add\n      dup1\n      sload\n      tag_74\n      swap1\n      tag_75\n      jump\t// in\n    tag_74:\n      dup1\n      0x1f\n      add\n      0x20\n      dup1\n      swap2\n      div\n      mul\n      0x20\n      add\n      mload(0x40)\n      swap1\n      dup2\n      add\n      0x40\n      mstore\n      dup1\n      swap3\n      swap2\n      swap1\n      dup2\n      dup2\n      mstore\n      0x20\n      add\n      dup3\n      dup1\n      sload\n      tag_76\n      swap1\n      tag_75\n      jump\t// in\n    tag_76:\n      dup1\n      iszero\n      tag_77\n      jumpi\n      dup1\n      0x1f\n      lt\n      tag_78\n      jumpi\n      0x0100\n      dup1\n      dup4\n      sload\n      div\n      mul\n      dup4\n      mstore\n      swap2\n      0x20\n      add\n      swap2\n      jump(tag_77)\n    tag_78:\n      dup3\n      add\n      swap2\n      swap1\n      0x00\n      mstore\n      keccak256(0x00, 0x20)\n      swap1\n    tag_79:\n      dup2\n      sload\n      dup2\n      mstore\n      swap1\n      0x01\n      add\n      swap1\n      0x20\n      add\n      dup1\n      dup4\n      gt\n      tag_79\n      jumpi\n      dup3\n      swap1\n      sub\n      0x1f\n      and\n      dup3\n      add\n      swap2\n    tag_77:\n      pop\n      pop\n      pop\n      pop\n      pop\n      swap1\n      dup1\n      0x02\n      add\n      sload\n      swap1\n      dup1\n      0x03\n      add\n      sload\n      swap1\n      pop\n      dup5\n      jump\t// out\n        /* \"contracts/HelloWorld.sol\":3021:3297  function getPost(uint256 postId) public view returns (address, string memory, uint256, uint256, uint256, string[] memory){... */\n    tag_25:\n        /* \"contracts/HelloWorld.sol\":3075:3082  address */\n      0x00\n        /* \"contracts/HelloWorld.sol\":3084:3097  string memory */\n      0x60\n        /* \"contracts/HelloWorld.sol\":3099:3106  uint256 */\n      0x00\n        /* \"contracts/HelloWorld.sol\":3108:3115  uint256 */\n      dup1\n        /* \"contracts/HelloWorld.sol\":3117:3124  uint256 */\n      0x00\n        /* \"contracts/HelloWorld.sol\":3126:3141  string[] memory */\n      0x60\n        /* \"contracts/HelloWorld.sol\":3148:3165  Post storage post */\n      0x00\n        /* \"contracts/HelloWorld.sol\":3168:3173  posts */\n      0x03\n        /* \"contracts/HelloWorld.sol\":3168:3181  posts[postId] */\n      0x00\n        /* \"contracts/HelloWorld.sol\":3174:3180  postId */\n      dup10\n        /* \"contracts/HelloWorld.sol\":3168:3181  posts[postId] */\n      dup2\n      mstore\n      0x20\n      add\n      swap1\n      dup2\n      mstore\n      0x20\n      add\n      0x00\n      keccak256\n        /* \"contracts/HelloWorld.sol\":3148:3181  Post storage post = posts[postId] */\n      swap1\n      pop\n        /* \"contracts/HelloWorld.sol\":3195:3199  post */\n      dup1\n        /* \"contracts/HelloWorld.sol\":3195:3207  post.creator */\n      0x00\n      add\n      0x00\n      swap1\n      sload\n      swap1\n      0x0100\n      exp\n      swap1\n      div\n      0xffffffffffffffffffffffffffffffffffffffff\n      and\n        /* \"contracts/HelloWorld.sol\":3209:3213  post */\n      dup2\n        /* \"contracts/HelloWorld.sol\":3209:3221  post.content */\n      0x01\n      add\n        /* \"contracts/HelloWorld.sol\":3223:3227  post */\n      dup3\n        /* \"contracts/HelloWorld.sol\":3223:3240  post.creationTime */\n      0x02\n      add\n      sload\n        /* \"contracts/HelloWorld.sol\":3242:3246  post */\n      dup4\n        /* \"contracts/HelloWorld.sol\":3242:3252  post.likes */\n      0x03\n      add\n      sload\n        /* \"contracts/HelloWorld.sol\":3254:3258  post */\n      dup5\n        /* \"contracts/HelloWorld.sol\":3254:3267  post.comments */\n      0x04\n      add\n        /* \"contracts/HelloWorld.sol\":3254:3274  post.comments.length */\n      dup1\n      sload\n      swap1\n      pop\n        /* \"contracts/HelloWorld.sol\":3276:3280  post */\n      dup6\n        /* \"contracts/HelloWorld.sol\":3276:3289  post.comments */\n      0x04\n      add\n        /* \"contracts/HelloWorld.sol\":3187:3290  return (post.creator, post.content, post.creationTime, post.likes, post.comments.length, post.comments) */\n      dup5\n      dup1\n      sload\n      tag_81\n      swap1\n      tag_75\n      jump\t// in\n    tag_81:\n      dup1\n      0x1f\n      add\n      0x20\n      dup1\n      swap2\n      div\n      mul\n      0x20\n      add\n      mload(0x40)\n      swap1\n      dup2\n      add\n      0x40\n      mstore\n      dup1\n      swap3\n      swap2\n      swap1\n      dup2\n      dup2\n      mstore\n      0x20\n      add\n      dup3\n      dup1\n      sload\n      tag_82\n      swap1\n      tag_75\n      jump\t// in\n    tag_82:\n      dup1\n      iszero\n      tag_83\n      jumpi\n      dup1\n      0x1f\n      lt\n      tag_84\n      jumpi\n      0x0100\n      dup1\n      dup4\n      sload\n      div\n      mul\n      dup4\n      mstore\n      swap2\n      0x20\n      add\n      swap2\n      jump(tag_83)\n    tag_84:\n      dup3\n      add\n      swap2\n      swap1\n      0x00\n      mstore\n      keccak256(0x00, 0x20)\n      swap1\n    tag_85:\n      dup2\n      sload\n      dup2\n      mstore\n      swap1\n      0x01\n      add\n      swap1\n      0x20\n      add\n      dup1\n      dup4\n      gt\n      tag_85\n      jumpi\n      dup3\n      swap1\n      sub\n      0x1f\n      and\n      dup3\n      add\n      swap2\n    tag_83:\n      pop\n      pop\n      pop\n      pop\n      pop\n      swap5\n      pop\n      dup1\n      dup1\n      sload\n      dup1\n      0x20\n      mul\n      0x20\n      add\n      mload(0x40)\n      swap1\n      dup2\n      add\n      0x40\n      mstore\n      dup1\n      swap3\n      swap2\n      swap1\n      dup2\n      dup2\n      mstore\n      0x20\n      add\n      0x00\n      swap1\n    tag_86:\n      dup3\n      dup3\n      lt\n      iszero\n      tag_87\n      jumpi\n      dup4\n      dup3\n      swap1\n      0x00\n      mstore\n      keccak256(0x00, 0x20)\n      add\n      dup1\n      sload\n      tag_89\n      swap1\n      tag_75\n      jump\t// in\n    tag_89:\n      dup1\n      0x1f\n      add\n      0x20\n      dup1\n      swap2\n      div\n      mul\n      0x20\n      add\n      mload(0x40)\n      swap1\n      dup2\n      add\n      0x40\n      mstore\n      dup1\n      swap3\n      swap2\n      swap1\n      dup2\n      dup2\n      mstore\n      0x20\n      add\n      dup3\n      dup1\n      sload\n      tag_90\n      swap1\n      tag_75\n      jump\t// in\n    tag_90:\n      dup1\n      iszero\n      tag_91\n      jumpi\n      dup1\n      0x1f\n      lt\n      tag_92\n      jumpi\n      0x0100\n      dup1\n      dup4\n      sload\n      div\n      mul\n      dup4\n      mstore\n      swap2\n      0x20\n      add\n      swap2\n      jump(tag_91)\n    tag_92:\n      dup3\n      add\n      swap2\n      swap1\n      0x00\n      mstore\n      keccak256(0x00, 0x20)\n      swap1\n    tag_93:\n      dup2\n      sload\n      dup2\n      mstore\n      swap1\n      0x01\n      add\n      swap1\n      0x20\n      add\n      dup1\n      dup4\n      gt\n      tag_93\n      jumpi\n      dup3\n      swap1\n      sub\n      0x1f\n      and\n      dup3\n      add\n      swap2\n    tag_91:\n      pop\n      pop\n      pop\n      pop\n      pop\n      dup2\n      mstore\n      0x20\n      add\n      swap1\n      0x01\n      add\n      swap1\n      jump(tag_86)\n    tag_87:\n      pop\n      pop\n      pop\n      pop\n      swap1\n      pop\n      swap7\n      pop\n      swap7\n      pop\n      swap7\n      pop\n      swap7\n      pop\n      swap7\n      pop\n      swap7\n      pop\n      pop\n        /* \"contracts/HelloWorld.sol\":3021:3297  function getPost(uint256 postId) public view returns (address, string memory, uint256, uint256, uint256, string[] memory){... */\n      swap2\n      swap4\n      swap6\n      pop\n      swap2\n      swap4\n      swap6\n      jump\t// out\n        /* \"contracts/HelloWorld.sol\":1023:1231  function updateUserProfile(string memory username, string memory bio) public {... */\n    tag_32:\n        /* \"contracts/HelloWorld.sol\":1110:1137  UserProfile storage profile */\n      0x00\n        /* \"contracts/HelloWorld.sol\":1140:1148  profiles */\n      0x02\n        /* \"contracts/HelloWorld.sol\":1140:1160  profiles[msg.sender] */\n      0x00\n        /* \"contracts/HelloWorld.sol\":1149:1159  msg.sender */\n      caller\n        /* \"contracts/HelloWorld.sol\":1140:1160  profiles[msg.sender] */\n      0xffffffffffffffffffffffffffffffffffffffff\n      and\n      0xffffffffffffffffffffffffffffffffffffffff\n      and\n      dup2\n      mstore\n      0x20\n      add\n      swap1\n      dup2\n      mstore\n      0x20\n      add\n      0x00\n      keccak256\n        /* \"contracts/HelloWorld.sol\":1110:1160  UserProfile storage profile = profiles[msg.sender] */\n      swap1\n      pop\n        /* \"contracts/HelloWorld.sol\":1189:1197  username */\n      dup3\n        /* \"contracts/HelloWorld.sol\":1170:1177  profile */\n      dup2\n        /* \"contracts/HelloWorld.sol\":1170:1186  profile.username */\n      0x00\n      add\n        /* \"contracts/HelloWorld.sol\":1170:1197  profile.username = username */\n      swap1\n      dup2\n      tag_95\n      swap2\n      swap1\n      tag_96\n      jump\t// in\n    tag_95:\n      pop\n        /* \"contracts/HelloWorld.sol\":1221:1224  bio */\n      dup2\n        /* \"contracts/HelloWorld.sol\":1207:1214  profile */\n      dup2\n        /* \"contracts/HelloWorld.sol\":1207:1218  profile.bio */\n      0x01\n      add\n        /* \"contracts/HelloWorld.sol\":1207:1224  profile.bio = bio */\n      swap1\n      dup2\n      tag_97\n      swap2\n      swap1\n      tag_96\n      jump\t// in\n    tag_97:\n      pop\n        /* \"contracts/HelloWorld.sol\":1100:1231  {... */\n      pop\n        /* \"contracts/HelloWorld.sol\":1023:1231  function updateUserProfile(string memory username, string memory bio) public {... */\n      pop\n      pop\n      jump\t// out\n        /* \"contracts/HelloWorld.sol\":2133:2506  function commentOnPost(uint256 postId, string memory comment) public payable {... */\n    tag_36:\n        /* \"contracts/HelloWorld.sol\":2220:2237  Post storage post */\n      0x00\n        /* \"contracts/HelloWorld.sol\":2240:2245  posts */\n      0x03\n        /* \"contracts/HelloWorld.sol\":2240:2253  posts[postId] */\n      0x00\n        /* \"contracts/HelloWorld.sol\":2246:2252  postId */\n      dup5\n        /* \"contracts/HelloWorld.sol\":2240:2253  posts[postId] */\n      dup2\n      mstore\n      0x20\n      add\n      swap1\n      dup2\n      mstore\n      0x20\n      add\n      0x00\n      keccak256\n        /* \"contracts/HelloWorld.sol\":2220:2253  Post storage post = posts[postId] */\n      swap1\n      pop\n        /* \"contracts/HelloWorld.sol\":2295:2296  0 */\n      0x00\n        /* \"contracts/HelloWorld.sol\":2271:2297  post.creator != address(0) */\n      0xffffffffffffffffffffffffffffffffffffffff\n      and\n        /* \"contracts/HelloWorld.sol\":2271:2275  post */\n      dup2\n        /* \"contracts/HelloWorld.sol\":2271:2283  post.creator */\n      0x00\n      add\n      0x00\n      swap1\n      sload\n      swap1\n      0x0100\n      exp\n      swap1\n      div\n      0xffffffffffffffffffffffffffffffffffffffff\n      and\n        /* \"contracts/HelloWorld.sol\":2271:2297  post.creator != address(0) */\n      0xffffffffffffffffffffffffffffffffffffffff\n      and\n      sub\n        /* \"contracts/HelloWorld.sol\":2263:2321  require(post.creator != address(0), \"Post does not exist\") */\n      tag_99\n      jumpi\n      mload(0x40)\n      0x08c379a000000000000000000000000000000000000000000000000000000000\n      dup2\n      mstore\n      0x04\n      add\n      tag_100\n      swap1\n      tag_101\n      jump\t// in\n    tag_100:\n      mload(0x40)\n      dup1\n      swap2\n      sub\n      swap1\n      revert\n    tag_99:\n        /* \"contracts/HelloWorld.sol\":2352:2362  0.01 ether */\n      0x2386f26fc10000\n        /* \"contracts/HelloWorld.sol\":2339:2348  msg.value */\n      callvalue\n        /* \"contracts/HelloWorld.sol\":2339:2362  msg.value >= 0.01 ether */\n      lt\n      iszero\n        /* \"contracts/HelloWorld.sol\":2331:2400  require(msg.value >= 0.01 ether, \"Insufficient ether for commenting\") */\n      tag_102\n      jumpi\n      mload(0x40)\n      0x08c379a000000000000000000000000000000000000000000000000000000000\n      dup2\n      mstore\n      0x04\n      add\n      tag_103\n      swap1\n      tag_104\n      jump\t// in\n    tag_103:\n      mload(0x40)\n      dup1\n      swap2\n      sub\n      swap1\n      revert\n    tag_102:\n        /* \"contracts/HelloWorld.sol\":2411:2415  post */\n      dup1\n        /* \"contracts/HelloWorld.sol\":2411:2424  post.comments */\n      0x04\n      add\n        /* \"contracts/HelloWorld.sol\":2430:2437  comment */\n      dup3\n        /* \"contracts/HelloWorld.sol\":2411:2438  post.comments.push(comment) */\n      swap1\n      dup1\n      0x01\n      dup2\n      sload\n      add\n      dup1\n      dup3\n      sstore\n      dup1\n      swap2\n      pop\n      pop\n      0x01\n      swap1\n      sub\n      swap1\n      0x00\n      mstore\n      keccak256(0x00, 0x20)\n      add\n      0x00\n      swap1\n      swap2\n      swap1\n      swap2\n      swap1\n      swap2\n      pop\n      swap1\n      dup2\n      tag_106\n      swap2\n      swap1\n      tag_96\n      jump\t// in\n    tag_106:\n      pop\n        /* \"contracts/HelloWorld.sol\":2453:2499  PostInteraction(postId, msg.sender, \"Comment\") */\n      0x9c1033b06ea0dbddc7885a63d2534017794bac1be72a3f67d4fd997c9296ca43\n        /* \"contracts/HelloWorld.sol\":2469:2475  postId */\n      dup4\n        /* \"contracts/HelloWorld.sol\":2477:2487  msg.sender */\n      caller\n        /* \"contracts/HelloWorld.sol\":2453:2499  PostInteraction(postId, msg.sender, \"Comment\") */\n      mload(0x40)\n      tag_107\n      swap3\n      swap2\n      swap1\n      tag_108\n      jump\t// in\n    tag_107:\n      mload(0x40)\n      dup1\n      swap2\n      sub\n      swap1\n      log1\n        /* \"contracts/HelloWorld.sol\":2210:2506  {... */\n      pop\n        /* \"contracts/HelloWorld.sol\":2133:2506  function commentOnPost(uint256 postId, string memory comment) public payable {... */\n      pop\n      pop\n      jump\t// out\n        /* \"contracts/HelloWorld.sol\":119:147  uint256 public postIdCounter */\n    tag_39:\n      sload(0x01)\n      dup2\n      jump\t// out\n        /* \"contracts/HelloWorld.sol\":1737:2090  function likePost(uint256 postId) public payable {... */\n    tag_44:\n        /* \"contracts/HelloWorld.sol\":1796:1813  Post storage post */\n      0x00\n        /* \"contracts/HelloWorld.sol\":1816:1821  posts */\n      0x03\n        /* \"contracts/HelloWorld.sol\":1816:1829  posts[postId] */\n      0x00\n        /* \"contracts/HelloWorld.sol\":1822:1828  postId */\n      dup4\n        /* \"contracts/HelloWorld.sol\":1816:1829  posts[postId] */\n      dup2\n      mstore\n      0x20\n      add\n      swap1\n      dup2\n      mstore\n      0x20\n      add\n      0x00\n      keccak256\n        /* \"contracts/HelloWorld.sol\":1796:1829  Post storage post = posts[postId] */\n      swap1\n      pop\n        /* \"contracts/HelloWorld.sol\":1871:1872  0 */\n      0x00\n        /* \"contracts/HelloWorld.sol\":1847:1873  post.creator != address(0) */\n      0xffffffffffffffffffffffffffffffffffffffff\n      and\n        /* \"contracts/HelloWorld.sol\":1847:1851  post */\n      dup2\n        /* \"contracts/HelloWorld.sol\":1847:1859  post.creator */\n      0x00\n      add\n      0x00\n      swap1\n      sload\n      swap1\n      0x0100\n      exp\n      swap1\n      div\n      0xffffffffffffffffffffffffffffffffffffffff\n      and\n        /* \"contracts/HelloWorld.sol\":1847:1873  post.creator != address(0) */\n      0xffffffffffffffffffffffffffffffffffffffff\n      and\n      sub\n        /* \"contracts/HelloWorld.sol\":1839:1897  require(post.creator != address(0), \"Post does not exist\") */\n      tag_110\n      jumpi\n      mload(0x40)\n      0x08c379a000000000000000000000000000000000000000000000000000000000\n      dup2\n      mstore\n      0x04\n      add\n      tag_111\n      swap1\n      tag_101\n      jump\t// in\n    tag_111:\n      mload(0x40)\n      dup1\n      swap2\n      sub\n      swap1\n      revert\n    tag_110:\n        /* \"contracts/HelloWorld.sol\":1928:1939  0.005 ether */\n      0x11c37937e08000\n        /* \"contracts/HelloWorld.sol\":1915:1924  msg.value */\n      callvalue\n        /* \"contracts/HelloWorld.sol\":1915:1939  msg.value >= 0.005 ether */\n      lt\n      iszero\n        /* \"contracts/HelloWorld.sol\":1907:1973  require(msg.value >= 0.005 ether, \"Insufficient ether for liking\") */\n      tag_112\n      jumpi\n      mload(0x40)\n      0x08c379a000000000000000000000000000000000000000000000000000000000\n      dup2\n      mstore\n      0x04\n      add\n      tag_113\n      swap1\n      tag_114\n      jump\t// in\n    tag_113:\n      mload(0x40)\n      dup1\n      swap2\n      sub\n      swap1\n      revert\n    tag_112:\n        /* \"contracts/HelloWorld.sol\":2013:2017  post */\n      dup1\n        /* \"contracts/HelloWorld.sol\":2013:2023  post.likes */\n      0x03\n      add\n      0x00\n        /* \"contracts/HelloWorld.sol\":2013:2025  post.likes++ */\n      dup2\n      sload\n      dup1\n      swap3\n      swap2\n      swap1\n      tag_115\n      swap1\n      tag_116\n      jump\t// in\n    tag_115:\n      swap2\n      swap1\n      pop\n      sstore\n      pop\n        /* \"contracts/HelloWorld.sol\":2040:2083  PostInteraction(postId, msg.sender, \"Like\") */\n      0x9c1033b06ea0dbddc7885a63d2534017794bac1be72a3f67d4fd997c9296ca43\n        /* \"contracts/HelloWorld.sol\":2056:2062  postId */\n      dup3\n        /* \"contracts/HelloWorld.sol\":2064:2074  msg.sender */\n      caller\n        /* \"contracts/HelloWorld.sol\":2040:2083  PostInteraction(postId, msg.sender, \"Like\") */\n      mload(0x40)\n      tag_117\n      swap3\n      swap2\n      swap1\n      tag_118\n      jump\t// in\n    tag_117:\n      mload(0x40)\n      dup1\n      swap2\n      sub\n      swap1\n      log1\n        /* \"contracts/HelloWorld.sol\":1786:2090  {... */\n      pop\n        /* \"contracts/HelloWorld.sol\":1737:2090  function likePost(uint256 postId) public payable {... */\n      pop\n      jump\t// out\n        /* \"contracts/HelloWorld.sol\":2577:2737  function withdrawEther() public {... */\n    tag_47:\n        /* \"contracts/HelloWorld.sol\":2641:2646  owner */\n      0x00\n      dup1\n      sload\n      swap1\n      0x0100\n      exp\n      swap1\n      div\n      0xffffffffffffffffffffffffffffffffffffffff\n      and\n        /* \"contracts/HelloWorld.sol\":2627:2646  msg.sender == owner */\n      0xffffffffffffffffffffffffffffffffffffffff\n      and\n        /* \"contracts/HelloWorld.sol\":2627:2637  msg.sender */\n      caller\n        /* \"contracts/HelloWorld.sol\":2627:2646  msg.sender == owner */\n      0xffffffffffffffffffffffffffffffffffffffff\n      and\n      eq\n        /* \"contracts/HelloWorld.sol\":2619:2674  require(msg.sender == owner, \"Only owner can withdraw\") */\n      tag_120\n      jumpi\n      mload(0x40)\n      0x08c379a000000000000000000000000000000000000000000000000000000000\n      dup2\n      mstore\n      0x04\n      add\n      tag_121\n      swap1\n      tag_122\n      jump\t// in\n    tag_121:\n      mload(0x40)\n      dup1\n      swap2\n      sub\n      swap1\n      revert\n    tag_120:\n        /* \"contracts/HelloWorld.sol\":2692:2697  owner */\n      0x00\n      dup1\n      sload\n      swap1\n      0x0100\n      exp\n      swap1\n      div\n      0xffffffffffffffffffffffffffffffffffffffff\n      and\n        /* \"contracts/HelloWorld.sol\":2684:2707  payable(owner).transfer */\n      0xffffffffffffffffffffffffffffffffffffffff\n      and\n        /* \"contracts/HelloWorld.sol\":2684:2730  payable(owner).transfer(address(this).balance) */\n      0x08fc\n        /* \"contracts/HelloWorld.sol\":2708:2729  address(this).balance */\n      selfbalance\n        /* \"contracts/HelloWorld.sol\":2684:2730  payable(owner).transfer(address(this).balance) */\n      swap1\n      dup2\n      iszero\n      mul\n      swap1\n      mload(0x40)\n      0x00\n      mload(0x40)\n      dup1\n      dup4\n      sub\n      dup2\n      dup6\n      dup9\n      dup9\n      call\n      swap4\n      pop\n      pop\n      pop\n      pop\n      iszero\n      dup1\n      iszero\n      tag_124\n      jumpi\n      returndatasize\n      0x00\n      dup1\n      returndatacopy\n      revert(0x00, returndatasize)\n    tag_124:\n      pop\n        /* \"contracts/HelloWorld.sol\":2577:2737  function withdrawEther() public {... */\n      jump\t// out\n        /* \"contracts/HelloWorld.sol\":93:113  address public owner */\n    tag_50:\n      0x00\n      dup1\n      sload\n      swap1\n      0x0100\n      exp\n      swap1\n      div\n      0xffffffffffffffffffffffffffffffffffffffff\n      and\n      dup2\n      jump\t// out\n        /* \"contracts/HelloWorld.sol\":2793:2885  function getNextPostID() public view returns (uint256) {... */\n    tag_55:\n        /* \"contracts/HelloWorld.sol\":2839:2846  uint256 */\n      0x00\n        /* \"contracts/HelloWorld.sol\":2865:2878  postIdCounter */\n      sload(0x01)\n        /* \"contracts/HelloWorld.sol\":2858:2878  return postIdCounter */\n      swap1\n      pop\n        /* \"contracts/HelloWorld.sol\":2793:2885  function getNextPostID() public view returns (uint256) {... */\n      swap1\n      jump\t// out\n        /* \"contracts/HelloWorld.sol\":192:239  mapping(address => UserProfile) public profiles */\n    tag_61:\n      mstore(0x20, 0x02)\n      dup1\n      0x00\n      mstore\n      keccak256(0x00, 0x40)\n      0x00\n      swap2\n      pop\n      swap1\n      pop\n      dup1\n      0x00\n      add\n      dup1\n      sload\n      tag_126\n      swap1\n      tag_75\n      jump\t// in\n    tag_126:\n      dup1\n      0x1f\n      add\n      0x20\n      dup1\n      swap2\n      div\n      mul\n      0x20\n      add\n      mload(0x40)\n      swap1\n      dup2\n      add\n      0x40\n      mstore\n      dup1\n      swap3\n      swap2\n      swap1\n      dup2\n      dup2\n      mstore\n      0x20\n      add\n      dup3\n      dup1\n      sload\n      tag_127\n      swap1\n      tag_75\n      jump\t// in\n    tag_127:\n      dup1\n      iszero\n      tag_128\n      jumpi\n      dup1\n      0x1f\n      lt\n      tag_129\n      jumpi\n      0x0100\n      dup1\n      dup4\n      sload\n      div\n      mul\n      dup4\n      mstore\n      swap2\n      0x20\n      add\n      swap2\n      jump(tag_128)\n    tag_129:\n      dup3\n      add\n      swap2\n      swap1\n      0x00\n      mstore\n      keccak256(0x00, 0x20)\n      swap1\n    tag_130:\n      dup2\n      sload\n      dup2\n      mstore\n      swap1\n      0x01\n      add\n      swap1\n      0x20\n      add\n      dup1\n      dup4\n      gt\n      tag_130\n      jumpi\n      dup3\n      swap1\n      sub\n      0x1f\n      and\n      dup3\n      add\n      swap2\n    tag_128:\n      pop\n      pop\n      pop\n      pop\n      pop\n      swap1\n      dup1\n      0x01\n      add\n      dup1\n      sload\n      tag_131\n      swap1\n      tag_75\n      jump\t// in\n    tag_131:\n      dup1\n      0x1f\n      add\n      0x20\n      dup1\n      swap2\n      div\n      mul\n      0x20\n      add\n      mload(0x40)\n      swap1\n      dup2\n      add\n      0x40\n      mstore\n      dup1\n      swap3\n      swap2\n      swap1\n      dup2\n      dup2\n      mstore\n      0x20\n      add\n      dup3\n      dup1\n      sload\n      tag_132\n      swap1\n      tag_75\n      jump\t// in\n    tag_132:\n      dup1\n      iszero\n      tag_133\n      jumpi\n      dup1\n      0x1f\n      lt\n      tag_134\n      jumpi\n      0x0100\n      dup1\n      dup4\n      sload\n      div\n      mul\n      dup4\n      mstore\n      swap2\n      0x20\n      add\n      swap2\n      jump(tag_133)\n    tag_134:\n      dup3\n      add\n      swap2\n      swap1\n      0x00\n      mstore\n      keccak256(0x00, 0x20)\n      swap1\n    tag_135:\n      dup2\n      sload\n      dup2\n      mstore\n      swap1\n      0x01\n      add\n      swap1\n      0x20\n      add\n      dup1\n      dup4\n      gt\n      tag_135\n      jumpi\n      dup3\n      swap1\n      sub\n      0x1f\n      and\n      dup3\n      add\n      swap2\n    tag_133:\n      pop\n      pop\n      pop\n      pop\n      pop\n      swap1\n      pop\n      dup3\n      jump\t// out\n        /* \"contracts/HelloWorld.sol\":1274:1700  function createPost(string memory content) public payable {... */\n    tag_67:\n        /* \"contracts/HelloWorld.sol\":1374:1375  0 */\n      0x00\n        /* \"contracts/HelloWorld.sol\":1356:1363  content */\n      dup2\n        /* \"contracts/HelloWorld.sol\":1350:1371  bytes(content).length */\n      mload\n        /* \"contracts/HelloWorld.sol\":1350:1375  bytes(content).length > 0 */\n      gt\n        /* \"contracts/HelloWorld.sol\":1342:1403  require(bytes(content).length > 0, \"Content cannot be empty\") */\n      tag_137\n      jumpi\n      mload(0x40)\n      0x08c379a000000000000000000000000000000000000000000000000000000000\n      dup2\n      mstore\n      0x04\n      add\n      tag_138\n      swap1\n      tag_139\n      jump\t// in\n    tag_138:\n      mload(0x40)\n      dup1\n      swap2\n      sub\n      swap1\n      revert\n    tag_137:\n        /* \"contracts/HelloWorld.sol\":1434:1444  0.01 ether */\n      0x2386f26fc10000\n        /* \"contracts/HelloWorld.sol\":1421:1430  msg.value */\n      callvalue\n        /* \"contracts/HelloWorld.sol\":1421:1444  msg.value >= 0.01 ether */\n      lt\n      iszero\n        /* \"contracts/HelloWorld.sol\":1413:1479  require(msg.value >= 0.01 ether, \"Insufficient ether for posting\") */\n      tag_140\n      jumpi\n      mload(0x40)\n      0x08c379a000000000000000000000000000000000000000000000000000000000\n      dup2\n      mstore\n      0x04\n      add\n      tag_141\n      swap1\n      tag_142\n      jump\t// in\n    tag_141:\n      mload(0x40)\n      dup1\n      swap2\n      sub\n      swap1\n      revert\n    tag_140:\n        /* \"contracts/HelloWorld.sol\":1544:1606  Post(msg.sender, content, block.timestamp, 0, new string[](0)) */\n      mload(0x40)\n      dup1\n      0xa0\n      add\n      0x40\n      mstore\n      dup1\n        /* \"contracts/HelloWorld.sol\":1549:1559  msg.sender */\n      caller\n        /* \"contracts/HelloWorld.sol\":1544:1606  Post(msg.sender, content, block.timestamp, 0, new string[](0)) */\n      0xffffffffffffffffffffffffffffffffffffffff\n      and\n      dup2\n      mstore\n      0x20\n      add\n        /* \"contracts/HelloWorld.sol\":1561:1568  content */\n      dup3\n        /* \"contracts/HelloWorld.sol\":1544:1606  Post(msg.sender, content, block.timestamp, 0, new string[](0)) */\n      dup2\n      mstore\n      0x20\n      add\n        /* \"contracts/HelloWorld.sol\":1570:1585  block.timestamp */\n      timestamp\n        /* \"contracts/HelloWorld.sol\":1544:1606  Post(msg.sender, content, block.timestamp, 0, new string[](0)) */\n      dup2\n      mstore\n      0x20\n      add\n        /* \"contracts/HelloWorld.sol\":1587:1588  0 */\n      0x00\n        /* \"contracts/HelloWorld.sol\":1544:1606  Post(msg.sender, content, block.timestamp, 0, new string[](0)) */\n      dup2\n      mstore\n      0x20\n      add\n        /* \"contracts/HelloWorld.sol\":1603:1604  0 */\n      0x00\n        /* \"contracts/HelloWorld.sol\":1590:1605  new string[](0) */\n      0xffffffffffffffff\n      dup2\n      gt\n      iszero\n      tag_143\n      jumpi\n      tag_144\n      tag_145\n      jump\t// in\n    tag_144:\n    tag_143:\n      mload(0x40)\n      swap1\n      dup1\n      dup3\n      mstore\n      dup1\n      0x20\n      mul\n      0x20\n      add\n      dup3\n      add\n      0x40\n      mstore\n      dup1\n      iszero\n      tag_146\n      jumpi\n      dup2\n      0x20\n      add\n    tag_147:\n      0x60\n      dup2\n      mstore\n      0x20\n      add\n      swap1\n      0x01\n      swap1\n      sub\n      swap1\n      dup2\n      tag_147\n      jumpi\n      swap1\n      pop\n    tag_146:\n      pop\n        /* \"contracts/HelloWorld.sol\":1544:1606  Post(msg.sender, content, block.timestamp, 0, new string[](0)) */\n      dup2\n      mstore\n      pop\n        /* \"contracts/HelloWorld.sol\":1521:1526  posts */\n      0x03\n        /* \"contracts/HelloWorld.sol\":1521:1541  posts[postIdCounter] */\n      0x00\n        /* \"contracts/HelloWorld.sol\":1527:1540  postIdCounter */\n      sload(0x01)\n        /* \"contracts/HelloWorld.sol\":1521:1541  posts[postIdCounter] */\n      dup2\n      mstore\n      0x20\n      add\n      swap1\n      dup2\n      mstore\n      0x20\n      add\n      0x00\n      keccak256\n        /* \"contracts/HelloWorld.sol\":1521:1606  posts[postIdCounter] = Post(msg.sender, content, block.timestamp, 0, new string[](0)) */\n      0x00\n      dup3\n      add\n      mload\n      dup2\n      0x00\n      add\n      exp(0x0100, 0x00)\n      dup2\n      sload\n      dup2\n      0xffffffffffffffffffffffffffffffffffffffff\n      mul\n      not\n      and\n      swap1\n      dup4\n      0xffffffffffffffffffffffffffffffffffffffff\n      and\n      mul\n      or\n      swap1\n      sstore\n      pop\n      0x20\n      dup3\n      add\n      mload\n      dup2\n      0x01\n      add\n      swap1\n      dup2\n      tag_148\n      swap2\n      swap1\n      tag_96\n      jump\t// in\n    tag_148:\n      pop\n      0x40\n      dup3\n      add\n      mload\n      dup2\n      0x02\n      add\n      sstore\n      0x60\n      dup3\n      add\n      mload\n      dup2\n      0x03\n      add\n      sstore\n      0x80\n      dup3\n      add\n      mload\n      dup2\n      0x04\n      add\n      swap1\n      dup1\n      mload\n      swap1\n      0x20\n      add\n      swap1\n      tag_149\n      swap3\n      swap2\n      swap1\n      tag_150\n      jump\t// in\n    tag_149:\n      pop\n      swap1\n      pop\n      pop\n        /* \"contracts/HelloWorld.sol\":1621:1668  PostCreated(postIdCounter, msg.sender, content) */\n      0x8e40a51278abe2f4b410c0a96ff0bdd024b22666ca334062bf72afd596984bd6\n        /* \"contracts/HelloWorld.sol\":1633:1646  postIdCounter */\n      sload(0x01)\n        /* \"contracts/HelloWorld.sol\":1648:1658  msg.sender */\n      caller\n        /* \"contracts/HelloWorld.sol\":1660:1667  content */\n      dup4\n        /* \"contracts/HelloWorld.sol\":1621:1668  PostCreated(postIdCounter, msg.sender, content) */\n      mload(0x40)\n      tag_151\n      swap4\n      swap3\n      swap2\n      swap1\n      tag_152\n      jump\t// in\n    tag_151:\n      mload(0x40)\n      dup1\n      swap2\n      sub\n      swap1\n      log1\n        /* \"contracts/HelloWorld.sol\":1678:1691  postIdCounter */\n      0x01\n      0x00\n        /* \"contracts/HelloWorld.sol\":1678:1693  postIdCounter++ */\n      dup2\n      sload\n      dup1\n      swap3\n      swap2\n      swap1\n      tag_153\n      swap1\n      tag_116\n      jump\t// in\n    tag_153:\n      swap2\n      swap1\n      pop\n      sstore\n      pop\n        /* \"contracts/HelloWorld.sol\":1274:1700  function createPost(string memory content) public payable {... */\n      pop\n      jump\t// out\n        /* \"contracts/HelloWorld.sol\":2895:3015  function getPostComments(uint256 postId) public view returns (string[] memory){... */\n    tag_71:\n        /* \"contracts/HelloWorld.sol\":2957:2972  string[] memory */\n      0x60\n        /* \"contracts/HelloWorld.sol\":2986:2991  posts */\n      0x03\n        /* \"contracts/HelloWorld.sol\":2986:2999  posts[postId] */\n      0x00\n        /* \"contracts/HelloWorld.sol\":2992:2998  postId */\n      dup4\n        /* \"contracts/HelloWorld.sol\":2986:2999  posts[postId] */\n      dup2\n      mstore\n      0x20\n      add\n      swap1\n      dup2\n      mstore\n      0x20\n      add\n      0x00\n      keccak256\n        /* \"contracts/HelloWorld.sol\":2986:3008  posts[postId].comments */\n      0x04\n      add\n        /* \"contracts/HelloWorld.sol\":2979:3008  return posts[postId].comments */\n      dup1\n      sload\n      dup1\n      0x20\n      mul\n      0x20\n      add\n      mload(0x40)\n      swap1\n      dup2\n      add\n      0x40\n      mstore\n      dup1\n      swap3\n      swap2\n      swap1\n      dup2\n      dup2\n      mstore\n      0x20\n      add\n      0x00\n      swap1\n    tag_155:\n      dup3\n      dup3\n      lt\n      iszero\n      tag_156\n      jumpi\n      dup4\n      dup3\n      swap1\n      0x00\n      mstore\n      keccak256(0x00, 0x20)\n      add\n      dup1\n      sload\n      tag_158\n      swap1\n      tag_75\n      jump\t// in\n    tag_158:\n      dup1\n      0x1f\n      add\n      0x20\n      dup1\n      swap2\n      div\n      mul\n      0x20\n      add\n      mload(0x40)\n      swap1\n      dup2\n      add\n      0x40\n      mstore\n      dup1\n      swap3\n      swap2\n      swap1\n      dup2\n      dup2\n      mstore\n      0x20\n      add\n      dup3\n      dup1\n      sload\n      tag_159\n      swap1\n      tag_75\n      jump\t// in\n    tag_159:\n      dup1\n      iszero\n      tag_160\n      jumpi\n      dup1\n      0x1f\n      lt\n      tag_161\n      jumpi\n      0x0100\n      dup1\n      dup4\n      sload\n      div\n      mul\n      dup4\n      mstore\n      swap2\n      0x20\n      add\n      swap2\n      jump(tag_160)\n    tag_161:\n      dup3\n      add\n      swap2\n      swap1\n      0x00\n      mstore\n      keccak256(0x00, 0x20)\n      swap1\n    tag_162:\n      dup2\n      sload\n      dup2\n      mstore\n      swap1\n      0x01\n      add\n      swap1\n      0x20\n      add\n      dup1\n      dup4\n      gt\n      tag_162\n      jumpi\n      dup3\n      swap1\n      sub\n      0x1f\n      and\n      dup3\n      add\n      swap2\n    tag_160:\n      pop\n      pop\n      pop\n      pop\n      pop\n      dup2\n      mstore\n      0x20\n      add\n      swap1\n      0x01\n      add\n      swap1\n      jump(tag_155)\n    tag_156:\n      pop\n      pop\n      pop\n      pop\n      swap1\n      pop\n        /* \"contracts/HelloWorld.sol\":2895:3015  function getPostComments(uint256 postId) public view returns (string[] memory){... */\n      swap2\n      swap1\n      pop\n      jump\t// out\n    tag_150:\n      dup3\n      dup1\n      sload\n      dup3\n      dup3\n      sstore\n      swap1\n      0x00\n      mstore\n      keccak256(0x00, 0x20)\n      swap1\n      dup2\n      add\n      swap3\n      dup3\n      iszero\n      tag_163\n      jumpi\n      swap2\n      0x20\n      mul\n      dup3\n      add\n    tag_164:\n      dup3\n      dup2\n      gt\n      iszero\n      tag_165\n      jumpi\n      dup3\n      mload\n      dup3\n      swap1\n      dup2\n      tag_166\n      swap2\n      swap1\n      tag_96\n      jump\t// in\n    tag_166:\n      pop\n      swap2\n      0x20\n      add\n      swap2\n      swap1\n      0x01\n      add\n      swap1\n      jump(tag_164)\n    tag_165:\n    tag_163:\n      pop\n      swap1\n      pop\n      tag_167\n      swap2\n      swap1\n      tag_168\n      jump\t// in\n    tag_167:\n      pop\n      swap1\n      jump\t// out\n    tag_168:\n    tag_169:\n      dup1\n      dup3\n      gt\n      iszero\n      tag_170\n      jumpi\n      0x00\n      dup2\n      dup2\n      tag_171\n      swap2\n      swap1\n      tag_172\n      jump\t// in\n    tag_171:\n      pop\n      0x01\n      add\n      jump(tag_169)\n    tag_170:\n      pop\n      swap1\n      jump\t// out\n    tag_172:\n      pop\n      dup1\n      sload\n      tag_173\n      swap1\n      tag_75\n      jump\t// in\n    tag_173:\n      0x00\n      dup3\n      sstore\n      dup1\n      0x1f\n      lt\n      tag_175\n      jumpi\n      pop\n      jump(tag_174)\n    tag_175:\n      0x1f\n      add\n      0x20\n      swap1\n      div\n      swap1\n      0x00\n      mstore\n      keccak256(0x00, 0x20)\n      swap1\n      dup2\n      add\n      swap1\n      tag_176\n      swap2\n      swap1\n      tag_177\n      jump\t// in\n    tag_176:\n    tag_174:\n      pop\n      jump\t// out\n    tag_177:\n    tag_178:\n      dup1\n      dup3\n      gt\n      iszero\n      tag_179\n      jumpi\n      0x00\n      dup2\n      0x00\n      swap1\n      sstore\n      pop\n      0x01\n      add\n      jump(tag_178)\n    tag_179:\n      pop\n      swap1\n      jump\t// out\n        /* \"#utility.yul\":7:82   */\n    tag_180:\n        /* \"#utility.yul\":40:46   */\n      0x00\n        /* \"#utility.yul\":73:75   */\n      0x40\n        /* \"#utility.yul\":67:76   */\n      mload\n        /* \"#utility.yul\":57:76   */\n      swap1\n      pop\n        /* \"#utility.yul\":7:82   */\n      swap1\n      jump\t// out\n        /* \"#utility.yul\":88:205   */\n    tag_181:\n        /* \"#utility.yul\":197:198   */\n      0x00\n        /* \"#utility.yul\":194:195   */\n      dup1\n        /* \"#utility.yul\":187:199   */\n      revert\n        /* \"#utility.yul\":211:328   */\n    tag_182:\n        /* \"#utility.yul\":320:321   */\n      0x00\n        /* \"#utility.yul\":317:318   */\n      dup1\n        /* \"#utility.yul\":310:322   */\n      revert\n        /* \"#utility.yul\":334:411   */\n    tag_183:\n        /* \"#utility.yul\":371:378   */\n      0x00\n        /* \"#utility.yul\":400:405   */\n      dup2\n        /* \"#utility.yul\":389:405   */\n      swap1\n      pop\n        /* \"#utility.yul\":334:411   */\n      swap2\n      swap1\n      pop\n      jump\t// out\n        /* \"#utility.yul\":417:539   */\n    tag_184:\n        /* \"#utility.yul\":490:514   */\n      tag_252\n        /* \"#utility.yul\":508:513   */\n      dup2\n        /* \"#utility.yul\":490:514   */\n      tag_183\n      jump\t// in\n    tag_252:\n        /* \"#utility.yul\":483:488   */\n      dup2\n        /* \"#utility.yul\":480:515   */\n      eq\n        /* \"#utility.yul\":470:533   */\n      tag_253\n      jumpi\n        /* \"#utility.yul\":529:530   */\n      0x00\n        /* \"#utility.yul\":526:527   */\n      dup1\n        /* \"#utility.yul\":519:531   */\n      revert\n        /* \"#utility.yul\":470:533   */\n    tag_253:\n        /* \"#utility.yul\":417:539   */\n      pop\n      jump\t// out\n        /* \"#utility.yul\":545:684   */\n    tag_185:\n        /* \"#utility.yul\":591:596   */\n      0x00\n        /* \"#utility.yul\":629:635   */\n      dup2\n        /* \"#utility.yul\":616:636   */\n      calldataload\n        /* \"#utility.yul\":607:636   */\n      swap1\n      pop\n        /* \"#utility.yul\":645:678   */\n      tag_255\n        /* \"#utility.yul\":672:677   */\n      dup2\n        /* \"#utility.yul\":645:678   */\n      tag_184\n      jump\t// in\n    tag_255:\n        /* \"#utility.yul\":545:684   */\n      swap3\n      swap2\n      pop\n      pop\n      jump\t// out\n        /* \"#utility.yul\":690:1019   */\n    tag_18:\n        /* \"#utility.yul\":749:755   */\n      0x00\n        /* \"#utility.yul\":798:800   */\n      0x20\n        /* \"#utility.yul\":786:795   */\n      dup3\n        /* \"#utility.yul\":777:784   */\n      dup5\n        /* \"#utility.yul\":773:796   */\n      sub\n        /* \"#utility.yul\":769:801   */\n      slt\n        /* \"#utility.yul\":766:885   */\n      iszero\n      tag_257\n      jumpi\n        /* \"#utility.yul\":804:883   */\n      tag_258\n      tag_181\n      jump\t// in\n    tag_258:\n        /* \"#utility.yul\":766:885   */\n    tag_257:\n        /* \"#utility.yul\":924:925   */\n      0x00\n        /* \"#utility.yul\":949:1002   */\n      tag_259\n        /* \"#utility.yul\":994:1001   */\n      dup5\n        /* \"#utility.yul\":985:991   */\n      dup3\n        /* \"#utility.yul\":974:983   */\n      dup6\n        /* \"#utility.yul\":970:992   */\n      add\n        /* \"#utility.yul\":949:1002   */\n      tag_185\n      jump\t// in\n    tag_259:\n        /* \"#utility.yul\":939:1002   */\n      swap2\n      pop\n        /* \"#utility.yul\":895:1012   */\n      pop\n        /* \"#utility.yul\":690:1019   */\n      swap3\n      swap2\n      pop\n      pop\n      jump\t// out\n        /* \"#utility.yul\":1025:1151   */\n    tag_186:\n        /* \"#utility.yul\":1062:1069   */\n      0x00\n        /* \"#utility.yul\":1102:1144   */\n      0xffffffffffffffffffffffffffffffffffffffff\n        /* \"#utility.yul\":1095:1100   */\n      dup3\n        /* \"#utility.yul\":1091:1145   */\n      and\n        /* \"#utility.yul\":1080:1145   */\n      swap1\n      pop\n        /* \"#utility.yul\":1025:1151   */\n      swap2\n      swap1\n      pop\n      jump\t// out\n        /* \"#utility.yul\":1157:1253   */\n    tag_187:\n        /* \"#utility.yul\":1194:1201   */\n      0x00\n        /* \"#utility.yul\":1223:1247   */\n      tag_262\n        /* \"#utility.yul\":1241:1246   */\n      dup3\n        /* \"#utility.yul\":1223:1247   */\n      tag_186\n      jump\t// in\n    tag_262:\n        /* \"#utility.yul\":1212:1247   */\n      swap1\n      pop\n        /* \"#utility.yul\":1157:1253   */\n      swap2\n      swap1\n      pop\n      jump\t// out\n        /* \"#utility.yul\":1259:1377   */\n    tag_188:\n        /* \"#utility.yul\":1346:1370   */\n      tag_264\n        /* \"#utility.yul\":1364:1369   */\n      dup2\n        /* \"#utility.yul\":1346:1370   */\n      tag_187\n      jump\t// in\n    tag_264:\n        /* \"#utility.yul\":1341:1344   */\n      dup3\n        /* \"#utility.yul\":1334:1371   */\n      mstore\n        /* \"#utility.yul\":1259:1377   */\n      pop\n      pop\n      jump\t// out\n        /* \"#utility.yul\":1383:1482   */\n    tag_189:\n        /* \"#utility.yul\":1435:1441   */\n      0x00\n        /* \"#utility.yul\":1469:1474   */\n      dup2\n        /* \"#utility.yul\":1463:1475   */\n      mload\n        /* \"#utility.yul\":1453:1475   */\n      swap1\n      pop\n        /* \"#utility.yul\":1383:1482   */\n      swap2\n      swap1\n      pop\n      jump\t// out\n        /* \"#utility.yul\":1488:1657   */\n    tag_190:\n        /* \"#utility.yul\":1572:1583   */\n      0x00\n        /* \"#utility.yul\":1606:1612   */\n      dup3\n        /* \"#utility.yul\":1601:1604   */\n      dup3\n        /* \"#utility.yul\":1594:1613   */\n      mstore\n        /* \"#utility.yul\":1646:1650   */\n      0x20\n        /* \"#utility.yul\":1641:1644   */\n      dup3\n        /* \"#utility.yul\":1637:1651   */\n      add\n        /* \"#utility.yul\":1622:1651   */\n      swap1\n      pop\n        /* \"#utility.yul\":1488:1657   */\n      swap3\n      swap2\n      pop\n      pop\n      jump\t// out\n        /* \"#utility.yul\":1663:1909   */\n    tag_191:\n        /* \"#utility.yul\":1744:1745   */\n      0x00\n        /* \"#utility.yul\":1754:1867   */\n    tag_268:\n        /* \"#utility.yul\":1768:1774   */\n      dup4\n        /* \"#utility.yul\":1765:1766   */\n      dup2\n        /* \"#utility.yul\":1762:1775   */\n      lt\n        /* \"#utility.yul\":1754:1867   */\n      iszero\n      tag_270\n      jumpi\n        /* \"#utility.yul\":1853:1854   */\n      dup1\n        /* \"#utility.yul\":1848:1851   */\n      dup3\n        /* \"#utility.yul\":1844:1855   */\n      add\n        /* \"#utility.yul\":1838:1856   */\n      mload\n        /* \"#utility.yul\":1834:1835   */\n      dup2\n        /* \"#utility.yul\":1829:1832   */\n      dup5\n        /* \"#utility.yul\":1825:1836   */\n      add\n        /* \"#utility.yul\":1818:1857   */\n      mstore\n        /* \"#utility.yul\":1790:1792   */\n      0x20\n        /* \"#utility.yul\":1787:1788   */\n      dup2\n        /* \"#utility.yul\":1783:1793   */\n      add\n        /* \"#utility.yul\":1778:1793   */\n      swap1\n      pop\n        /* \"#utility.yul\":1754:1867   */\n      jump(tag_268)\n    tag_270:\n        /* \"#utility.yul\":1901:1902   */\n      0x00\n        /* \"#utility.yul\":1892:1898   */\n      dup5\n        /* \"#utility.yul\":1887:1890   */\n      dup5\n        /* \"#utility.yul\":1883:1899   */\n      add\n        /* \"#utility.yul\":1876:1903   */\n      mstore\n        /* \"#utility.yul\":1725:1909   */\n      pop\n        /* \"#utility.yul\":1663:1909   */\n      pop\n      pop\n      pop\n      jump\t// out\n        /* \"#utility.yul\":1915:2017   */\n    tag_192:\n        /* \"#utility.yul\":1956:1962   */\n      0x00\n        /* \"#utility.yul\":2007:2009   */\n      0x1f\n        /* \"#utility.yul\":2003:2010   */\n      not\n        /* \"#utility.yul\":1998:2000   */\n      0x1f\n        /* \"#utility.yul\":1991:1996   */\n      dup4\n        /* \"#utility.yul\":1987:2001   */\n      add\n        /* \"#utility.yul\":1983:2011   */\n      and\n        /* \"#utility.yul\":1973:2011   */\n      swap1\n      pop\n        /* \"#utility.yul\":1915:2017   */\n      swap2\n      swap1\n      pop\n      jump\t// out\n        /* \"#utility.yul\":2023:2400   */\n    tag_193:\n        /* \"#utility.yul\":2111:2114   */\n      0x00\n        /* \"#utility.yul\":2139:2178   */\n      tag_273\n        /* \"#utility.yul\":2172:2177   */\n      dup3\n        /* \"#utility.yul\":2139:2178   */\n      tag_189\n      jump\t// in\n    tag_273:\n        /* \"#utility.yul\":2194:2265   */\n      tag_274\n        /* \"#utility.yul\":2258:2264   */\n      dup2\n        /* \"#utility.yul\":2253:2256   */\n      dup6\n        /* \"#utility.yul\":2194:2265   */\n      tag_190\n      jump\t// in\n    tag_274:\n        /* \"#utility.yul\":2187:2265   */\n      swap4\n      pop\n        /* \"#utility.yul\":2274:2339   */\n      tag_275\n        /* \"#utility.yul\":2332:2338   */\n      dup2\n        /* \"#utility.yul\":2327:2330   */\n      dup6\n        /* \"#utility.yul\":2320:2324   */\n      0x20\n        /* \"#utility.yul\":2313:2318   */\n      dup7\n        /* \"#utility.yul\":2309:2325   */\n      add\n        /* \"#utility.yul\":2274:2339   */\n      tag_191\n      jump\t// in\n    tag_275:\n        /* \"#utility.yul\":2364:2393   */\n      tag_276\n        /* \"#utility.yul\":2386:2392   */\n      dup2\n        /* \"#utility.yul\":2364:2393   */\n      tag_192\n      jump\t// in\n    tag_276:\n        /* \"#utility.yul\":2359:2362   */\n      dup5\n        /* \"#utility.yul\":2355:2394   */\n      add\n        /* \"#utility.yul\":2348:2394   */\n      swap2\n      pop\n        /* \"#utility.yul\":2115:2400   */\n      pop\n        /* \"#utility.yul\":2023:2400   */\n      swap3\n      swap2\n      pop\n      pop\n      jump\t// out\n        /* \"#utility.yul\":2406:2524   */\n    tag_194:\n        /* \"#utility.yul\":2493:2517   */\n      tag_278\n        /* \"#utility.yul\":2511:2516   */\n      dup2\n        /* \"#utility.yul\":2493:2517   */\n      tag_183\n      jump\t// in\n    tag_278:\n        /* \"#utility.yul\":2488:2491   */\n      dup3\n        /* \"#utility.yul\":2481:2518   */\n      mstore\n        /* \"#utility.yul\":2406:2524   */\n      pop\n      pop\n      jump\t// out\n        /* \"#utility.yul\":2530:3174   */\n    tag_21:\n        /* \"#utility.yul\":2727:2731   */\n      0x00\n        /* \"#utility.yul\":2765:2768   */\n      0x80\n        /* \"#utility.yul\":2754:2763   */\n      dup3\n        /* \"#utility.yul\":2750:2769   */\n      add\n        /* \"#utility.yul\":2742:2769   */\n      swap1\n      pop\n        /* \"#utility.yul\":2779:2850   */\n      tag_280\n        /* \"#utility.yul\":2847:2848   */\n      0x00\n        /* \"#utility.yul\":2836:2845   */\n      dup4\n        /* \"#utility.yul\":2832:2849   */\n      add\n        /* \"#utility.yul\":2823:2829   */\n      dup8\n        /* \"#utility.yul\":2779:2850   */\n      tag_188\n      jump\t// in\n    tag_280:\n        /* \"#utility.yul\":2897:2906   */\n      dup2\n        /* \"#utility.yul\":2891:2895   */\n      dup2\n        /* \"#utility.yul\":2887:2907   */\n      sub\n        /* \"#utility.yul\":2882:2884   */\n      0x20\n        /* \"#utility.yul\":2871:2880   */\n      dup4\n        /* \"#utility.yul\":2867:2885   */\n      add\n        /* \"#utility.yul\":2860:2908   */\n      mstore\n        /* \"#utility.yul\":2925:3003   */\n      tag_281\n        /* \"#utility.yul\":2998:3002   */\n      dup2\n        /* \"#utility.yul\":2989:2995   */\n      dup7\n        /* \"#utility.yul\":2925:3003   */\n      tag_193\n      jump\t// in\n    tag_281:\n        /* \"#utility.yul\":2917:3003   */\n      swap1\n      pop\n        /* \"#utility.yul\":3013:3085   */\n      tag_282\n        /* \"#utility.yul\":3081:3083   */\n      0x40\n        /* \"#utility.yul\":3070:3079   */\n      dup4\n        /* \"#utility.yul\":3066:3084   */\n      add\n        /* \"#utility.yul\":3057:3063   */\n      dup6\n        /* \"#utility.yul\":3013:3085   */\n      tag_194\n      jump\t// in\n    tag_282:\n        /* \"#utility.yul\":3095:3167   */\n      tag_283\n        /* \"#utility.yul\":3163:3165   */\n      0x60\n        /* \"#utility.yul\":3152:3161   */\n      dup4\n        /* \"#utility.yul\":3148:3166   */\n      add\n        /* \"#utility.yul\":3139:3145   */\n      dup5\n        /* \"#utility.yul\":3095:3167   */\n      tag_194\n      jump\t// in\n    tag_283:\n        /* \"#utility.yul\":2530:3174   */\n      swap6\n      swap5\n      pop\n      pop\n      pop\n      pop\n      pop\n      jump\t// out\n        /* \"#utility.yul\":3180:3304   */\n    tag_195:\n        /* \"#utility.yul\":3257:3263   */\n      0x00\n        /* \"#utility.yul\":3291:3296   */\n      dup2\n        /* \"#utility.yul\":3285:3297   */\n      mload\n        /* \"#utility.yul\":3275:3297   */\n      swap1\n      pop\n        /* \"#utility.yul\":3180:3304   */\n      swap2\n      swap1\n      pop\n      jump\t// out\n        /* \"#utility.yul\":3310:3504   */\n    tag_196:\n        /* \"#utility.yul\":3419:3430   */\n      0x00\n        /* \"#utility.yul\":3453:3459   */\n      dup3\n        /* \"#utility.yul\":3448:3451   */\n      dup3\n        /* \"#utility.yul\":3441:3460   */\n      mstore\n        /* \"#utility.yul\":3493:3497   */\n      0x20\n        /* \"#utility.yul\":3488:3491   */\n      dup3\n        /* \"#utility.yul\":3484:3498   */\n      add\n        /* \"#utility.yul\":3469:3498   */\n      swap1\n      pop\n        /* \"#utility.yul\":3310:3504   */\n      swap3\n      swap2\n      pop\n      pop\n      jump\t// out\n        /* \"#utility.yul\":3510:3652   */\n    tag_197:\n        /* \"#utility.yul\":3587:3591   */\n      0x00\n        /* \"#utility.yul\":3610:3613   */\n      dup2\n        /* \"#utility.yul\":3602:3613   */\n      swap1\n      pop\n        /* \"#utility.yul\":3640:3644   */\n      0x20\n        /* \"#utility.yul\":3635:3638   */\n      dup3\n        /* \"#utility.yul\":3631:3645   */\n      add\n        /* \"#utility.yul\":3623:3645   */\n      swap1\n      pop\n        /* \"#utility.yul\":3510:3652   */\n      swap2\n      swap1\n      pop\n      jump\t// out\n        /* \"#utility.yul\":3658:3817   */\n    tag_198:\n        /* \"#utility.yul\":3732:3743   */\n      0x00\n        /* \"#utility.yul\":3766:3772   */\n      dup3\n        /* \"#utility.yul\":3761:3764   */\n      dup3\n        /* \"#utility.yul\":3754:3773   */\n      mstore\n        /* \"#utility.yul\":3806:3810   */\n      0x20\n        /* \"#utility.yul\":3801:3804   */\n      dup3\n        /* \"#utility.yul\":3797:3811   */\n      add\n        /* \"#utility.yul\":3782:3811   */\n      swap1\n      pop\n        /* \"#utility.yul\":3658:3817   */\n      swap3\n      swap2\n      pop\n      pop\n      jump\t// out\n        /* \"#utility.yul\":3823:4180   */\n    tag_199:\n        /* \"#utility.yul\":3901:3904   */\n      0x00\n        /* \"#utility.yul\":3929:3968   */\n      tag_289\n        /* \"#utility.yul\":3962:3967   */\n      dup3\n        /* \"#utility.yul\":3929:3968   */\n      tag_189\n      jump\t// in\n    tag_289:\n        /* \"#utility.yul\":3984:4045   */\n      tag_290\n        /* \"#utility.yul\":4038:4044   */\n      dup2\n        /* \"#utility.yul\":4033:4036   */\n      dup6\n        /* \"#utility.yul\":3984:4045   */\n      tag_198\n      jump\t// in\n    tag_290:\n        /* \"#utility.yul\":3977:4045   */\n      swap4\n      pop\n        /* \"#utility.yul\":4054:4119   */\n      tag_291\n        /* \"#utility.yul\":4112:4118   */\n      dup2\n        /* \"#utility.yul\":4107:4110   */\n      dup6\n        /* \"#utility.yul\":4100:4104   */\n      0x20\n        /* \"#utility.yul\":4093:4098   */\n      dup7\n        /* \"#utility.yul\":4089:4105   */\n      add\n        /* \"#utility.yul\":4054:4119   */\n      tag_191\n      jump\t// in\n    tag_291:\n        /* \"#utility.yul\":4144:4173   */\n      tag_292\n        /* \"#utility.yul\":4166:4172   */\n      dup2\n        /* \"#utility.yul\":4144:4173   */\n      tag_192\n      jump\t// in\n    tag_292:\n        /* \"#utility.yul\":4139:4142   */\n      dup5\n        /* \"#utility.yul\":4135:4174   */\n      add\n        /* \"#utility.yul\":4128:4174   */\n      swap2\n      pop\n        /* \"#utility.yul\":3905:4180   */\n      pop\n        /* \"#utility.yul\":3823:4180   */\n      swap3\n      swap2\n      pop\n      pop\n      jump\t// out\n        /* \"#utility.yul\":4186:4382   */\n    tag_200:\n        /* \"#utility.yul\":4275:4285   */\n      0x00\n        /* \"#utility.yul\":4310:4376   */\n      tag_294\n        /* \"#utility.yul\":4372:4375   */\n      dup4\n        /* \"#utility.yul\":4364:4370   */\n      dup4\n        /* \"#utility.yul\":4310:4376   */\n      tag_199\n      jump\t// in\n    tag_294:\n        /* \"#utility.yul\":4296:4376   */\n      swap1\n      pop\n        /* \"#utility.yul\":4186:4382   */\n      swap3\n      swap2\n      pop\n      pop\n      jump\t// out\n        /* \"#utility.yul\":4388:4511   */\n    tag_201:\n        /* \"#utility.yul\":4468:4472   */\n      0x00\n        /* \"#utility.yul\":4500:4504   */\n      0x20\n        /* \"#utility.yul\":4495:4498   */\n      dup3\n        /* \"#utility.yul\":4491:4505   */\n      add\n        /* \"#utility.yul\":4483:4505   */\n      swap1\n      pop\n        /* \"#utility.yul\":4388:4511   */\n      swap2\n      swap1\n      pop\n      jump\t// out\n        /* \"#utility.yul\":4545:5536   */\n    tag_202:\n        /* \"#utility.yul\":4684:4687   */\n      0x00\n        /* \"#utility.yul\":4713:4777   */\n      tag_297\n        /* \"#utility.yul\":4771:4776   */\n      dup3\n        /* \"#utility.yul\":4713:4777   */\n      tag_195\n      jump\t// in\n    tag_297:\n        /* \"#utility.yul\":4793:4889   */\n      tag_298\n        /* \"#utility.yul\":4882:4888   */\n      dup2\n        /* \"#utility.yul\":4877:4880   */\n      dup6\n        /* \"#utility.yul\":4793:4889   */\n      tag_196\n      jump\t// in\n    tag_298:\n        /* \"#utility.yul\":4786:4889   */\n      swap4\n      pop\n        /* \"#utility.yul\":4915:4918   */\n      dup4\n        /* \"#utility.yul\":4960:4964   */\n      0x20\n        /* \"#utility.yul\":4952:4958   */\n      dup3\n        /* \"#utility.yul\":4948:4965   */\n      mul\n        /* \"#utility.yul\":4943:4946   */\n      dup6\n        /* \"#utility.yul\":4939:4966   */\n      add\n        /* \"#utility.yul\":4990:5056   */\n      tag_299\n        /* \"#utility.yul\":5050:5055   */\n      dup6\n        /* \"#utility.yul\":4990:5056   */\n      tag_197\n      jump\t// in\n    tag_299:\n        /* \"#utility.yul\":5079:5086   */\n      dup1\n        /* \"#utility.yul\":5110:5111   */\n      0x00\n        /* \"#utility.yul\":5095:5491   */\n    tag_300:\n        /* \"#utility.yul\":5120:5126   */\n      dup6\n        /* \"#utility.yul\":5117:5118   */\n      dup2\n        /* \"#utility.yul\":5114:5127   */\n      lt\n        /* \"#utility.yul\":5095:5491   */\n      iszero\n      tag_302\n      jumpi\n        /* \"#utility.yul\":5191:5200   */\n      dup5\n        /* \"#utility.yul\":5185:5189   */\n      dup5\n        /* \"#utility.yul\":5181:5201   */\n      sub\n        /* \"#utility.yul\":5176:5179   */\n      dup10\n        /* \"#utility.yul\":5169:5202   */\n      mstore\n        /* \"#utility.yul\":5242:5248   */\n      dup2\n        /* \"#utility.yul\":5236:5249   */\n      mload\n        /* \"#utility.yul\":5270:5354   */\n      tag_303\n        /* \"#utility.yul\":5349:5353   */\n      dup6\n        /* \"#utility.yul\":5334:5347   */\n      dup3\n        /* \"#utility.yul\":5270:5354   */\n      tag_200\n      jump\t// in\n    tag_303:\n        /* \"#utility.yul\":5262:5354   */\n      swap5\n      pop\n        /* \"#utility.yul\":5377:5447   */\n      tag_304\n        /* \"#utility.yul\":5440:5446   */\n      dup4\n        /* \"#utility.yul\":5377:5447   */\n      tag_201\n      jump\t// in\n    tag_304:\n        /* \"#utility.yul\":5367:5447   */\n      swap3\n      pop\n        /* \"#utility.yul\":5476:5480   */\n      0x20\n        /* \"#utility.yul\":5471:5474   */\n      dup11\n        /* \"#utility.yul\":5467:5481   */\n      add\n        /* \"#utility.yul\":5460:5481   */\n      swap10\n      pop\n        /* \"#utility.yul\":5155:5491   */\n      pop\n        /* \"#utility.yul\":5142:5143   */\n      0x01\n        /* \"#utility.yul\":5139:5140   */\n      dup2\n        /* \"#utility.yul\":5135:5144   */\n      add\n        /* \"#utility.yul\":5130:5144   */\n      swap1\n      pop\n        /* \"#utility.yul\":5095:5491   */\n      jump(tag_300)\n    tag_302:\n        /* \"#utility.yul\":5099:5113   */\n      pop\n        /* \"#utility.yul\":5507:5511   */\n      dup3\n        /* \"#utility.yul\":5500:5511   */\n      swap8\n      pop\n        /* \"#utility.yul\":5527:5530   */\n      dup8\n        /* \"#utility.yul\":5520:5530   */\n      swap6\n      pop\n        /* \"#utility.yul\":4689:5536   */\n      pop\n      pop\n      pop\n      pop\n      pop\n        /* \"#utility.yul\":4545:5536   */\n      swap3\n      swap2\n      pop\n      pop\n      jump\t// out\n        /* \"#utility.yul\":5542:6599   */\n    tag_27:\n        /* \"#utility.yul\":5865:5869   */\n      0x00\n        /* \"#utility.yul\":5903:5906   */\n      0xc0\n        /* \"#utility.yul\":5892:5901   */\n      dup3\n        /* \"#utility.yul\":5888:5907   */\n      add\n        /* \"#utility.yul\":5880:5907   */\n      swap1\n      pop\n        /* \"#utility.yul\":5917:5988   */\n      tag_306\n        /* \"#utility.yul\":5985:5986   */\n      0x00\n        /* \"#utility.yul\":5974:5983   */\n      dup4\n        /* \"#utility.yul\":5970:5987   */\n      add\n        /* \"#utility.yul\":5961:5967   */\n      dup10\n        /* \"#utility.yul\":5917:5988   */\n      tag_188\n      jump\t// in\n    tag_306:\n        /* \"#utility.yul\":6035:6044   */\n      dup2\n        /* \"#utility.yul\":6029:6033   */\n      dup2\n        /* \"#utility.yul\":6025:6045   */\n      sub\n        /* \"#utility.yul\":6020:6022   */\n      0x20\n        /* \"#utility.yul\":6009:6018   */\n      dup4\n        /* \"#utility.yul\":6005:6023   */\n      add\n        /* \"#utility.yul\":5998:6046   */\n      mstore\n        /* \"#utility.yul\":6063:6141   */\n      tag_307\n        /* \"#utility.yul\":6136:6140   */\n      dup2\n        /* \"#utility.yul\":6127:6133   */\n      dup9\n        /* \"#utility.yul\":6063:6141   */\n      tag_193\n      jump\t// in\n    tag_307:\n        /* \"#utility.yul\":6055:6141   */\n      swap1\n      pop\n        /* \"#utility.yul\":6151:6223   */\n      tag_308\n        /* \"#utility.yul\":6219:6221   */\n      0x40\n        /* \"#utility.yul\":6208:6217   */\n      dup4\n        /* \"#utility.yul\":6204:6222   */\n      add\n        /* \"#utility.yul\":6195:6201   */\n      dup8\n        /* \"#utility.yul\":6151:6223   */\n      tag_194\n      jump\t// in\n    tag_308:\n        /* \"#utility.yul\":6233:6305   */\n      tag_309\n        /* \"#utility.yul\":6301:6303   */\n      0x60\n        /* \"#utility.yul\":6290:6299   */\n      dup4\n        /* \"#utility.yul\":6286:6304   */\n      add\n        /* \"#utility.yul\":6277:6283   */\n      dup7\n        /* \"#utility.yul\":6233:6305   */\n      tag_194\n      jump\t// in\n    tag_309:\n        /* \"#utility.yul\":6315:6388   */\n      tag_310\n        /* \"#utility.yul\":6383:6386   */\n      0x80\n        /* \"#utility.yul\":6372:6381   */\n      dup4\n        /* \"#utility.yul\":6368:6387   */\n      add\n        /* \"#utility.yul\":6359:6365   */\n      dup6\n        /* \"#utility.yul\":6315:6388   */\n      tag_194\n      jump\t// in\n    tag_310:\n        /* \"#utility.yul\":6436:6445   */\n      dup2\n        /* \"#utility.yul\":6430:6434   */\n      dup2\n        /* \"#utility.yul\":6426:6446   */\n      sub\n        /* \"#utility.yul\":6420:6423   */\n      0xa0\n        /* \"#utility.yul\":6409:6418   */\n      dup4\n        /* \"#utility.yul\":6405:6424   */\n      add\n        /* \"#utility.yul\":6398:6447   */\n      mstore\n        /* \"#utility.yul\":6464:6592   */\n      tag_311\n        /* \"#utility.yul\":6587:6591   */\n      dup2\n        /* \"#utility.yul\":6578:6584   */\n      dup5\n        /* \"#utility.yul\":6464:6592   */\n      tag_202\n      jump\t// in\n    tag_311:\n        /* \"#utility.yul\":6456:6592   */\n      swap1\n      pop\n        /* \"#utility.yul\":5542:6599   */\n      swap8\n      swap7\n      pop\n      pop\n      pop\n      pop\n      pop\n      pop\n      pop\n      jump\t// out\n        /* \"#utility.yul\":6605:6722   */\n    tag_203:\n        /* \"#utility.yul\":6714:6715   */\n      0x00\n        /* \"#utility.yul\":6711:6712   */\n      dup1\n        /* \"#utility.yul\":6704:6716   */\n      revert\n        /* \"#utility.yul\":6728:6845   */\n    tag_204:\n        /* \"#utility.yul\":6837:6838   */\n      0x00\n        /* \"#utility.yul\":6834:6835   */\n      dup1\n        /* \"#utility.yul\":6827:6839   */\n      revert\n        /* \"#utility.yul\":6851:7031   */\n    tag_145:\n        /* \"#utility.yul\":6899:6976   */\n      0x4e487b7100000000000000000000000000000000000000000000000000000000\n        /* \"#utility.yul\":6896:6897   */\n      0x00\n        /* \"#utility.yul\":6889:6977   */\n      mstore\n        /* \"#utility.yul\":6996:7000   */\n      0x41\n        /* \"#utility.yul\":6993:6994   */\n      0x04\n        /* \"#utility.yul\":6986:7001   */\n      mstore\n        /* \"#utility.yul\":7020:7024   */\n      0x24\n        /* \"#utility.yul\":7017:7018   */\n      0x00\n        /* \"#utility.yul\":7010:7025   */\n      revert\n        /* \"#utility.yul\":7037:7318   */\n    tag_205:\n        /* \"#utility.yul\":7120:7147   */\n      tag_316\n        /* \"#utility.yul\":7142:7146   */\n      dup3\n        /* \"#utility.yul\":7120:7147   */\n      tag_192\n      jump\t// in\n    tag_316:\n        /* \"#utility.yul\":7112:7118   */\n      dup2\n        /* \"#utility.yul\":7108:7148   */\n      add\n        /* \"#utility.yul\":7250:7256   */\n      dup2\n        /* \"#utility.yul\":7238:7248   */\n      dup2\n        /* \"#utility.yul\":7235:7257   */\n      lt\n        /* \"#utility.yul\":7214:7232   */\n      0xffffffffffffffff\n        /* \"#utility.yul\":7202:7212   */\n      dup3\n        /* \"#utility.yul\":7199:7233   */\n      gt\n        /* \"#utility.yul\":7196:7258   */\n      or\n        /* \"#utility.yul\":7193:7281   */\n      iszero\n      tag_317\n      jumpi\n        /* \"#utility.yul\":7261:7279   */\n      tag_318\n      tag_145\n      jump\t// in\n    tag_318:\n        /* \"#utility.yul\":7193:7281   */\n    tag_317:\n        /* \"#utility.yul\":7301:7311   */\n      dup1\n        /* \"#utility.yul\":7297:7299   */\n      0x40\n        /* \"#utility.yul\":7290:7312   */\n      mstore\n        /* \"#utility.yul\":7080:7318   */\n      pop\n        /* \"#utility.yul\":7037:7318   */\n      pop\n      pop\n      jump\t// out\n        /* \"#utility.yul\":7324:7453   */\n    tag_206:\n        /* \"#utility.yul\":7358:7364   */\n      0x00\n        /* \"#utility.yul\":7385:7405   */\n      tag_320\n      tag_180\n      jump\t// in\n    tag_320:\n        /* \"#utility.yul\":7375:7405   */\n      swap1\n      pop\n        /* \"#utility.yul\":7414:7447   */\n      tag_321\n        /* \"#utility.yul\":7442:7446   */\n      dup3\n        /* \"#utility.yul\":7434:7440   */\n      dup3\n        /* \"#utility.yul\":7414:7447   */\n      tag_205\n      jump\t// in\n    tag_321:\n        /* \"#utility.yul\":7324:7453   */\n      swap2\n      swap1\n      pop\n      jump\t// out\n        /* \"#utility.yul\":7459:7767   */\n    tag_207:\n        /* \"#utility.yul\":7521:7525   */\n      0x00\n        /* \"#utility.yul\":7611:7629   */\n      0xffffffffffffffff\n        /* \"#utility.yul\":7603:7609   */\n      dup3\n        /* \"#utility.yul\":7600:7630   */\n      gt\n        /* \"#utility.yul\":7597:7653   */\n      iszero\n      tag_323\n      jumpi\n        /* \"#utility.yul\":7633:7651   */\n      tag_324\n      tag_145\n      jump\t// in\n    tag_324:\n        /* \"#utility.yul\":7597:7653   */\n    tag_323:\n        /* \"#utility.yul\":7671:7700   */\n      tag_325\n        /* \"#utility.yul\":7693:7699   */\n      dup3\n        /* \"#utility.yul\":7671:7700   */\n      tag_192\n      jump\t// in\n    tag_325:\n        /* \"#utility.yul\":7663:7700   */\n      swap1\n      pop\n        /* \"#utility.yul\":7755:7759   */\n      0x20\n        /* \"#utility.yul\":7749:7753   */\n      dup2\n        /* \"#utility.yul\":7745:7760   */\n      add\n        /* \"#utility.yul\":7737:7760   */\n      swap1\n      pop\n        /* \"#utility.yul\":7459:7767   */\n      swap2\n      swap1\n      pop\n      jump\t// out\n        /* \"#utility.yul\":7773:7919   */\n    tag_208:\n        /* \"#utility.yul\":7870:7876   */\n      dup3\n        /* \"#utility.yul\":7865:7868   */\n      dup2\n        /* \"#utility.yul\":7860:7863   */\n      dup4\n        /* \"#utility.yul\":7847:7877   */\n      calldatacopy\n        /* \"#utility.yul\":7911:7912   */\n      0x00\n        /* \"#utility.yul\":7902:7908   */\n      dup4\n        /* \"#utility.yul\":7897:7900   */\n      dup4\n        /* \"#utility.yul\":7893:7909   */\n      add\n        /* \"#utility.yul\":7886:7913   */\n      mstore\n        /* \"#utility.yul\":7773:7919   */\n      pop\n      pop\n      pop\n      jump\t// out\n        /* \"#utility.yul\":7925:8350   */\n    tag_209:\n        /* \"#utility.yul\":8003:8008   */\n      0x00\n        /* \"#utility.yul\":8028:8094   */\n      tag_328\n        /* \"#utility.yul\":8044:8093   */\n      tag_329\n        /* \"#utility.yul\":8086:8092   */\n      dup5\n        /* \"#utility.yul\":8044:8093   */\n      tag_207\n      jump\t// in\n    tag_329:\n        /* \"#utility.yul\":8028:8094   */\n      tag_206\n      jump\t// in\n    tag_328:\n        /* \"#utility.yul\":8019:8094   */\n      swap1\n      pop\n        /* \"#utility.yul\":8117:8123   */\n      dup3\n        /* \"#utility.yul\":8110:8115   */\n      dup2\n        /* \"#utility.yul\":8103:8124   */\n      mstore\n        /* \"#utility.yul\":8155:8159   */\n      0x20\n        /* \"#utility.yul\":8148:8153   */\n      dup2\n        /* \"#utility.yul\":8144:8160   */\n      add\n        /* \"#utility.yul\":8193:8196   */\n      dup5\n        /* \"#utility.yul\":8184:8190   */\n      dup5\n        /* \"#utility.yul\":8179:8182   */\n      dup5\n        /* \"#utility.yul\":8175:8191   */\n      add\n        /* \"#utility.yul\":8172:8197   */\n      gt\n        /* \"#utility.yul\":8169:8281   */\n      iszero\n      tag_330\n      jumpi\n        /* \"#utility.yul\":8200:8279   */\n      tag_331\n      tag_204\n      jump\t// in\n    tag_331:\n        /* \"#utility.yul\":8169:8281   */\n    tag_330:\n        /* \"#utility.yul\":8290:8344   */\n      tag_332\n        /* \"#utility.yul\":8337:8343   */\n      dup5\n        /* \"#utility.yul\":8332:8335   */\n      dup3\n        /* \"#utility.yul\":8327:8330   */\n      dup6\n        /* \"#utility.yul\":8290:8344   */\n      tag_208\n      jump\t// in\n    tag_332:\n        /* \"#utility.yul\":8009:8350   */\n      pop\n        /* \"#utility.yul\":7925:8350   */\n      swap4\n      swap3\n      pop\n      pop\n      pop\n      jump\t// out\n        /* \"#utility.yul\":8370:8710   */\n    tag_210:\n        /* \"#utility.yul\":8426:8431   */\n      0x00\n        /* \"#utility.yul\":8475:8478   */\n      dup3\n        /* \"#utility.yul\":8468:8472   */\n      0x1f\n        /* \"#utility.yul\":8460:8466   */\n      dup4\n        /* \"#utility.yul\":8456:8473   */\n      add\n        /* \"#utility.yul\":8452:8479   */\n      slt\n        /* \"#utility.yul\":8442:8564   */\n      tag_334\n      jumpi\n        /* \"#utility.yul\":8483:8562   */\n      tag_335\n      tag_203\n      jump\t// in\n    tag_335:\n        /* \"#utility.yul\":8442:8564   */\n    tag_334:\n        /* \"#utility.yul\":8600:8606   */\n      dup2\n        /* \"#utility.yul\":8587:8607   */\n      calldataload\n        /* \"#utility.yul\":8625:8704   */\n      tag_336\n        /* \"#utility.yul\":8700:8703   */\n      dup5\n        /* \"#utility.yul\":8692:8698   */\n      dup3\n        /* \"#utility.yul\":8685:8689   */\n      0x20\n        /* \"#utility.yul\":8677:8683   */\n      dup7\n        /* \"#utility.yul\":8673:8690   */\n      add\n        /* \"#utility.yul\":8625:8704   */\n      tag_209\n      jump\t// in\n    tag_336:\n        /* \"#utility.yul\":8616:8704   */\n      swap2\n      pop\n        /* \"#utility.yul\":8432:8710   */\n      pop\n        /* \"#utility.yul\":8370:8710   */\n      swap3\n      swap2\n      pop\n      pop\n      jump\t// out\n        /* \"#utility.yul\":8716:9550   */\n    tag_31:\n        /* \"#utility.yul\":8804:8810   */\n      0x00\n        /* \"#utility.yul\":8812:8818   */\n      dup1\n        /* \"#utility.yul\":8861:8863   */\n      0x40\n        /* \"#utility.yul\":8849:8858   */\n      dup4\n        /* \"#utility.yul\":8840:8847   */\n      dup6\n        /* \"#utility.yul\":8836:8859   */\n      sub\n        /* \"#utility.yul\":8832:8864   */\n      slt\n        /* \"#utility.yul\":8829:8948   */\n      iszero\n      tag_338\n      jumpi\n        /* \"#utility.yul\":8867:8946   */\n      tag_339\n      tag_181\n      jump\t// in\n    tag_339:\n        /* \"#utility.yul\":8829:8948   */\n    tag_338:\n        /* \"#utility.yul\":9015:9016   */\n      0x00\n        /* \"#utility.yul\":9004:9013   */\n      dup4\n        /* \"#utility.yul\":9000:9017   */\n      add\n        /* \"#utility.yul\":8987:9018   */\n      calldataload\n        /* \"#utility.yul\":9045:9063   */\n      0xffffffffffffffff\n        /* \"#utility.yul\":9037:9043   */\n      dup2\n        /* \"#utility.yul\":9034:9064   */\n      gt\n        /* \"#utility.yul\":9031:9148   */\n      iszero\n      tag_340\n      jumpi\n        /* \"#utility.yul\":9067:9146   */\n      tag_341\n      tag_182\n      jump\t// in\n    tag_341:\n        /* \"#utility.yul\":9031:9148   */\n    tag_340:\n        /* \"#utility.yul\":9172:9235   */\n      tag_342\n        /* \"#utility.yul\":9227:9234   */\n      dup6\n        /* \"#utility.yul\":9218:9224   */\n      dup3\n        /* \"#utility.yul\":9207:9216   */\n      dup7\n        /* \"#utility.yul\":9203:9225   */\n      add\n        /* \"#utility.yul\":9172:9235   */\n      tag_210\n      jump\t// in\n    tag_342:\n        /* \"#utility.yul\":9162:9235   */\n      swap3\n      pop\n        /* \"#utility.yul\":8958:9245   */\n      pop\n        /* \"#utility.yul\":9312:9314   */\n      0x20\n        /* \"#utility.yul\":9301:9310   */\n      dup4\n        /* \"#utility.yul\":9297:9315   */\n      add\n        /* \"#utility.yul\":9284:9316   */\n      calldataload\n        /* \"#utility.yul\":9343:9361   */\n      0xffffffffffffffff\n        /* \"#utility.yul\":9335:9341   */\n      dup2\n        /* \"#utility.yul\":9332:9362   */\n      gt\n        /* \"#utility.yul\":9329:9446   */\n      iszero\n      tag_343\n      jumpi\n        /* \"#utility.yul\":9365:9444   */\n      tag_344\n      tag_182\n      jump\t// in\n    tag_344:\n        /* \"#utility.yul\":9329:9446   */\n    tag_343:\n        /* \"#utility.yul\":9470:9533   */\n      tag_345\n        /* \"#utility.yul\":9525:9532   */\n      dup6\n        /* \"#utility.yul\":9516:9522   */\n      dup3\n        /* \"#utility.yul\":9505:9514   */\n      dup7\n        /* \"#utility.yul\":9501:9523   */\n      add\n        /* \"#utility.yul\":9470:9533   */\n      tag_210\n      jump\t// in\n    tag_345:\n        /* \"#utility.yul\":9460:9533   */\n      swap2\n      pop\n        /* \"#utility.yul\":9255:9543   */\n      pop\n        /* \"#utility.yul\":8716:9550   */\n      swap3\n      pop\n      swap3\n      swap1\n      pop\n      jump\t// out\n        /* \"#utility.yul\":9556:10210   */\n    tag_35:\n        /* \"#utility.yul\":9634:9640   */\n      0x00\n        /* \"#utility.yul\":9642:9648   */\n      dup1\n        /* \"#utility.yul\":9691:9693   */\n      0x40\n        /* \"#utility.yul\":9679:9688   */\n      dup4\n        /* \"#utility.yul\":9670:9677   */\n      dup6\n        /* \"#utility.yul\":9666:9689   */\n      sub\n        /* \"#utility.yul\":9662:9694   */\n      slt\n        /* \"#utility.yul\":9659:9778   */\n      iszero\n      tag_347\n      jumpi\n        /* \"#utility.yul\":9697:9776   */\n      tag_348\n      tag_181\n      jump\t// in\n    tag_348:\n        /* \"#utility.yul\":9659:9778   */\n    tag_347:\n        /* \"#utility.yul\":9817:9818   */\n      0x00\n        /* \"#utility.yul\":9842:9895   */\n      tag_349\n        /* \"#utility.yul\":9887:9894   */\n      dup6\n        /* \"#utility.yul\":9878:9884   */\n      dup3\n        /* \"#utility.yul\":9867:9876   */\n      dup7\n        /* \"#utility.yul\":9863:9885   */\n      add\n        /* \"#utility.yul\":9842:9895   */\n      tag_185\n      jump\t// in\n    tag_349:\n        /* \"#utility.yul\":9832:9895   */\n      swap3\n      pop\n        /* \"#utility.yul\":9788:9905   */\n      pop\n        /* \"#utility.yul\":9972:9974   */\n      0x20\n        /* \"#utility.yul\":9961:9970   */\n      dup4\n        /* \"#utility.yul\":9957:9975   */\n      add\n        /* \"#utility.yul\":9944:9976   */\n      calldataload\n        /* \"#utility.yul\":10003:10021   */\n      0xffffffffffffffff\n        /* \"#utility.yul\":9995:10001   */\n      dup2\n        /* \"#utility.yul\":9992:10022   */\n      gt\n        /* \"#utility.yul\":9989:10106   */\n      iszero\n      tag_350\n      jumpi\n        /* \"#utility.yul\":10025:10104   */\n      tag_351\n      tag_182\n      jump\t// in\n    tag_351:\n        /* \"#utility.yul\":9989:10106   */\n    tag_350:\n        /* \"#utility.yul\":10130:10193   */\n      tag_352\n        /* \"#utility.yul\":10185:10192   */\n      dup6\n        /* \"#utility.yul\":10176:10182   */\n      dup3\n        /* \"#utility.yul\":10165:10174   */\n      dup7\n        /* \"#utility.yul\":10161:10183   */\n      add\n        /* \"#utility.yul\":10130:10193   */\n      tag_210\n      jump\t// in\n    tag_352:\n        /* \"#utility.yul\":10120:10193   */\n      swap2\n      pop\n        /* \"#utility.yul\":9915:10203   */\n      pop\n        /* \"#utility.yul\":9556:10210   */\n      swap3\n      pop\n      swap3\n      swap1\n      pop\n      jump\t// out\n        /* \"#utility.yul\":10216:10438   */\n    tag_41:\n        /* \"#utility.yul\":10309:10313   */\n      0x00\n        /* \"#utility.yul\":10347:10349   */\n      0x20\n        /* \"#utility.yul\":10336:10345   */\n      dup3\n        /* \"#utility.yul\":10332:10350   */\n      add\n        /* \"#utility.yul\":10324:10350   */\n      swap1\n      pop\n        /* \"#utility.yul\":10360:10431   */\n      tag_354\n        /* \"#utility.yul\":10428:10429   */\n      0x00\n        /* \"#utility.yul\":10417:10426   */\n      dup4\n        /* \"#utility.yul\":10413:10430   */\n      add\n        /* \"#utility.yul\":10404:10410   */\n      dup5\n        /* \"#utility.yul\":10360:10431   */\n      tag_194\n      jump\t// in\n    tag_354:\n        /* \"#utility.yul\":10216:10438   */\n      swap3\n      swap2\n      pop\n      pop\n      jump\t// out\n        /* \"#utility.yul\":10444:10666   */\n    tag_52:\n        /* \"#utility.yul\":10537:10541   */\n      0x00\n        /* \"#utility.yul\":10575:10577   */\n      0x20\n        /* \"#utility.yul\":10564:10573   */\n      dup3\n        /* \"#utility.yul\":10560:10578   */\n      add\n        /* \"#utility.yul\":10552:10578   */\n      swap1\n      pop\n        /* \"#utility.yul\":10588:10659   */\n      tag_356\n        /* \"#utility.yul\":10656:10657   */\n      0x00\n        /* \"#utility.yul\":10645:10654   */\n      dup4\n        /* \"#utility.yul\":10641:10658   */\n      add\n        /* \"#utility.yul\":10632:10638   */\n      dup5\n        /* \"#utility.yul\":10588:10659   */\n      tag_188\n      jump\t// in\n    tag_356:\n        /* \"#utility.yul\":10444:10666   */\n      swap3\n      swap2\n      pop\n      pop\n      jump\t// out\n        /* \"#utility.yul\":10672:10794   */\n    tag_211:\n        /* \"#utility.yul\":10745:10769   */\n      tag_358\n        /* \"#utility.yul\":10763:10768   */\n      dup2\n        /* \"#utility.yul\":10745:10769   */\n      tag_187\n      jump\t// in\n    tag_358:\n        /* \"#utility.yul\":10738:10743   */\n      dup2\n        /* \"#utility.yul\":10735:10770   */\n      eq\n        /* \"#utility.yul\":10725:10788   */\n      tag_359\n      jumpi\n        /* \"#utility.yul\":10784:10785   */\n      0x00\n        /* \"#utility.yul\":10781:10782   */\n      dup1\n        /* \"#utility.yul\":10774:10786   */\n      revert\n        /* \"#utility.yul\":10725:10788   */\n    tag_359:\n        /* \"#utility.yul\":10672:10794   */\n      pop\n      jump\t// out\n        /* \"#utility.yul\":10800:10939   */\n    tag_212:\n        /* \"#utility.yul\":10846:10851   */\n      0x00\n        /* \"#utility.yul\":10884:10890   */\n      dup2\n        /* \"#utility.yul\":10871:10891   */\n      calldataload\n        /* \"#utility.yul\":10862:10891   */\n      swap1\n      pop\n        /* \"#utility.yul\":10900:10933   */\n      tag_361\n        /* \"#utility.yul\":10927:10932   */\n      dup2\n        /* \"#utility.yul\":10900:10933   */\n      tag_211\n      jump\t// in\n    tag_361:\n        /* \"#utility.yul\":10800:10939   */\n      swap3\n      swap2\n      pop\n      pop\n      jump\t// out\n        /* \"#utility.yul\":10945:11274   */\n    tag_60:\n        /* \"#utility.yul\":11004:11010   */\n      0x00\n        /* \"#utility.yul\":11053:11055   */\n      0x20\n        /* \"#utility.yul\":11041:11050   */\n      dup3\n        /* \"#utility.yul\":11032:11039   */\n      dup5\n        /* \"#utility.yul\":11028:11051   */\n      sub\n        /* \"#utility.yul\":11024:11056   */\n      slt\n        /* \"#utility.yul\":11021:11140   */\n      iszero\n      tag_363\n      jumpi\n        /* \"#utility.yul\":11059:11138   */\n      tag_364\n      tag_181\n      jump\t// in\n    tag_364:\n        /* \"#utility.yul\":11021:11140   */\n    tag_363:\n        /* \"#utility.yul\":11179:11180   */\n      0x00\n        /* \"#utility.yul\":11204:11257   */\n      tag_365\n        /* \"#utility.yul\":11249:11256   */\n      dup5\n        /* \"#utility.yul\":11240:11246   */\n      dup3\n        /* \"#utility.yul\":11229:11238   */\n      dup6\n        /* \"#utility.yul\":11225:11247   */\n      add\n        /* \"#utility.yul\":11204:11257   */\n      tag_212\n      jump\t// in\n    tag_365:\n        /* \"#utility.yul\":11194:11257   */\n      swap2\n      pop\n        /* \"#utility.yul\":11150:11267   */\n      pop\n        /* \"#utility.yul\":10945:11274   */\n      swap3\n      swap2\n      pop\n      pop\n      jump\t// out\n        /* \"#utility.yul\":11280:11794   */\n    tag_63:\n        /* \"#utility.yul\":11441:11445   */\n      0x00\n        /* \"#utility.yul\":11479:11481   */\n      0x40\n        /* \"#utility.yul\":11468:11477   */\n      dup3\n        /* \"#utility.yul\":11464:11482   */\n      add\n        /* \"#utility.yul\":11456:11482   */\n      swap1\n      pop\n        /* \"#utility.yul\":11528:11537   */\n      dup2\n        /* \"#utility.yul\":11522:11526   */\n      dup2\n        /* \"#utility.yul\":11518:11538   */\n      sub\n        /* \"#utility.yul\":11514:11515   */\n      0x00\n        /* \"#utility.yul\":11503:11512   */\n      dup4\n        /* \"#utility.yul\":11499:11516   */\n      add\n        /* \"#utility.yul\":11492:11539   */\n      mstore\n        /* \"#utility.yul\":11556:11634   */\n      tag_367\n        /* \"#utility.yul\":11629:11633   */\n      dup2\n        /* \"#utility.yul\":11620:11626   */\n      dup6\n        /* \"#utility.yul\":11556:11634   */\n      tag_193\n      jump\t// in\n    tag_367:\n        /* \"#utility.yul\":11548:11634   */\n      swap1\n      pop\n        /* \"#utility.yul\":11681:11690   */\n      dup2\n        /* \"#utility.yul\":11675:11679   */\n      dup2\n        /* \"#utility.yul\":11671:11691   */\n      sub\n        /* \"#utility.yul\":11666:11668   */\n      0x20\n        /* \"#utility.yul\":11655:11664   */\n      dup4\n        /* \"#utility.yul\":11651:11669   */\n      add\n        /* \"#utility.yul\":11644:11692   */\n      mstore\n        /* \"#utility.yul\":11709:11787   */\n      tag_368\n        /* \"#utility.yul\":11782:11786   */\n      dup2\n        /* \"#utility.yul\":11773:11779   */\n      dup5\n        /* \"#utility.yul\":11709:11787   */\n      tag_193\n      jump\t// in\n    tag_368:\n        /* \"#utility.yul\":11701:11787   */\n      swap1\n      pop\n        /* \"#utility.yul\":11280:11794   */\n      swap4\n      swap3\n      pop\n      pop\n      pop\n      jump\t// out\n        /* \"#utility.yul\":11800:12309   */\n    tag_66:\n        /* \"#utility.yul\":11869:11875   */\n      0x00\n        /* \"#utility.yul\":11918:11920   */\n      0x20\n        /* \"#utility.yul\":11906:11915   */\n      dup3\n        /* \"#utility.yul\":11897:11904   */\n      dup5\n        /* \"#utility.yul\":11893:11916   */\n      sub\n        /* \"#utility.yul\":11889:11921   */\n      slt\n        /* \"#utility.yul\":11886:12005   */\n      iszero\n      tag_370\n      jumpi\n        /* \"#utility.yul\":11924:12003   */\n      tag_371\n      tag_181\n      jump\t// in\n    tag_371:\n        /* \"#utility.yul\":11886:12005   */\n    tag_370:\n        /* \"#utility.yul\":12072:12073   */\n      0x00\n        /* \"#utility.yul\":12061:12070   */\n      dup3\n        /* \"#utility.yul\":12057:12074   */\n      add\n        /* \"#utility.yul\":12044:12075   */\n      calldataload\n        /* \"#utility.yul\":12102:12120   */\n      0xffffffffffffffff\n        /* \"#utility.yul\":12094:12100   */\n      dup2\n        /* \"#utility.yul\":12091:12121   */\n      gt\n        /* \"#utility.yul\":12088:12205   */\n      iszero\n      tag_372\n      jumpi\n        /* \"#utility.yul\":12124:12203   */\n      tag_373\n      tag_182\n      jump\t// in\n    tag_373:\n        /* \"#utility.yul\":12088:12205   */\n    tag_372:\n        /* \"#utility.yul\":12229:12292   */\n      tag_374\n        /* \"#utility.yul\":12284:12291   */\n      dup5\n        /* \"#utility.yul\":12275:12281   */\n      dup3\n        /* \"#utility.yul\":12264:12273   */\n      dup6\n        /* \"#utility.yul\":12260:12282   */\n      add\n        /* \"#utility.yul\":12229:12292   */\n      tag_210\n      jump\t// in\n    tag_374:\n        /* \"#utility.yul\":12219:12292   */\n      swap2\n      pop\n        /* \"#utility.yul\":12015:12302   */\n      pop\n        /* \"#utility.yul\":11800:12309   */\n      swap3\n      swap2\n      pop\n      pop\n      jump\t// out\n        /* \"#utility.yul\":12315:12728   */\n    tag_73:\n        /* \"#utility.yul\":12478:12482   */\n      0x00\n        /* \"#utility.yul\":12516:12518   */\n      0x20\n        /* \"#utility.yul\":12505:12514   */\n      dup3\n        /* \"#utility.yul\":12501:12519   */\n      add\n        /* \"#utility.yul\":12493:12519   */\n      swap1\n      pop\n        /* \"#utility.yul\":12565:12574   */\n      dup2\n        /* \"#utility.yul\":12559:12563   */\n      dup2\n        /* \"#utility.yul\":12555:12575   */\n      sub\n        /* \"#utility.yul\":12551:12552   */\n      0x00\n        /* \"#utility.yul\":12540:12549   */\n      dup4\n        /* \"#utility.yul\":12536:12553   */\n      add\n        /* \"#utility.yul\":12529:12576   */\n      mstore\n        /* \"#utility.yul\":12593:12721   */\n      tag_376\n        /* \"#utility.yul\":12716:12720   */\n      dup2\n        /* \"#utility.yul\":12707:12713   */\n      dup5\n        /* \"#utility.yul\":12593:12721   */\n      tag_202\n      jump\t// in\n    tag_376:\n        /* \"#utility.yul\":12585:12721   */\n      swap1\n      pop\n        /* \"#utility.yul\":12315:12728   */\n      swap3\n      swap2\n      pop\n      pop\n      jump\t// out\n        /* \"#utility.yul\":12734:12914   */\n    tag_213:\n        /* \"#utility.yul\":12782:12859   */\n      0x4e487b7100000000000000000000000000000000000000000000000000000000\n        /* \"#utility.yul\":12779:12780   */\n      0x00\n        /* \"#utility.yul\":12772:12860   */\n      mstore\n        /* \"#utility.yul\":12879:12883   */\n      0x22\n        /* \"#utility.yul\":12876:12877   */\n      0x04\n        /* \"#utility.yul\":12869:12884   */\n      mstore\n        /* \"#utility.yul\":12903:12907   */\n      0x24\n        /* \"#utility.yul\":12900:12901   */\n      0x00\n        /* \"#utility.yul\":12893:12908   */\n      revert\n        /* \"#utility.yul\":12920:13240   */\n    tag_75:\n        /* \"#utility.yul\":12964:12970   */\n      0x00\n        /* \"#utility.yul\":13001:13002   */\n      0x02\n        /* \"#utility.yul\":12995:12999   */\n      dup3\n        /* \"#utility.yul\":12991:13003   */\n      div\n        /* \"#utility.yul\":12981:13003   */\n      swap1\n      pop\n        /* \"#utility.yul\":13048:13049   */\n      0x01\n        /* \"#utility.yul\":13042:13046   */\n      dup3\n        /* \"#utility.yul\":13038:13050   */\n      and\n        /* \"#utility.yul\":13069:13087   */\n      dup1\n        /* \"#utility.yul\":13059:13140   */\n      tag_379\n      jumpi\n        /* \"#utility.yul\":13125:13129   */\n      0x7f\n        /* \"#utility.yul\":13117:13123   */\n      dup3\n        /* \"#utility.yul\":13113:13130   */\n      and\n        /* \"#utility.yul\":13103:13130   */\n      swap2\n      pop\n        /* \"#utility.yul\":13059:13140   */\n    tag_379:\n        /* \"#utility.yul\":13187:13189   */\n      0x20\n        /* \"#utility.yul\":13179:13185   */\n      dup3\n        /* \"#utility.yul\":13176:13190   */\n      lt\n        /* \"#utility.yul\":13156:13174   */\n      dup2\n        /* \"#utility.yul\":13153:13191   */\n      sub\n        /* \"#utility.yul\":13150:13234   */\n      tag_380\n      jumpi\n        /* \"#utility.yul\":13206:13224   */\n      tag_381\n      tag_213\n      jump\t// in\n    tag_381:\n        /* \"#utility.yul\":13150:13234   */\n    tag_380:\n        /* \"#utility.yul\":12971:13240   */\n      pop\n        /* \"#utility.yul\":12920:13240   */\n      swap2\n      swap1\n      pop\n      jump\t// out\n        /* \"#utility.yul\":13246:13387   */\n    tag_214:\n        /* \"#utility.yul\":13295:13299   */\n      0x00\n        /* \"#utility.yul\":13318:13321   */\n      dup2\n        /* \"#utility.yul\":13310:13321   */\n      swap1\n      pop\n        /* \"#utility.yul\":13341:13344   */\n      dup2\n        /* \"#utility.yul\":13338:13339   */\n      0x00\n        /* \"#utility.yul\":13331:13345   */\n      mstore\n        /* \"#utility.yul\":13375:13379   */\n      0x20\n        /* \"#utility.yul\":13372:13373   */\n      0x00\n        /* \"#utility.yul\":13362:13380   */\n      keccak256\n        /* \"#utility.yul\":13354:13380   */\n      swap1\n      pop\n        /* \"#utility.yul\":13246:13387   */\n      swap2\n      swap1\n      pop\n      jump\t// out\n        /* \"#utility.yul\":13393:13486   */\n    tag_215:\n        /* \"#utility.yul\":13430:13436   */\n      0x00\n        /* \"#utility.yul\":13477:13479   */\n      0x20\n        /* \"#utility.yul\":13472:13474   */\n      0x1f\n        /* \"#utility.yul\":13465:13470   */\n      dup4\n        /* \"#utility.yul\":13461:13475   */\n      add\n        /* \"#utility.yul\":13457:13480   */\n      div\n        /* \"#utility.yul\":13447:13480   */\n      swap1\n      pop\n        /* \"#utility.yul\":13393:13486   */\n      swap2\n      swap1\n      pop\n      jump\t// out\n        /* \"#utility.yul\":13492:13599   */\n    tag_216:\n        /* \"#utility.yul\":13536:13544   */\n      0x00\n        /* \"#utility.yul\":13586:13591   */\n      dup3\n        /* \"#utility.yul\":13580:13584   */\n      dup3\n        /* \"#utility.yul\":13576:13592   */\n      shl\n        /* \"#utility.yul\":13555:13592   */\n      swap1\n      pop\n        /* \"#utility.yul\":13492:13599   */\n      swap3\n      swap2\n      pop\n      pop\n      jump\t// out\n        /* \"#utility.yul\":13605:13998   */\n    tag_217:\n        /* \"#utility.yul\":13674:13680   */\n      0x00\n        /* \"#utility.yul\":13724:13725   */\n      0x08\n        /* \"#utility.yul\":13712:13722   */\n      dup4\n        /* \"#utility.yul\":13708:13726   */\n      mul\n        /* \"#utility.yul\":13747:13844   */\n      tag_386\n        /* \"#utility.yul\":13777:13843   */\n      0xffffffffffffffffffffffffffffffffffffffffffffffffffffffffffffffff\n        /* \"#utility.yul\":13766:13775   */\n      dup3\n        /* \"#utility.yul\":13747:13844   */\n      tag_216\n      jump\t// in\n    tag_386:\n        /* \"#utility.yul\":13865:13904   */\n      tag_387\n        /* \"#utility.yul\":13895:13903   */\n      dup7\n        /* \"#utility.yul\":13884:13893   */\n      dup4\n        /* \"#utility.yul\":13865:13904   */\n      tag_216\n      jump\t// in\n    tag_387:\n        /* \"#utility.yul\":13853:13904   */\n      swap6\n      pop\n        /* \"#utility.yul\":13937:13941   */\n      dup1\n        /* \"#utility.yul\":13933:13942   */\n      not\n        /* \"#utility.yul\":13926:13931   */\n      dup5\n        /* \"#utility.yul\":13922:13943   */\n      and\n        /* \"#utility.yul\":13913:13943   */\n      swap4\n      pop\n        /* \"#utility.yul\":13986:13990   */\n      dup1\n        /* \"#utility.yul\":13976:13984   */\n      dup7\n        /* \"#utility.yul\":13972:13991   */\n      and\n        /* \"#utility.yul\":13965:13970   */\n      dup5\n        /* \"#utility.yul\":13962:13992   */\n      or\n        /* \"#utility.yul\":13952:13992   */\n      swap3\n      pop\n        /* \"#utility.yul\":13681:13998   */\n      pop\n      pop\n        /* \"#utility.yul\":13605:13998   */\n      swap4\n      swap3\n      pop\n      pop\n      pop\n      jump\t// out\n        /* \"#utility.yul\":14004:14064   */\n    tag_218:\n        /* \"#utility.yul\":14032:14035   */\n      0x00\n        /* \"#utility.yul\":14053:14058   */\n      dup2\n        /* \"#utility.yul\":14046:14058   */\n      swap1\n      pop\n        /* \"#utility.yul\":14004:14064   */\n      swap2\n      swap1\n      pop\n      jump\t// out\n        /* \"#utility.yul\":14070:14212   */\n    tag_219:\n        /* \"#utility.yul\":14120:14129   */\n      0x00\n        /* \"#utility.yul\":14153:14206   */\n      tag_390\n        /* \"#utility.yul\":14171:14205   */\n      tag_391\n        /* \"#utility.yul\":14180:14204   */\n      tag_392\n        /* \"#utility.yul\":14198:14203   */\n      dup5\n        /* \"#utility.yul\":14180:14204   */\n      tag_183\n      jump\t// in\n    tag_392:\n        /* \"#utility.yul\":14171:14205   */\n      tag_218\n      jump\t// in\n    tag_391:\n        /* \"#utility.yul\":14153:14206   */\n      tag_183\n      jump\t// in\n    tag_390:\n        /* \"#utility.yul\":14140:14206   */\n      swap1\n      pop\n        /* \"#utility.yul\":14070:14212   */\n      swap2\n      swap1\n      pop\n      jump\t// out\n        /* \"#utility.yul\":14218:14293   */\n    tag_220:\n        /* \"#utility.yul\":14261:14264   */\n      0x00\n        /* \"#utility.yul\":14282:14287   */\n      dup2\n        /* \"#utility.yul\":14275:14287   */\n      swap1\n      pop\n        /* \"#utility.yul\":14218:14293   */\n      swap2\n      swap1\n      pop\n      jump\t// out\n        /* \"#utility.yul\":14299:14568   */\n    tag_221:\n        /* \"#utility.yul\":14409:14448   */\n      tag_395\n        /* \"#utility.yul\":14440:14447   */\n      dup4\n        /* \"#utility.yul\":14409:14448   */\n      tag_219\n      jump\t// in\n    tag_395:\n        /* \"#utility.yul\":14470:14561   */\n      tag_396\n        /* \"#utility.yul\":14519:14560   */\n      tag_397\n        /* \"#utility.yul\":14543:14559   */\n      dup3\n        /* \"#utility.yul\":14519:14560   */\n      tag_220\n      jump\t// in\n    tag_397:\n        /* \"#utility.yul\":14511:14517   */\n      dup5\n        /* \"#utility.yul\":14504:14508   */\n      dup5\n        /* \"#utility.yul\":14498:14509   */\n      sload\n        /* \"#utility.yul\":14470:14561   */\n      tag_217\n      jump\t// in\n    tag_396:\n        /* \"#utility.yul\":14464:14468   */\n      dup3\n        /* \"#utility.yul\":14457:14562   */\n      sstore\n        /* \"#utility.yul\":14375:14568   */\n      pop\n        /* \"#utility.yul\":14299:14568   */\n      pop\n      pop\n      pop\n      jump\t// out\n        /* \"#utility.yul\":14574:14647   */\n    tag_222:\n        /* \"#utility.yul\":14619:14622   */\n      0x00\n        /* \"#utility.yul\":14574:14647   */\n      swap1\n      jump\t// out\n        /* \"#utility.yul\":14653:14842   */\n    tag_223:\n        /* \"#utility.yul\":14730:14762   */\n      tag_400\n      tag_222\n      jump\t// in\n    tag_400:\n        /* \"#utility.yul\":14771:14836   */\n      tag_401\n        /* \"#utility.yul\":14829:14835   */\n      dup2\n        /* \"#utility.yul\":14821:14827   */\n      dup5\n        /* \"#utility.yul\":14815:14819   */\n      dup5\n        /* \"#utility.yul\":14771:14836   */\n      tag_221\n      jump\t// in\n    tag_401:\n        /* \"#utility.yul\":14706:14842   */\n      pop\n        /* \"#utility.yul\":14653:14842   */\n      pop\n      pop\n      jump\t// out\n        /* \"#utility.yul\":14848:15034   */\n    tag_224:\n        /* \"#utility.yul\":14908:15028   */\n    tag_403:\n        /* \"#utility.yul\":14925:14928   */\n      dup2\n        /* \"#utility.yul\":14918:14923   */\n      dup2\n        /* \"#utility.yul\":14915:14929   */\n      lt\n        /* \"#utility.yul\":14908:15028   */\n      iszero\n      tag_405\n      jumpi\n        /* \"#utility.yul\":14979:15018   */\n      tag_406\n        /* \"#utility.yul\":15016:15017   */\n      0x00\n        /* \"#utility.yul\":15009:15014   */\n      dup3\n        /* \"#utility.yul\":14979:15018   */\n      tag_223\n      jump\t// in\n    tag_406:\n        /* \"#utility.yul\":14952:14953   */\n      0x01\n        /* \"#utility.yul\":14945:14950   */\n      dup2\n        /* \"#utility.yul\":14941:14954   */\n      add\n        /* \"#utility.yul\":14932:14954   */\n      swap1\n      pop\n        /* \"#utility.yul\":14908:15028   */\n      jump(tag_403)\n    tag_405:\n        /* \"#utility.yul\":14848:15034   */\n      pop\n      pop\n      jump\t// out\n        /* \"#utility.yul\":15040:15583   */\n    tag_225:\n        /* \"#utility.yul\":15141:15143   */\n      0x1f\n        /* \"#utility.yul\":15136:15139   */\n      dup3\n        /* \"#utility.yul\":15133:15144   */\n      gt\n        /* \"#utility.yul\":15130:15576   */\n      iszero\n      tag_408\n      jumpi\n        /* \"#utility.yul\":15175:15213   */\n      tag_409\n        /* \"#utility.yul\":15207:15212   */\n      dup2\n        /* \"#utility.yul\":15175:15213   */\n      tag_214\n      jump\t// in\n    tag_409:\n        /* \"#utility.yul\":15259:15288   */\n      tag_410\n        /* \"#utility.yul\":15277:15287   */\n      dup5\n        /* \"#utility.yul\":15259:15288   */\n      tag_215\n      jump\t// in\n    tag_410:\n        /* \"#utility.yul\":15249:15257   */\n      dup2\n        /* \"#utility.yul\":15245:15289   */\n      add\n        /* \"#utility.yul\":15442:15444   */\n      0x20\n        /* \"#utility.yul\":15430:15440   */\n      dup6\n        /* \"#utility.yul\":15427:15445   */\n      lt\n        /* \"#utility.yul\":15424:15473   */\n      iszero\n      tag_411\n      jumpi\n        /* \"#utility.yul\":15463:15471   */\n      dup2\n        /* \"#utility.yul\":15448:15471   */\n      swap1\n      pop\n        /* \"#utility.yul\":15424:15473   */\n    tag_411:\n        /* \"#utility.yul\":15486:15566   */\n      tag_412\n        /* \"#utility.yul\":15542:15564   */\n      tag_413\n        /* \"#utility.yul\":15560:15563   */\n      dup6\n        /* \"#utility.yul\":15542:15564   */\n      tag_215\n      jump\t// in\n    tag_413:\n        /* \"#utility.yul\":15532:15540   */\n      dup4\n        /* \"#utility.yul\":15528:15565   */\n      add\n        /* \"#utility.yul\":15515:15526   */\n      dup3\n        /* \"#utility.yul\":15486:15566   */\n      tag_224\n      jump\t// in\n    tag_412:\n        /* \"#utility.yul\":15145:15576   */\n      pop\n      pop\n        /* \"#utility.yul\":15130:15576   */\n    tag_408:\n        /* \"#utility.yul\":15040:15583   */\n      pop\n      pop\n      pop\n      jump\t// out\n        /* \"#utility.yul\":15589:15706   */\n    tag_226:\n        /* \"#utility.yul\":15643:15651   */\n      0x00\n        /* \"#utility.yul\":15693:15698   */\n      dup3\n        /* \"#utility.yul\":15687:15691   */\n      dup3\n        /* \"#utility.yul\":15683:15699   */\n      shr\n        /* \"#utility.yul\":15662:15699   */\n      swap1\n      pop\n        /* \"#utility.yul\":15589:15706   */\n      swap3\n      swap2\n      pop\n      pop\n      jump\t// out\n        /* \"#utility.yul\":15712:15881   */\n    tag_227:\n        /* \"#utility.yul\":15756:15762   */\n      0x00\n        /* \"#utility.yul\":15789:15840   */\n      tag_416\n        /* \"#utility.yul\":15837:15838   */\n      0x00\n        /* \"#utility.yul\":15833:15839   */\n      not\n        /* \"#utility.yul\":15825:15830   */\n      dup5\n        /* \"#utility.yul\":15822:15823   */\n      0x08\n        /* \"#utility.yul\":15818:15831   */\n      mul\n        /* \"#utility.yul\":15789:15840   */\n      tag_226\n      jump\t// in\n    tag_416:\n        /* \"#utility.yul\":15785:15841   */\n      not\n        /* \"#utility.yul\":15870:15874   */\n      dup1\n        /* \"#utility.yul\":15864:15868   */\n      dup4\n        /* \"#utility.yul\":15860:15875   */\n      and\n        /* \"#utility.yul\":15850:15875   */\n      swap2\n      pop\n        /* \"#utility.yul\":15763:15881   */\n      pop\n        /* \"#utility.yul\":15712:15881   */\n      swap3\n      swap2\n      pop\n      pop\n      jump\t// out\n        /* \"#utility.yul\":15886:16181   */\n    tag_228:\n        /* \"#utility.yul\":15962:15966   */\n      0x00\n        /* \"#utility.yul\":16108:16137   */\n      tag_418\n        /* \"#utility.yul\":16133:16136   */\n      dup4\n        /* \"#utility.yul\":16127:16131   */\n      dup4\n        /* \"#utility.yul\":16108:16137   */\n      tag_227\n      jump\t// in\n    tag_418:\n        /* \"#utility.yul\":16100:16137   */\n      swap2\n      pop\n        /* \"#utility.yul\":16170:16173   */\n      dup3\n        /* \"#utility.yul\":16167:16168   */\n      0x02\n        /* \"#utility.yul\":16163:16174   */\n      mul\n        /* \"#utility.yul\":16157:16161   */\n      dup3\n        /* \"#utility.yul\":16154:16175   */\n      or\n        /* \"#utility.yul\":16146:16175   */\n      swap1\n      pop\n        /* \"#utility.yul\":15886:16181   */\n      swap3\n      swap2\n      pop\n      pop\n      jump\t// out\n        /* \"#utility.yul\":16186:17581   */\n    tag_96:\n        /* \"#utility.yul\":16303:16340   */\n      tag_420\n        /* \"#utility.yul\":16336:16339   */\n      dup3\n        /* \"#utility.yul\":16303:16340   */\n      tag_189\n      jump\t// in\n    tag_420:\n        /* \"#utility.yul\":16405:16423   */\n      0xffffffffffffffff\n        /* \"#utility.yul\":16397:16403   */\n      dup2\n        /* \"#utility.yul\":16394:16424   */\n      gt\n        /* \"#utility.yul\":16391:16447   */\n      iszero\n      tag_421\n      jumpi\n        /* \"#utility.yul\":16427:16445   */\n      tag_422\n      tag_145\n      jump\t// in\n    tag_422:\n        /* \"#utility.yul\":16391:16447   */\n    tag_421:\n        /* \"#utility.yul\":16471:16509   */\n      tag_423\n        /* \"#utility.yul\":16503:16507   */\n      dup3\n        /* \"#utility.yul\":16497:16508   */\n      sload\n        /* \"#utility.yul\":16471:16509   */\n      tag_75\n      jump\t// in\n    tag_423:\n        /* \"#utility.yul\":16556:16623   */\n      tag_424\n        /* \"#utility.yul\":16616:16622   */\n      dup3\n        /* \"#utility.yul\":16608:16614   */\n      dup3\n        /* \"#utility.yul\":16602:16606   */\n      dup6\n        /* \"#utility.yul\":16556:16623   */\n      tag_225\n      jump\t// in\n    tag_424:\n        /* \"#utility.yul\":16650:16651   */\n      0x00\n        /* \"#utility.yul\":16674:16678   */\n      0x20\n        /* \"#utility.yul\":16661:16678   */\n      swap1\n      pop\n        /* \"#utility.yul\":16706:16708   */\n      0x1f\n        /* \"#utility.yul\":16698:16704   */\n      dup4\n        /* \"#utility.yul\":16695:16709   */\n      gt\n        /* \"#utility.yul\":16723:16724   */\n      0x01\n        /* \"#utility.yul\":16718:17336   */\n      dup2\n      eq\n      tag_426\n      jumpi\n        /* \"#utility.yul\":17380:17381   */\n      0x00\n        /* \"#utility.yul\":17397:17403   */\n      dup5\n        /* \"#utility.yul\":17394:17471   */\n      iszero\n      tag_427\n      jumpi\n        /* \"#utility.yul\":17446:17455   */\n      dup3\n        /* \"#utility.yul\":17441:17444   */\n      dup8\n        /* \"#utility.yul\":17437:17456   */\n      add\n        /* \"#utility.yul\":17431:17457   */\n      mload\n        /* \"#utility.yul\":17422:17457   */\n      swap1\n      pop\n        /* \"#utility.yul\":17394:17471   */\n    tag_427:\n        /* \"#utility.yul\":17497:17564   */\n      tag_428\n        /* \"#utility.yul\":17557:17563   */\n      dup6\n        /* \"#utility.yul\":17550:17555   */\n      dup3\n        /* \"#utility.yul\":17497:17564   */\n      tag_228\n      jump\t// in\n    tag_428:\n        /* \"#utility.yul\":17491:17495   */\n      dup7\n        /* \"#utility.yul\":17484:17565   */\n      sstore\n        /* \"#utility.yul\":17353:17575   */\n      pop\n        /* \"#utility.yul\":16688:17575   */\n      jump(tag_425)\n        /* \"#utility.yul\":16718:17336   */\n    tag_426:\n        /* \"#utility.yul\":16770:16774   */\n      0x1f\n        /* \"#utility.yul\":16766:16775   */\n      not\n        /* \"#utility.yul\":16758:16764   */\n      dup5\n        /* \"#utility.yul\":16754:16776   */\n      and\n        /* \"#utility.yul\":16804:16841   */\n      tag_429\n        /* \"#utility.yul\":16836:16840   */\n      dup7\n        /* \"#utility.yul\":16804:16841   */\n      tag_214\n      jump\t// in\n    tag_429:\n        /* \"#utility.yul\":16863:16864   */\n      0x00\n        /* \"#utility.yul\":16877:17085   */\n    tag_430:\n        /* \"#utility.yul\":16891:16898   */\n      dup3\n        /* \"#utility.yul\":16888:16889   */\n      dup2\n        /* \"#utility.yul\":16885:16899   */\n      lt\n        /* \"#utility.yul\":16877:17085   */\n      iszero\n      tag_432\n      jumpi\n        /* \"#utility.yul\":16970:16979   */\n      dup5\n        /* \"#utility.yul\":16965:16968   */\n      dup10\n        /* \"#utility.yul\":16961:16980   */\n      add\n        /* \"#utility.yul\":16955:16981   */\n      mload\n        /* \"#utility.yul\":16947:16953   */\n      dup3\n        /* \"#utility.yul\":16940:16982   */\n      sstore\n        /* \"#utility.yul\":17021:17022   */\n      0x01\n        /* \"#utility.yul\":17013:17019   */\n      dup3\n        /* \"#utility.yul\":17009:17023   */\n      add\n        /* \"#utility.yul\":16999:17023   */\n      swap2\n      pop\n        /* \"#utility.yul\":17068:17070   */\n      0x20\n        /* \"#utility.yul\":17057:17066   */\n      dup6\n        /* \"#utility.yul\":17053:17071   */\n      add\n        /* \"#utility.yul\":17040:17071   */\n      swap5\n      pop\n        /* \"#utility.yul\":16914:16918   */\n      0x20\n        /* \"#utility.yul\":16911:16912   */\n      dup2\n        /* \"#utility.yul\":16907:16919   */\n      add\n        /* \"#utility.yul\":16902:16919   */\n      swap1\n      pop\n        /* \"#utility.yul\":16877:17085   */\n      jump(tag_430)\n    tag_432:\n        /* \"#utility.yul\":17113:17119   */\n      dup7\n        /* \"#utility.yul\":17104:17111   */\n      dup4\n        /* \"#utility.yul\":17101:17120   */\n      lt\n        /* \"#utility.yul\":17098:17277   */\n      iszero\n      tag_433\n      jumpi\n        /* \"#utility.yul\":17171:17180   */\n      dup5\n        /* \"#utility.yul\":17166:17169   */\n      dup10\n        /* \"#utility.yul\":17162:17181   */\n      add\n        /* \"#utility.yul\":17156:17182   */\n      mload\n        /* \"#utility.yul\":17214:17262   */\n      tag_434\n        /* \"#utility.yul\":17256:17260   */\n      0x1f\n        /* \"#utility.yul\":17248:17254   */\n      dup10\n        /* \"#utility.yul\":17244:17261   */\n      and\n        /* \"#utility.yul\":17233:17242   */\n      dup3\n        /* \"#utility.yul\":17214:17262   */\n      tag_227\n      jump\t// in\n    tag_434:\n        /* \"#utility.yul\":17206:17212   */\n      dup4\n        /* \"#utility.yul\":17199:17263   */\n      sstore\n        /* \"#utility.yul\":17121:17277   */\n      pop\n        /* \"#utility.yul\":17098:17277   */\n    tag_433:\n        /* \"#utility.yul\":17323:17324   */\n      0x01\n        /* \"#utility.yul\":17319:17320   */\n      0x02\n        /* \"#utility.yul\":17311:17317   */\n      dup9\n        /* \"#utility.yul\":17307:17321   */\n      mul\n        /* \"#utility.yul\":17303:17325   */\n      add\n        /* \"#utility.yul\":17297:17301   */\n      dup9\n        /* \"#utility.yul\":17290:17326   */\n      sstore\n        /* \"#utility.yul\":16725:17336   */\n      pop\n      pop\n      pop\n        /* \"#utility.yul\":16688:17575   */\n    tag_425:\n      pop\n        /* \"#utility.yul\":16278:17581   */\n      pop\n      pop\n      pop\n        /* \"#utility.yul\":16186:17581   */\n      pop\n      pop\n      jump\t// out\n        /* \"#utility.yul\":17587:17756   */\n    tag_229:\n        /* \"#utility.yul\":17727:17748   */\n      0x506f737420646f6573206e6f7420657869737400000000000000000000000000\n        /* \"#utility.yul\":17723:17724   */\n      0x00\n        /* \"#utility.yul\":17715:17721   */\n      dup3\n        /* \"#utility.yul\":17711:17725   */\n      add\n        /* \"#utility.yul\":17704:17749   */\n      mstore\n        /* \"#utility.yul\":17587:17756   */\n      pop\n      jump\t// out\n        /* \"#utility.yul\":17762:18128   */\n    tag_230:\n        /* \"#utility.yul\":17904:17907   */\n      0x00\n        /* \"#utility.yul\":17925:17992   */\n      tag_437\n        /* \"#utility.yul\":17989:17991   */\n      0x13\n        /* \"#utility.yul\":17984:17987   */\n      dup4\n        /* \"#utility.yul\":17925:17992   */\n      tag_190\n      jump\t// in\n    tag_437:\n        /* \"#utility.yul\":17918:17992   */\n      swap2\n      pop\n        /* \"#utility.yul\":18001:18094   */\n      tag_438\n        /* \"#utility.yul\":18090:18093   */\n      dup3\n        /* \"#utility.yul\":18001:18094   */\n      tag_229\n      jump\t// in\n    tag_438:\n        /* \"#utility.yul\":18119:18121   */\n      0x20\n        /* \"#utility.yul\":18114:18117   */\n      dup3\n        /* \"#utility.yul\":18110:18122   */\n      add\n        /* \"#utility.yul\":18103:18122   */\n      swap1\n      pop\n        /* \"#utility.yul\":17762:18128   */\n      swap2\n      swap1\n      pop\n      jump\t// out\n        /* \"#utility.yul\":18134:18553   */\n    tag_101:\n        /* \"#utility.yul\":18300:18304   */\n      0x00\n        /* \"#utility.yul\":18338:18340   */\n      0x20\n        /* \"#utility.yul\":18327:18336   */\n      dup3\n        /* \"#utility.yul\":18323:18341   */\n      add\n        /* \"#utility.yul\":18315:18341   */\n      swap1\n      pop\n        /* \"#utility.yul\":18387:18396   */\n      dup2\n        /* \"#utility.yul\":18381:18385   */\n      dup2\n        /* \"#utility.yul\":18377:18397   */\n      sub\n        /* \"#utility.yul\":18373:18374   */\n      0x00\n        /* \"#utility.yul\":18362:18371   */\n      dup4\n        /* \"#utility.yul\":18358:18375   */\n      add\n        /* \"#utility.yul\":18351:18398   */\n      mstore\n        /* \"#utility.yul\":18415:18546   */\n      tag_440\n        /* \"#utility.yul\":18541:18545   */\n      dup2\n        /* \"#utility.yul\":18415:18546   */\n      tag_230\n      jump\t// in\n    tag_440:\n        /* \"#utility.yul\":18407:18546   */\n      swap1\n      pop\n        /* \"#utility.yul\":18134:18553   */\n      swap2\n      swap1\n      pop\n      jump\t// out\n        /* \"#utility.yul\":18559:18779   */\n    tag_231:\n        /* \"#utility.yul\":18699:18733   */\n      0x496e73756666696369656e7420657468657220666f7220636f6d6d656e74696e\n        /* \"#utility.yul\":18695:18696   */\n      0x00\n        /* \"#utility.yul\":18687:18693   */\n      dup3\n        /* \"#utility.yul\":18683:18697   */\n      add\n        /* \"#utility.yul\":18676:18734   */\n      mstore\n        /* \"#utility.yul\":18768:18771   */\n      0x6700000000000000000000000000000000000000000000000000000000000000\n        /* \"#utility.yul\":18763:18765   */\n      0x20\n        /* \"#utility.yul\":18755:18761   */\n      dup3\n        /* \"#utility.yul\":18751:18766   */\n      add\n        /* \"#utility.yul\":18744:18772   */\n      mstore\n        /* \"#utility.yul\":18559:18779   */\n      pop\n      jump\t// out\n        /* \"#utility.yul\":18785:19151   */\n    tag_232:\n        /* \"#utility.yul\":18927:18930   */\n      0x00\n        /* \"#utility.yul\":18948:19015   */\n      tag_443\n        /* \"#utility.yul\":19012:19014   */\n      0x21\n        /* \"#utility.yul\":19007:19010   */\n      dup4\n        /* \"#utility.yul\":18948:19015   */\n      tag_190\n      jump\t// in\n    tag_443:\n        /* \"#utility.yul\":18941:19015   */\n      swap2\n      pop\n        /* \"#utility.yul\":19024:19117   */\n      tag_444\n        /* \"#utility.yul\":19113:19116   */\n      dup3\n        /* \"#utility.yul\":19024:19117   */\n      tag_231\n      jump\t// in\n    tag_444:\n        /* \"#utility.yul\":19142:19144   */\n      0x40\n        /* \"#utility.yul\":19137:19140   */\n      dup3\n        /* \"#utility.yul\":19133:19145   */\n      add\n        /* \"#utility.yul\":19126:19145   */\n      swap1\n      pop\n        /* \"#utility.yul\":18785:19151   */\n      swap2\n      swap1\n      pop\n      jump\t// out\n        /* \"#utility.yul\":19157:19576   */\n    tag_104:\n        /* \"#utility.yul\":19323:19327   */\n      0x00\n        /* \"#utility.yul\":19361:19363   */\n      0x20\n        /* \"#utility.yul\":19350:19359   */\n      dup3\n        /* \"#utility.yul\":19346:19364   */\n      add\n        /* \"#utility.yul\":19338:19364   */\n      swap1\n      pop\n        /* \"#utility.yul\":19410:19419   */\n      dup2\n        /* \"#utility.yul\":19404:19408   */\n      dup2\n        /* \"#utility.yul\":19400:19420   */\n      sub\n        /* \"#utility.yul\":19396:19397   */\n      0x00\n        /* \"#utility.yul\":19385:19394   */\n      dup4\n        /* \"#utility.yul\":19381:19398   */\n      add\n        /* \"#utility.yul\":19374:19421   */\n      mstore\n        /* \"#utility.yul\":19438:19569   */\n      tag_446\n        /* \"#utility.yul\":19564:19568   */\n      dup2\n        /* \"#utility.yul\":19438:19569   */\n      tag_232\n      jump\t// in\n    tag_446:\n        /* \"#utility.yul\":19430:19569   */\n      swap1\n      pop\n        /* \"#utility.yul\":19157:19576   */\n      swap2\n      swap1\n      pop\n      jump\t// out\n        /* \"#utility.yul\":19582:19739   */\n    tag_233:\n        /* \"#utility.yul\":19722:19731   */\n      0x436f6d6d656e7400000000000000000000000000000000000000000000000000\n        /* \"#utility.yul\":19718:19719   */\n      0x00\n        /* \"#utility.yul\":19710:19716   */\n      dup3\n        /* \"#utility.yul\":19706:19720   */\n      add\n        /* \"#utility.yul\":19699:19732   */\n      mstore\n        /* \"#utility.yul\":19582:19739   */\n      pop\n      jump\t// out\n        /* \"#utility.yul\":19745:20110   */\n    tag_234:\n        /* \"#utility.yul\":19887:19890   */\n      0x00\n        /* \"#utility.yul\":19908:19974   */\n      tag_449\n        /* \"#utility.yul\":19972:19973   */\n      0x07\n        /* \"#utility.yul\":19967:19970   */\n      dup4\n        /* \"#utility.yul\":19908:19974   */\n      tag_190\n      jump\t// in\n    tag_449:\n        /* \"#utility.yul\":19901:19974   */\n      swap2\n      pop\n        /* \"#utility.yul\":19983:20076   */\n      tag_450\n        /* \"#utility.yul\":20072:20075   */\n      dup3\n        /* \"#utility.yul\":19983:20076   */\n      tag_233\n      jump\t// in\n    tag_450:\n        /* \"#utility.yul\":20101:20103   */\n      0x20\n        /* \"#utility.yul\":20096:20099   */\n      dup3\n        /* \"#utility.yul\":20092:20104   */\n      add\n        /* \"#utility.yul\":20085:20104   */\n      swap1\n      pop\n        /* \"#utility.yul\":19745:20110   */\n      swap2\n      swap1\n      pop\n      jump\t// out\n        /* \"#utility.yul\":20116:20755   */\n    tag_108:\n        /* \"#utility.yul\":20338:20342   */\n      0x00\n        /* \"#utility.yul\":20376:20378   */\n      0x60\n        /* \"#utility.yul\":20365:20374   */\n      dup3\n        /* \"#utility.yul\":20361:20379   */\n      add\n        /* \"#utility.yul\":20353:20379   */\n      swap1\n      pop\n        /* \"#utility.yul\":20389:20460   */\n      tag_452\n        /* \"#utility.yul\":20457:20458   */\n      0x00\n        /* \"#utility.yul\":20446:20455   */\n      dup4\n        /* \"#utility.yul\":20442:20459   */\n      add\n        /* \"#utility.yul\":20433:20439   */\n      dup6\n        /* \"#utility.yul\":20389:20460   */\n      tag_194\n      jump\t// in\n    tag_452:\n        /* \"#utility.yul\":20470:20542   */\n      tag_453\n        /* \"#utility.yul\":20538:20540   */\n      0x20\n        /* \"#utility.yul\":20527:20536   */\n      dup4\n        /* \"#utility.yul\":20523:20541   */\n      add\n        /* \"#utility.yul\":20514:20520   */\n      dup5\n        /* \"#utility.yul\":20470:20542   */\n      tag_188\n      jump\t// in\n    tag_453:\n        /* \"#utility.yul\":20589:20598   */\n      dup2\n        /* \"#utility.yul\":20583:20587   */\n      dup2\n        /* \"#utility.yul\":20579:20599   */\n      sub\n        /* \"#utility.yul\":20574:20576   */\n      0x40\n        /* \"#utility.yul\":20563:20572   */\n      dup4\n        /* \"#utility.yul\":20559:20577   */\n      add\n        /* \"#utility.yul\":20552:20600   */\n      mstore\n        /* \"#utility.yul\":20617:20748   */\n      tag_454\n        /* \"#utility.yul\":20743:20747   */\n      dup2\n        /* \"#utility.yul\":20617:20748   */\n      tag_234\n      jump\t// in\n    tag_454:\n        /* \"#utility.yul\":20609:20748   */\n      swap1\n      pop\n        /* \"#utility.yul\":20116:20755   */\n      swap4\n      swap3\n      pop\n      pop\n      pop\n      jump\t// out\n        /* \"#utility.yul\":20761:20940   */\n    tag_235:\n        /* \"#utility.yul\":20901:20932   */\n      0x496e73756666696369656e7420657468657220666f72206c696b696e67000000\n        /* \"#utility.yul\":20897:20898   */\n      0x00\n        /* \"#utility.yul\":20889:20895   */\n      dup3\n        /* \"#utility.yul\":20885:20899   */\n      add\n        /* \"#utility.yul\":20878:20933   */\n      mstore\n        /* \"#utility.yul\":20761:20940   */\n      pop\n      jump\t// out\n        /* \"#utility.yul\":20946:21312   */\n    tag_236:\n        /* \"#utility.yul\":21088:21091   */\n      0x00\n        /* \"#utility.yul\":21109:21176   */\n      tag_457\n        /* \"#utility.yul\":21173:21175   */\n      0x1d\n        /* \"#utility.yul\":21168:21171   */\n      dup4\n        /* \"#utility.yul\":21109:21176   */\n      tag_190\n      jump\t// in\n    tag_457:\n        /* \"#utility.yul\":21102:21176   */\n      swap2\n      pop\n        /* \"#utility.yul\":21185:21278   */\n      tag_458\n        /* \"#utility.yul\":21274:21277   */\n      dup3\n        /* \"#utility.yul\":21185:21278   */\n      tag_235\n      jump\t// in\n    tag_458:\n        /* \"#utility.yul\":21303:21305   */\n      0x20\n        /* \"#utility.yul\":21298:21301   */\n      dup3\n        /* \"#utility.yul\":21294:21306   */\n      add\n        /* \"#utility.yul\":21287:21306   */\n      swap1\n      pop\n        /* \"#utility.yul\":20946:21312   */\n      swap2\n      swap1\n      pop\n      jump\t// out\n        /* \"#utility.yul\":21318:21737   */\n    tag_114:\n        /* \"#utility.yul\":21484:21488   */\n      0x00\n        /* \"#utility.yul\":21522:21524   */\n      0x20\n        /* \"#utility.yul\":21511:21520   */\n      dup3\n        /* \"#utility.yul\":21507:21525   */\n      add\n        /* \"#utility.yul\":21499:21525   */\n      swap1\n      pop\n        /* \"#utility.yul\":21571:21580   */\n      dup2\n        /* \"#utility.yul\":21565:21569   */\n      dup2\n        /* \"#utility.yul\":21561:21581   */\n      sub\n        /* \"#utility.yul\":21557:21558   */\n      0x00\n        /* \"#utility.yul\":21546:21555   */\n      dup4\n        /* \"#utility.yul\":21542:21559   */\n      add\n        /* \"#utility.yul\":21535:21582   */\n      mstore\n        /* \"#utility.yul\":21599:21730   */\n      tag_460\n        /* \"#utility.yul\":21725:21729   */\n      dup2\n        /* \"#utility.yul\":21599:21730   */\n      tag_236\n      jump\t// in\n    tag_460:\n        /* \"#utility.yul\":21591:21730   */\n      swap1\n      pop\n        /* \"#utility.yul\":21318:21737   */\n      swap2\n      swap1\n      pop\n      jump\t// out\n        /* \"#utility.yul\":21743:21923   */\n    tag_237:\n        /* \"#utility.yul\":21791:21868   */\n      0x4e487b7100000000000000000000000000000000000000000000000000000000\n        /* \"#utility.yul\":21788:21789   */\n      0x00\n        /* \"#utility.yul\":21781:21869   */\n      mstore\n        /* \"#utility.yul\":21888:21892   */\n      0x11\n        /* \"#utility.yul\":21885:21886   */\n      0x04\n        /* \"#utility.yul\":21878:21893   */\n      mstore\n        /* \"#utility.yul\":21912:21916   */\n      0x24\n        /* \"#utility.yul\":21909:21910   */\n      0x00\n        /* \"#utility.yul\":21902:21917   */\n      revert\n        /* \"#utility.yul\":21929:22162   */\n    tag_116:\n        /* \"#utility.yul\":21968:21971   */\n      0x00\n        /* \"#utility.yul\":21991:22015   */\n      tag_463\n        /* \"#utility.yul\":22009:22014   */\n      dup3\n        /* \"#utility.yul\":21991:22015   */\n      tag_183\n      jump\t// in\n    tag_463:\n        /* \"#utility.yul\":21982:22015   */\n      swap2\n      pop\n        /* \"#utility.yul\":22037:22103   */\n      0xffffffffffffffffffffffffffffffffffffffffffffffffffffffffffffffff\n        /* \"#utility.yul\":22030:22035   */\n      dup3\n        /* \"#utility.yul\":22027:22104   */\n      sub\n        /* \"#utility.yul\":22024:22127   */\n      tag_464\n      jumpi\n        /* \"#utility.yul\":22107:22125   */\n      tag_465\n      tag_237\n      jump\t// in\n    tag_465:\n        /* \"#utility.yul\":22024:22127   */\n    tag_464:\n        /* \"#utility.yul\":22154:22155   */\n      0x01\n        /* \"#utility.yul\":22147:22152   */\n      dup3\n        /* \"#utility.yul\":22143:22156   */\n      add\n        /* \"#utility.yul\":22136:22156   */\n      swap1\n      pop\n        /* \"#utility.yul\":21929:22162   */\n      swap2\n      swap1\n      pop\n      jump\t// out\n        /* \"#utility.yul\":22168:22322   */\n    tag_238:\n        /* \"#utility.yul\":22308:22314   */\n      0x4c696b6500000000000000000000000000000000000000000000000000000000\n        /* \"#utility.yul\":22304:22305   */\n      0x00\n        /* \"#utility.yul\":22296:22302   */\n      dup3\n        /* \"#utility.yul\":22292:22306   */\n      add\n        /* \"#utility.yul\":22285:22315   */\n      mstore\n        /* \"#utility.yul\":22168:22322   */\n      pop\n      jump\t// out\n        /* \"#utility.yul\":22328:22693   */\n    tag_239:\n        /* \"#utility.yul\":22470:22473   */\n      0x00\n        /* \"#utility.yul\":22491:22557   */\n      tag_468\n        /* \"#utility.yul\":22555:22556   */\n      0x04\n        /* \"#utility.yul\":22550:22553   */\n      dup4\n        /* \"#utility.yul\":22491:22557   */\n      tag_190\n      jump\t// in\n    tag_468:\n        /* \"#utility.yul\":22484:22557   */\n      swap2\n      pop\n        /* \"#utility.yul\":22566:22659   */\n      tag_469\n        /* \"#utility.yul\":22655:22658   */\n      dup3\n        /* \"#utility.yul\":22566:22659   */\n      tag_238\n      jump\t// in\n    tag_469:\n        /* \"#utility.yul\":22684:22686   */\n      0x20\n        /* \"#utility.yul\":22679:22682   */\n      dup3\n        /* \"#utility.yul\":22675:22687   */\n      add\n        /* \"#utility.yul\":22668:22687   */\n      swap1\n      pop\n        /* \"#utility.yul\":22328:22693   */\n      swap2\n      swap1\n      pop\n      jump\t// out\n        /* \"#utility.yul\":22699:23338   */\n    tag_118:\n        /* \"#utility.yul\":22921:22925   */\n      0x00\n        /* \"#utility.yul\":22959:22961   */\n      0x60\n        /* \"#utility.yul\":22948:22957   */\n      dup3\n        /* \"#utility.yul\":22944:22962   */\n      add\n        /* \"#utility.yul\":22936:22962   */\n      swap1\n      pop\n        /* \"#utility.yul\":22972:23043   */\n      tag_471\n        /* \"#utility.yul\":23040:23041   */\n      0x00\n        /* \"#utility.yul\":23029:23038   */\n      dup4\n        /* \"#utility.yul\":23025:23042   */\n      add\n        /* \"#utility.yul\":23016:23022   */\n      dup6\n        /* \"#utility.yul\":22972:23043   */\n      tag_194\n      jump\t// in\n    tag_471:\n        /* \"#utility.yul\":23053:23125   */\n      tag_472\n        /* \"#utility.yul\":23121:23123   */\n      0x20\n        /* \"#utility.yul\":23110:23119   */\n      dup4\n        /* \"#utility.yul\":23106:23124   */\n      add\n        /* \"#utility.yul\":23097:23103   */\n      dup5\n        /* \"#utility.yul\":23053:23125   */\n      tag_188\n      jump\t// in\n    tag_472:\n        /* \"#utility.yul\":23172:23181   */\n      dup2\n        /* \"#utility.yul\":23166:23170   */\n      dup2\n        /* \"#utility.yul\":23162:23182   */\n      sub\n        /* \"#utility.yul\":23157:23159   */\n      0x40\n        /* \"#utility.yul\":23146:23155   */\n      dup4\n        /* \"#utility.yul\":23142:23160   */\n      add\n        /* \"#utility.yul\":23135:23183   */\n      mstore\n        /* \"#utility.yul\":23200:23331   */\n      tag_473\n        /* \"#utility.yul\":23326:23330   */\n      dup2\n        /* \"#utility.yul\":23200:23331   */\n      tag_239\n      jump\t// in\n    tag_473:\n        /* \"#utility.yul\":23192:23331   */\n      swap1\n      pop\n        /* \"#utility.yul\":22699:23338   */\n      swap4\n      swap3\n      pop\n      pop\n      pop\n      jump\t// out\n        /* \"#utility.yul\":23344:23517   */\n    tag_240:\n        /* \"#utility.yul\":23484:23509   */\n      0x4f6e6c79206f776e65722063616e207769746864726177000000000000000000\n        /* \"#utility.yul\":23480:23481   */\n      0x00\n        /* \"#utility.yul\":23472:23478   */\n      dup3\n        /* \"#utility.yul\":23468:23482   */\n      add\n        /* \"#utility.yul\":23461:23510   */\n      mstore\n        /* \"#utility.yul\":23344:23517   */\n      pop\n      jump\t// out\n        /* \"#utility.yul\":23523:23889   */\n    tag_241:\n        /* \"#utility.yul\":23665:23668   */\n      0x00\n        /* \"#utility.yul\":23686:23753   */\n      tag_476\n        /* \"#utility.yul\":23750:23752   */\n      0x17\n        /* \"#utility.yul\":23745:23748   */\n      dup4\n        /* \"#utility.yul\":23686:23753   */\n      tag_190\n      jump\t// in\n    tag_476:\n        /* \"#utility.yul\":23679:23753   */\n      swap2\n      pop\n        /* \"#utility.yul\":23762:23855   */\n      tag_477\n        /* \"#utility.yul\":23851:23854   */\n      dup3\n        /* \"#utility.yul\":23762:23855   */\n      tag_240\n      jump\t// in\n    tag_477:\n        /* \"#utility.yul\":23880:23882   */\n      0x20\n        /* \"#utility.yul\":23875:23878   */\n      dup3\n        /* \"#utility.yul\":23871:23883   */\n      add\n        /* \"#utility.yul\":23864:23883   */\n      swap1\n      pop\n        /* \"#utility.yul\":23523:23889   */\n      swap2\n      swap1\n      pop\n      jump\t// out\n        /* \"#utility.yul\":23895:24314   */\n    tag_122:\n        /* \"#utility.yul\":24061:24065   */\n      0x00\n        /* \"#utility.yul\":24099:24101   */\n      0x20\n        /* \"#utility.yul\":24088:24097   */\n      dup3\n        /* \"#utility.yul\":24084:24102   */\n      add\n        /* \"#utility.yul\":24076:24102   */\n      swap1\n      pop\n        /* \"#utility.yul\":24148:24157   */\n      dup2\n        /* \"#utility.yul\":24142:24146   */\n      dup2\n        /* \"#utility.yul\":24138:24158   */\n      sub\n        /* \"#utility.yul\":24134:24135   */\n      0x00\n        /* \"#utility.yul\":24123:24132   */\n      dup4\n        /* \"#utility.yul\":24119:24136   */\n      add\n        /* \"#utility.yul\":24112:24159   */\n      mstore\n        /* \"#utility.yul\":24176:24307   */\n      tag_479\n        /* \"#utility.yul\":24302:24306   */\n      dup2\n        /* \"#utility.yul\":24176:24307   */\n      tag_241\n      jump\t// in\n    tag_479:\n        /* \"#utility.yul\":24168:24307   */\n      swap1\n      pop\n        /* \"#utility.yul\":23895:24314   */\n      swap2\n      swap1\n      pop\n      jump\t// out\n        /* \"#utility.yul\":24320:24493   */\n    tag_242:\n        /* \"#utility.yul\":24460:24485   */\n      0x436f6e74656e742063616e6e6f7420626520656d707479000000000000000000\n        /* \"#utility.yul\":24456:24457   */\n      0x00\n        /* \"#utility.yul\":24448:24454   */\n      dup3\n        /* \"#utility.yul\":24444:24458   */\n      add\n        /* \"#utility.yul\":24437:24486   */\n      mstore\n        /* \"#utility.yul\":24320:24493   */\n      pop\n      jump\t// out\n        /* \"#utility.yul\":24499:24865   */\n    tag_243:\n        /* \"#utility.yul\":24641:24644   */\n      0x00\n        /* \"#utility.yul\":24662:24729   */\n      tag_482\n        /* \"#utility.yul\":24726:24728   */\n      0x17\n        /* \"#utility.yul\":24721:24724   */\n      dup4\n        /* \"#utility.yul\":24662:24729   */\n      tag_190\n      jump\t// in\n    tag_482:\n        /* \"#utility.yul\":24655:24729   */\n      swap2\n      pop\n        /* \"#utility.yul\":24738:24831   */\n      tag_483\n        /* \"#utility.yul\":24827:24830   */\n      dup3\n        /* \"#utility.yul\":24738:24831   */\n      tag_242\n      jump\t// in\n    tag_483:\n        /* \"#utility.yul\":24856:24858   */\n      0x20\n        /* \"#utility.yul\":24851:24854   */\n      dup3\n        /* \"#utility.yul\":24847:24859   */\n      add\n        /* \"#utility.yul\":24840:24859   */\n      swap1\n      pop\n        /* \"#utility.yul\":24499:24865   */\n      swap2\n      swap1\n      pop\n      jump\t// out\n        /* \"#utility.yul\":24871:25290   */\n    tag_139:\n        /* \"#utility.yul\":25037:25041   */\n      0x00\n        /* \"#utility.yul\":25075:25077   */\n      0x20\n        /* \"#utility.yul\":25064:25073   */\n      dup3\n        /* \"#utility.yul\":25060:25078   */\n      add\n        /* \"#utility.yul\":25052:25078   */\n      swap1\n      pop\n        /* \"#utility.yul\":25124:25133   */\n      dup2\n        /* \"#utility.yul\":25118:25122   */\n      dup2\n        /* \"#utility.yul\":25114:25134   */\n      sub\n        /* \"#utility.yul\":25110:25111   */\n      0x00\n        /* \"#utility.yul\":25099:25108   */\n      dup4\n        /* \"#utility.yul\":25095:25112   */\n      add\n        /* \"#utility.yul\":25088:25135   */\n      mstore\n        /* \"#utility.yul\":25152:25283   */\n      tag_485\n        /* \"#utility.yul\":25278:25282   */\n      dup2\n        /* \"#utility.yul\":25152:25283   */\n      tag_243\n      jump\t// in\n    tag_485:\n        /* \"#utility.yul\":25144:25283   */\n      swap1\n      pop\n        /* \"#utility.yul\":24871:25290   */\n      swap2\n      swap1\n      pop\n      jump\t// out\n        /* \"#utility.yul\":25296:25476   */\n    tag_244:\n        /* \"#utility.yul\":25436:25468   */\n      0x496e73756666696369656e7420657468657220666f7220706f7374696e670000\n        /* \"#utility.yul\":25432:25433   */\n      0x00\n        /* \"#utility.yul\":25424:25430   */\n      dup3\n        /* \"#utility.yul\":25420:25434   */\n      add\n        /* \"#utility.yul\":25413:25469   */\n      mstore\n        /* \"#utility.yul\":25296:25476   */\n      pop\n      jump\t// out\n        /* \"#utility.yul\":25482:25848   */\n    tag_245:\n        /* \"#utility.yul\":25624:25627   */\n      0x00\n        /* \"#utility.yul\":25645:25712   */\n      tag_488\n        /* \"#utility.yul\":25709:25711   */\n      0x1e\n        /* \"#utility.yul\":25704:25707   */\n      dup4\n        /* \"#utility.yul\":25645:25712   */\n      tag_190\n      jump\t// in\n    tag_488:\n        /* \"#utility.yul\":25638:25712   */\n      swap2\n      pop\n        /* \"#utility.yul\":25721:25814   */\n      tag_489\n        /* \"#utility.yul\":25810:25813   */\n      dup3\n        /* \"#utility.yul\":25721:25814   */\n      tag_244\n      jump\t// in\n    tag_489:\n        /* \"#utility.yul\":25839:25841   */\n      0x20\n        /* \"#utility.yul\":25834:25837   */\n      dup3\n        /* \"#utility.yul\":25830:25842   */\n      add\n        /* \"#utility.yul\":25823:25842   */\n      swap1\n      pop\n        /* \"#utility.yul\":25482:25848   */\n      swap2\n      swap1\n      pop\n      jump\t// out\n        /* \"#utility.yul\":25854:26273   */\n    tag_142:\n        /* \"#utility.yul\":26020:26024   */\n      0x00\n        /* \"#utility.yul\":26058:26060   */\n      0x20\n        /* \"#utility.yul\":26047:26056   */\n      dup3\n        /* \"#utility.yul\":26043:26061   */\n      add\n        /* \"#utility.yul\":26035:26061   */\n      swap1\n      pop\n        /* \"#utility.yul\":26107:26116   */\n      dup2\n        /* \"#utility.yul\":26101:26105   */\n      dup2\n        /* \"#utility.yul\":26097:26117   */\n      sub\n        /* \"#utility.yul\":26093:26094   */\n      0x00\n        /* \"#utility.yul\":26082:26091   */\n      dup4\n        /* \"#utility.yul\":26078:26095   */\n      add\n        /* \"#utility.yul\":26071:26118   */\n      mstore\n        /* \"#utility.yul\":26135:26266   */\n      tag_491\n        /* \"#utility.yul\":26261:26265   */\n      dup2\n        /* \"#utility.yul\":26135:26266   */\n      tag_245\n      jump\t// in\n    tag_491:\n        /* \"#utility.yul\":26127:26266   */\n      swap1\n      pop\n        /* \"#utility.yul\":25854:26273   */\n      swap2\n      swap1\n      pop\n      jump\t// out\n        /* \"#utility.yul\":26279:26812   */\n    tag_152:\n        /* \"#utility.yul\":26448:26452   */\n      0x00\n        /* \"#utility.yul\":26486:26488   */\n      0x60\n        /* \"#utility.yul\":26475:26484   */\n      dup3\n        /* \"#utility.yul\":26471:26489   */\n      add\n        /* \"#utility.yul\":26463:26489   */\n      swap1\n      pop\n        /* \"#utility.yul\":26499:26570   */\n      tag_493\n        /* \"#utility.yul\":26567:26568   */\n      0x00\n        /* \"#utility.yul\":26556:26565   */\n      dup4\n        /* \"#utility.yul\":26552:26569   */\n      add\n        /* \"#utility.yul\":26543:26549   */\n      dup7\n        /* \"#utility.yul\":26499:26570   */\n      tag_194\n      jump\t// in\n    tag_493:\n        /* \"#utility.yul\":26580:26652   */\n      tag_494\n        /* \"#utility.yul\":26648:26650   */\n      0x20\n        /* \"#utility.yul\":26637:26646   */\n      dup4\n        /* \"#utility.yul\":26633:26651   */\n      add\n        /* \"#utility.yul\":26624:26630   */\n      dup6\n        /* \"#utility.yul\":26580:26652   */\n      tag_188\n      jump\t// in\n    tag_494:\n        /* \"#utility.yul\":26699:26708   */\n      dup2\n        /* \"#utility.yul\":26693:26697   */\n      dup2\n        /* \"#utility.yul\":26689:26709   */\n      sub\n        /* \"#utility.yul\":26684:26686   */\n      0x40\n        /* \"#utility.yul\":26673:26682   */\n      dup4\n        /* \"#utility.yul\":26669:26687   */\n      add\n        /* \"#utility.yul\":26662:26710   */\n      mstore\n        /* \"#utility.yul\":26727:26805   */\n      tag_495\n        /* \"#utility.yul\":26800:26804   */\n      dup2\n        /* \"#utility.yul\":26791:26797   */\n      dup5\n        /* \"#utility.yul\":26727:26805   */\n      tag_193\n      jump\t// in\n    tag_495:\n        /* \"#utility.yul\":26719:26805   */\n      swap1\n      pop\n        /* \"#utility.yul\":26279:26812   */\n      swap5\n      swap4\n      pop\n      pop\n      pop\n      pop\n      jump\t// out\n\n    auxdata: 0xa26469706673582212202ed4c31a9d862c9868c6bfea378a3a6b018e590bcea7afe7586e7c227293c9da64736f6c63430008160033\n}\n",
				"bytecode": {
					"linkReferences": {},
					"object": "608060405234801561000f575f80fd5b50335f806101000a81548173ffffffffffffffffffffffffffffffffffffffff021916908373ffffffffffffffffffffffffffffffffffffffff160217905550611bdd8061005c5f395ff3fe6080604052600436106100a6575f3560e01c80637362377b116100635780637362377b146101b45780638da5cb5b146101ca578063ad77c4d0146101f4578063bbe156271461021e578063c7303c611461025b578063d524ff7614610277576100a6565b80630b1e7f83146100aa57806340731c24146100e957806340e069791461012a57806364732154146101525780636a5718591461016e578063725009d314610198575b5f80fd5b3480156100b5575f80fd5b506100d060048036038101906100cb9190610eb4565b6102b3565b6040516100e09493929190610fb7565b60405180910390f35b3480156100f4575f80fd5b5061010f600480360381019061010a9190610eb4565b610384565b60405161012196959493929190611104565b60405180910390f35b348015610135575f80fd5b50610150600480360381019061014b919061129d565b61054b565b005b61016c60048036038101906101679190611313565b6105b3565b005b348015610179575f80fd5b50610182610713565b60405161018f919061136d565b60405180910390f35b6101b260048036038101906101ad9190610eb4565b610719565b005b3480156101bf575f80fd5b506101c861085d565b005b3480156101d5575f80fd5b506101de61094f565b6040516101eb9190611386565b60405180910390f35b3480156101ff575f80fd5b50610208610972565b604051610215919061136d565b60405180910390f35b348015610229575f80fd5b50610244600480360381019061023f91906113c9565b61097b565b6040516102529291906113f4565b60405180910390f35b61027560048036038101906102709190611429565b610aa7565b005b348015610282575f80fd5b5061029d60048036038101906102989190610eb4565b610cb6565b6040516102aa9190611470565b60405180910390f35b6003602052805f5260405f205f91509050805f015f9054906101000a900473ffffffffffffffffffffffffffffffffffffffff16908060010180546102f7906114bd565b80601f0160208091040260200160405190810160405280929190818152602001828054610323906114bd565b801561036e5780601f106103455761010080835404028352916020019161036e565b820191905f5260205f20905b81548152906001019060200180831161035157829003601f168201915b5050505050908060020154908060030154905084565b5f60605f805f60605f60035f8981526020019081526020015f209050805f015f9054906101000a900473ffffffffffffffffffffffffffffffffffffffff1681600101826002015483600301548460040180549050856004018480546103e9906114bd565b80601f0160208091040260200160405190810160405280929190818152602001828054610415906114bd565b80156104605780601f1061043757610100808354040283529160200191610460565b820191905f5260205f20905b81548152906001019060200180831161044357829003601f168201915b5050505050945080805480602002602001604051908101604052809291908181526020015f905b8282101561052f578382905f5260205f200180546104a4906114bd565b80601f01602080910402602001604051908101604052809291908181526020018280546104d0906114bd565b801561051b5780601f106104f25761010080835404028352916020019161051b565b820191905f5260205f20905b8154815290600101906020018083116104fe57829003601f168201915b505050505081526020019060010190610487565b5050505090509650965096509650965096505091939550919395565b5f60025f3373ffffffffffffffffffffffffffffffffffffffff1673ffffffffffffffffffffffffffffffffffffffff1681526020019081526020015f20905082815f01908161059b919061168a565b50818160010190816105ad919061168a565b50505050565b5f60035f8481526020019081526020015f2090505f73ffffffffffffffffffffffffffffffffffffffff16815f015f9054906101000a900473ffffffffffffffffffffffffffffffffffffffff1673ffffffffffffffffffffffffffffffffffffffff1603610657576040517f08c379a000000000000000000000000000000000000000000000000000000000815260040161064e906117a3565b60405180910390fd5b662386f26fc100003410156106a1576040517f08c379a000000000000000000000000000000000000000000000000000000000815260040161069890611831565b60405180910390fd5b8060040182908060018154018082558091505060019003905f5260205f20015f9091909190915090816106d4919061168a565b507f9c1033b06ea0dbddc7885a63d2534017794bac1be72a3f67d4fd997c9296ca438333604051610706929190611899565b60405180910390a1505050565b60015481565b5f60035f8381526020019081526020015f2090505f73ffffffffffffffffffffffffffffffffffffffff16815f015f9054906101000a900473ffffffffffffffffffffffffffffffffffffffff1673ffffffffffffffffffffffffffffffffffffffff16036107bd576040517f08c379a00000000000000000000000000000000000000000000000000000000081526004016107b4906117a3565b60405180910390fd5b6611c37937e08000341015610807576040517f08c379a00000000000000000000000000000000000000000000000000000000081526004016107fe9061191d565b60405180910390fd5b806003015f81548092919061081b90611968565b91905055507f9c1033b06ea0dbddc7885a63d2534017794bac1be72a3f67d4fd997c9296ca4382336040516108519291906119f9565b60405180910390a15050565b5f8054906101000a900473ffffffffffffffffffffffffffffffffffffffff1673ffffffffffffffffffffffffffffffffffffffff163373ffffffffffffffffffffffffffffffffffffffff16146108ea576040517f08c379a00000000000000000000000000000000000000000000000000000000081526004016108e190611a7d565b60405180910390fd5b5f8054906101000a900473ffffffffffffffffffffffffffffffffffffffff1673ffffffffffffffffffffffffffffffffffffffff166108fc4790811502906040515f60405180830381858888f1935050505015801561094c573d5f803e3d5ffd5b50565b5f8054906101000a900473ffffffffffffffffffffffffffffffffffffffff1681565b5f600154905090565b6002602052805f5260405f205f91509050805f01805461099a906114bd565b80601f01602080910402602001604051908101604052809291908181526020018280546109c6906114bd565b8015610a115780601f106109e857610100808354040283529160200191610a11565b820191905f5260205f20905b8154815290600101906020018083116109f457829003601f168201915b505050505090806001018054610a26906114bd565b80601f0160208091040260200160405190810160405280929190818152602001828054610a52906114bd565b8015610a9d5780601f10610a7457610100808354040283529160200191610a9d565b820191905f5260205f20905b815481529060010190602001808311610a8057829003601f168201915b5050505050905082565b5f815111610aea576040517f08c379a0000000000000000000000000000000000000000000000000000000008152600401610ae190611ae5565b60405180910390fd5b662386f26fc10000341015610b34576040517f08c379a0000000000000000000000000000000000000000000000000000000008152600401610b2b90611b4d565b60405180910390fd5b6040518060a001604052803373ffffffffffffffffffffffffffffffffffffffff1681526020018281526020014281526020015f81526020015f67ffffffffffffffff811115610b8757610b86611179565b5b604051908082528060200260200182016040528015610bba57816020015b6060815260200190600190039081610ba55790505b5081525060035f60015481526020019081526020015f205f820151815f015f6101000a81548173ffffffffffffffffffffffffffffffffffffffff021916908373ffffffffffffffffffffffffffffffffffffffff1602179055506020820151816001019081610c2a919061168a565b5060408201518160020155606082015181600301556080820151816004019080519060200190610c5b929190610d9e565b509050507f8e40a51278abe2f4b410c0a96ff0bdd024b22666ca334062bf72afd596984bd66001543383604051610c9493929190611b6b565b60405180910390a160015f815480929190610cae90611968565b919050555050565b606060035f8381526020019081526020015f20600401805480602002602001604051908101604052809291908181526020015f905b82821015610d93578382905f5260205f20018054610d08906114bd565b80601f0160208091040260200160405190810160405280929190818152602001828054610d34906114bd565b8015610d7f5780601f10610d5657610100808354040283529160200191610d7f565b820191905f5260205f20905b815481529060010190602001808311610d6257829003601f168201915b505050505081526020019060010190610ceb565b505050509050919050565b828054828255905f5260205f20908101928215610de4579160200282015b82811115610de3578251829081610dd3919061168a565b5091602001919060010190610dbc565b5b509050610df19190610df5565b5090565b5b80821115610e14575f8181610e0b9190610e18565b50600101610df6565b5090565b508054610e24906114bd565b5f825580601f10610e355750610e52565b601f0160209004905f5260205f2090810190610e519190610e55565b5b50565b5b80821115610e6c575f815f905550600101610e56565b5090565b5f604051905090565b5f80fd5b5f80fd5b5f819050919050565b610e9381610e81565b8114610e9d575f80fd5b50565b5f81359050610eae81610e8a565b92915050565b5f60208284031215610ec957610ec8610e79565b5b5f610ed684828501610ea0565b91505092915050565b5f73ffffffffffffffffffffffffffffffffffffffff82169050919050565b5f610f0882610edf565b9050919050565b610f1881610efe565b82525050565b5f81519050919050565b5f82825260208201905092915050565b5f5b83811015610f55578082015181840152602081019050610f3a565b5f8484015250505050565b5f601f19601f8301169050919050565b5f610f7a82610f1e565b610f848185610f28565b9350610f94818560208601610f38565b610f9d81610f60565b840191505092915050565b610fb181610e81565b82525050565b5f608082019050610fca5f830187610f0f565b8181036020830152610fdc8186610f70565b9050610feb6040830185610fa8565b610ff86060830184610fa8565b95945050505050565b5f81519050919050565b5f82825260208201905092915050565b5f819050602082019050919050565b5f82825260208201905092915050565b5f61104482610f1e565b61104e818561102a565b935061105e818560208601610f38565b61106781610f60565b840191505092915050565b5f61107d838361103a565b905092915050565b5f602082019050919050565b5f61109b82611001565b6110a5818561100b565b9350836020820285016110b78561101b565b805f5b858110156110f257848403895281516110d38582611072565b94506110de83611085565b925060208a019950506001810190506110ba565b50829750879550505050505092915050565b5f60c0820190506111175f830189610f0f565b81810360208301526111298188610f70565b90506111386040830187610fa8565b6111456060830186610fa8565b6111526080830185610fa8565b81810360a08301526111648184611091565b9050979650505050505050565b5f80fd5b5f80fd5b7f4e487b71000000000000000000000000000000000000000000000000000000005f52604160045260245ffd5b6111af82610f60565b810181811067ffffffffffffffff821117156111ce576111cd611179565b5b80604052505050565b5f6111e0610e70565b90506111ec82826111a6565b919050565b5f67ffffffffffffffff82111561120b5761120a611179565b5b61121482610f60565b9050602081019050919050565b828183375f83830152505050565b5f61124161123c846111f1565b6111d7565b90508281526020810184848401111561125d5761125c611175565b5b611268848285611221565b509392505050565b5f82601f83011261128457611283611171565b5b813561129484826020860161122f565b91505092915050565b5f80604083850312156112b3576112b2610e79565b5b5f83013567ffffffffffffffff8111156112d0576112cf610e7d565b5b6112dc85828601611270565b925050602083013567ffffffffffffffff8111156112fd576112fc610e7d565b5b61130985828601611270565b9150509250929050565b5f806040838503121561132957611328610e79565b5b5f61133685828601610ea0565b925050602083013567ffffffffffffffff81111561135757611356610e7d565b5b61136385828601611270565b9150509250929050565b5f6020820190506113805f830184610fa8565b92915050565b5f6020820190506113995f830184610f0f565b92915050565b6113a881610efe565b81146113b2575f80fd5b50565b5f813590506113c38161139f565b92915050565b5f602082840312156113de576113dd610e79565b5b5f6113eb848285016113b5565b91505092915050565b5f6040820190508181035f83015261140c8185610f70565b905081810360208301526114208184610f70565b90509392505050565b5f6020828403121561143e5761143d610e79565b5b5f82013567ffffffffffffffff81111561145b5761145a610e7d565b5b61146784828501611270565b91505092915050565b5f6020820190508181035f8301526114888184611091565b905092915050565b7f4e487b71000000000000000000000000000000000000000000000000000000005f52602260045260245ffd5b5f60028204905060018216806114d457607f821691505b6020821081036114e7576114e6611490565b5b50919050565b5f819050815f5260205f209050919050565b5f6020601f8301049050919050565b5f82821b905092915050565b5f600883026115497fffffffffffffffffffffffffffffffffffffffffffffffffffffffffffffffff8261150e565b611553868361150e565b95508019841693508086168417925050509392505050565b5f819050919050565b5f61158e61158961158484610e81565b61156b565b610e81565b9050919050565b5f819050919050565b6115a783611574565b6115bb6115b382611595565b84845461151a565b825550505050565b5f90565b6115cf6115c3565b6115da81848461159e565b505050565b5b818110156115fd576115f25f826115c7565b6001810190506115e0565b5050565b601f82111561164257611613816114ed565b61161c846114ff565b8101602085101561162b578190505b61163f611637856114ff565b8301826115df565b50505b505050565b5f82821c905092915050565b5f6116625f1984600802611647565b1980831691505092915050565b5f61167a8383611653565b9150826002028217905092915050565b61169382610f1e565b67ffffffffffffffff8111156116ac576116ab611179565b5b6116b682546114bd565b6116c1828285611601565b5f60209050601f8311600181146116f2575f84156116e0578287015190505b6116ea858261166f565b865550611751565b601f198416611700866114ed565b5f5b8281101561172757848901518255600182019150602085019450602081019050611702565b868310156117445784890151611740601f891682611653565b8355505b6001600288020188555050505b505050505050565b7f506f737420646f6573206e6f74206578697374000000000000000000000000005f82015250565b5f61178d601383610f28565b915061179882611759565b602082019050919050565b5f6020820190508181035f8301526117ba81611781565b9050919050565b7f496e73756666696369656e7420657468657220666f7220636f6d6d656e74696e5f8201527f6700000000000000000000000000000000000000000000000000000000000000602082015250565b5f61181b602183610f28565b9150611826826117c1565b604082019050919050565b5f6020820190508181035f8301526118488161180f565b9050919050565b7f436f6d6d656e74000000000000000000000000000000000000000000000000005f82015250565b5f611883600783610f28565b915061188e8261184f565b602082019050919050565b5f6060820190506118ac5f830185610fa8565b6118b96020830184610f0f565b81810360408301526118ca81611877565b90509392505050565b7f496e73756666696369656e7420657468657220666f72206c696b696e670000005f82015250565b5f611907601d83610f28565b9150611912826118d3565b602082019050919050565b5f6020820190508181035f830152611934816118fb565b9050919050565b7f4e487b71000000000000000000000000000000000000000000000000000000005f52601160045260245ffd5b5f61197282610e81565b91507fffffffffffffffffffffffffffffffffffffffffffffffffffffffffffffffff82036119a4576119a361193b565b5b600182019050919050565b7f4c696b65000000000000000000000000000000000000000000000000000000005f82015250565b5f6119e3600483610f28565b91506119ee826119af565b602082019050919050565b5f606082019050611a0c5f830185610fa8565b611a196020830184610f0f565b8181036040830152611a2a816119d7565b90509392505050565b7f4f6e6c79206f776e65722063616e2077697468647261770000000000000000005f82015250565b5f611a67601783610f28565b9150611a7282611a33565b602082019050919050565b5f6020820190508181035f830152611a9481611a5b565b9050919050565b7f436f6e74656e742063616e6e6f7420626520656d7074790000000000000000005f82015250565b5f611acf601783610f28565b9150611ada82611a9b565b602082019050919050565b5f6020820190508181035f830152611afc81611ac3565b9050919050565b7f496e73756666696369656e7420657468657220666f7220706f7374696e6700005f82015250565b5f611b37601e83610f28565b9150611b4282611b03565b602082019050919050565b5f6020820190508181035f830152611b6481611b2b565b9050919050565b5f606082019050611b7e5f830186610fa8565b611b8b6020830185610f0f565b8181036040830152611b9d8184610f70565b905094935050505056fea26469706673582212202ed4c31a9d862c9868c6bfea378a3a6b018e590bcea7afe7586e7c227293c9da64736f6c63430008160033",
					"opcodes": "PUSH1 0x80 PUSH1 0x40 MSTORE CALLVALUE DUP1 ISZERO PUSH2 0xF JUMPI PUSH0 DUP1 REVERT JUMPDEST POP CALLER PUSH0 DUP1 PUSH2 0x100 EXP DUP2 SLOAD DUP2 PUSH20 0xFFFFFFFFFFFFFFFFFFFFFFFFFFFFFFFFFFFFFFFF MUL NOT AND SWAP1 DUP4 PUSH20 0xFFFFFFFFFFFFFFFFFFFFFFFFFFFFFFFFFFFFFFFF AND MUL OR SWAP1 SSTORE POP PUSH2 0x1BDD DUP1 PUSH2 0x5C PUSH0 CODECOPY PUSH0 RETURN INVALID PUSH1 0x80 PUSH1 0x40 MSTORE PUSH1 0x4 CALLDATASIZE LT PUSH2 0xA6 JUMPI PUSH0 CALLDATALOAD PUSH1 0xE0 SHR DUP1 PUSH4 0x7362377B GT PUSH2 0x63 JUMPI DUP1 PUSH4 0x7362377B EQ PUSH2 0x1B4 JUMPI DUP1 PUSH4 0x8DA5CB5B EQ PUSH2 0x1CA JUMPI DUP1 PUSH4 0xAD77C4D0 EQ PUSH2 0x1F4 JUMPI DUP1 PUSH4 0xBBE15627 EQ PUSH2 0x21E JUMPI DUP1 PUSH4 0xC7303C61 EQ PUSH2 0x25B JUMPI DUP1 PUSH4 0xD524FF76 EQ PUSH2 0x277 JUMPI PUSH2 0xA6 JUMP JUMPDEST DUP1 PUSH4 0xB1E7F83 EQ PUSH2 0xAA JUMPI DUP1 PUSH4 0x40731C24 EQ PUSH2 0xE9 JUMPI DUP1 PUSH4 0x40E06979 EQ PUSH2 0x12A JUMPI DUP1 PUSH4 0x64732154 EQ PUSH2 0x152 JUMPI DUP1 PUSH4 0x6A571859 EQ PUSH2 0x16E JUMPI DUP1 PUSH4 0x725009D3 EQ PUSH2 0x198 JUMPI JUMPDEST PUSH0 DUP1 REVERT JUMPDEST CALLVALUE DUP1 ISZERO PUSH2 0xB5 JUMPI PUSH0 DUP1 REVERT JUMPDEST POP PUSH2 0xD0 PUSH1 0x4 DUP1 CALLDATASIZE SUB DUP2 ADD SWAP1 PUSH2 0xCB SWAP2 SWAP1 PUSH2 0xEB4 JUMP JUMPDEST PUSH2 0x2B3 JUMP JUMPDEST PUSH1 0x40 MLOAD PUSH2 0xE0 SWAP5 SWAP4 SWAP3 SWAP2 SWAP1 PUSH2 0xFB7 JUMP JUMPDEST PUSH1 0x40 MLOAD DUP1 SWAP2 SUB SWAP1 RETURN JUMPDEST CALLVALUE DUP1 ISZERO PUSH2 0xF4 JUMPI PUSH0 DUP1 REVERT JUMPDEST POP PUSH2 0x10F PUSH1 0x4 DUP1 CALLDATASIZE SUB DUP2 ADD SWAP1 PUSH2 0x10A SWAP2 SWAP1 PUSH2 0xEB4 JUMP JUMPDEST PUSH2 0x384 JUMP JUMPDEST PUSH1 0x40 MLOAD PUSH2 0x121 SWAP7 SWAP6 SWAP5 SWAP4 SWAP3 SWAP2 SWAP1 PUSH2 0x1104 JUMP JUMPDEST PUSH1 0x40 MLOAD DUP1 SWAP2 SUB SWAP1 RETURN JUMPDEST CALLVALUE DUP1 ISZERO PUSH2 0x135 JUMPI PUSH0 DUP1 REVERT JUMPDEST POP PUSH2 0x150 PUSH1 0x4 DUP1 CALLDATASIZE SUB DUP2 ADD SWAP1 PUSH2 0x14B SWAP2 SWAP1 PUSH2 0x129D JUMP JUMPDEST PUSH2 0x54B JUMP JUMPDEST STOP JUMPDEST PUSH2 0x16C PUSH1 0x4 DUP1 CALLDATASIZE SUB DUP2 ADD SWAP1 PUSH2 0x167 SWAP2 SWAP1 PUSH2 0x1313 JUMP JUMPDEST PUSH2 0x5B3 JUMP JUMPDEST STOP JUMPDEST CALLVALUE DUP1 ISZERO PUSH2 0x179 JUMPI PUSH0 DUP1 REVERT JUMPDEST POP PUSH2 0x182 PUSH2 0x713 JUMP JUMPDEST PUSH1 0x40 MLOAD PUSH2 0x18F SWAP2 SWAP1 PUSH2 0x136D JUMP JUMPDEST PUSH1 0x40 MLOAD DUP1 SWAP2 SUB SWAP1 RETURN JUMPDEST PUSH2 0x1B2 PUSH1 0x4 DUP1 CALLDATASIZE SUB DUP2 ADD SWAP1 PUSH2 0x1AD SWAP2 SWAP1 PUSH2 0xEB4 JUMP JUMPDEST PUSH2 0x719 JUMP JUMPDEST STOP JUMPDEST CALLVALUE DUP1 ISZERO PUSH2 0x1BF JUMPI PUSH0 DUP1 REVERT JUMPDEST POP PUSH2 0x1C8 PUSH2 0x85D JUMP JUMPDEST STOP JUMPDEST CALLVALUE DUP1 ISZERO PUSH2 0x1D5 JUMPI PUSH0 DUP1 REVERT JUMPDEST POP PUSH2 0x1DE PUSH2 0x94F JUMP JUMPDEST PUSH1 0x40 MLOAD PUSH2 0x1EB SWAP2 SWAP1 PUSH2 0x1386 JUMP JUMPDEST PUSH1 0x40 MLOAD DUP1 SWAP2 SUB SWAP1 RETURN JUMPDEST CALLVALUE DUP1 ISZERO PUSH2 0x1FF JUMPI PUSH0 DUP1 REVERT JUMPDEST POP PUSH2 0x208 PUSH2 0x972 JUMP JUMPDEST PUSH1 0x40 MLOAD PUSH2 0x215 SWAP2 SWAP1 PUSH2 0x136D JUMP JUMPDEST PUSH1 0x40 MLOAD DUP1 SWAP2 SUB SWAP1 RETURN JUMPDEST CALLVALUE DUP1 ISZERO PUSH2 0x229 JUMPI PUSH0 DUP1 REVERT JUMPDEST POP PUSH2 0x244 PUSH1 0x4 DUP1 CALLDATASIZE SUB DUP2 ADD SWAP1 PUSH2 0x23F SWAP2 SWAP1 PUSH2 0x13C9 JUMP JUMPDEST PUSH2 0x97B JUMP JUMPDEST PUSH1 0x40 MLOAD PUSH2 0x252 SWAP3 SWAP2 SWAP1 PUSH2 0x13F4 JUMP JUMPDEST PUSH1 0x40 MLOAD DUP1 SWAP2 SUB SWAP1 RETURN JUMPDEST PUSH2 0x275 PUSH1 0x4 DUP1 CALLDATASIZE SUB DUP2 ADD SWAP1 PUSH2 0x270 SWAP2 SWAP1 PUSH2 0x1429 JUMP JUMPDEST PUSH2 0xAA7 JUMP JUMPDEST STOP JUMPDEST CALLVALUE DUP1 ISZERO PUSH2 0x282 JUMPI PUSH0 DUP1 REVERT JUMPDEST POP PUSH2 0x29D PUSH1 0x4 DUP1 CALLDATASIZE SUB DUP2 ADD SWAP1 PUSH2 0x298 SWAP2 SWAP1 PUSH2 0xEB4 JUMP JUMPDEST PUSH2 0xCB6 JUMP JUMPDEST PUSH1 0x40 MLOAD PUSH2 0x2AA SWAP2 SWAP1 PUSH2 0x1470 JUMP JUMPDEST PUSH1 0x40 MLOAD DUP1 SWAP2 SUB SWAP1 RETURN JUMPDEST PUSH1 0x3 PUSH1 0x20 MSTORE DUP1 PUSH0 MSTORE PUSH1 0x40 PUSH0 KECCAK256 PUSH0 SWAP2 POP SWAP1 POP DUP1 PUSH0 ADD PUSH0 SWAP1 SLOAD SWAP1 PUSH2 0x100 EXP SWAP1 DIV PUSH20 0xFFFFFFFFFFFFFFFFFFFFFFFFFFFFFFFFFFFFFFFF AND SWAP1 DUP1 PUSH1 0x1 ADD DUP1 SLOAD PUSH2 0x2F7 SWAP1 PUSH2 0x14BD JUMP JUMPDEST DUP1 PUSH1 0x1F ADD PUSH1 0x20 DUP1 SWAP2 DIV MUL PUSH1 0x20 ADD PUSH1 0x40 MLOAD SWAP1 DUP2 ADD PUSH1 0x40 MSTORE DUP1 SWAP3 SWAP2 SWAP1 DUP2 DUP2 MSTORE PUSH1 0x20 ADD DUP3 DUP1 SLOAD PUSH2 0x323 SWAP1 PUSH2 0x14BD JUMP JUMPDEST DUP1 ISZERO PUSH2 0x36E JUMPI DUP1 PUSH1 0x1F LT PUSH2 0x345 JUMPI PUSH2 0x100 DUP1 DUP4 SLOAD DIV MUL DUP4 MSTORE SWAP2 PUSH1 0x20 ADD SWAP2 PUSH2 0x36E JUMP JUMPDEST DUP3 ADD SWAP2 SWAP1 PUSH0 MSTORE PUSH1 0x20 PUSH0 KECCAK256 SWAP1 JUMPDEST DUP2 SLOAD DUP2 MSTORE SWAP1 PUSH1 0x1 ADD SWAP1 PUSH1 0x20 ADD DUP1 DUP4 GT PUSH2 0x351 JUMPI DUP3 SWAP1 SUB PUSH1 0x1F AND DUP3 ADD SWAP2 JUMPDEST POP POP POP POP POP SWAP1 DUP1 PUSH1 0x2 ADD SLOAD SWAP1 DUP1 PUSH1 0x3 ADD SLOAD SWAP1 POP DUP5 JUMP JUMPDEST PUSH0 PUSH1 0x60 PUSH0 DUP1 PUSH0 PUSH1 0x60 PUSH0 PUSH1 0x3 PUSH0 DUP10 DUP2 MSTORE PUSH1 0x20 ADD SWAP1 DUP2 MSTORE PUSH1 0x20 ADD PUSH0 KECCAK256 SWAP1 POP DUP1 PUSH0 ADD PUSH0 SWAP1 SLOAD SWAP1 PUSH2 0x100 EXP SWAP1 DIV PUSH20 0xFFFFFFFFFFFFFFFFFFFFFFFFFFFFFFFFFFFFFFFF AND DUP2 PUSH1 0x1 ADD DUP3 PUSH1 0x2 ADD SLOAD DUP4 PUSH1 0x3 ADD SLOAD DUP5 PUSH1 0x4 ADD DUP1 SLOAD SWAP1 POP DUP6 PUSH1 0x4 ADD DUP5 DUP1 SLOAD PUSH2 0x3E9 SWAP1 PUSH2 0x14BD JUMP JUMPDEST DUP1 PUSH1 0x1F ADD PUSH1 0x20 DUP1 SWAP2 DIV MUL PUSH1 0x20 ADD PUSH1 0x40 MLOAD SWAP1 DUP2 ADD PUSH1 0x40 MSTORE DUP1 SWAP3 SWAP2 SWAP1 DUP2 DUP2 MSTORE PUSH1 0x20 ADD DUP3 DUP1 SLOAD PUSH2 0x415 SWAP1 PUSH2 0x14BD JUMP JUMPDEST DUP1 ISZERO PUSH2 0x460 JUMPI DUP1 PUSH1 0x1F LT PUSH2 0x437 JUMPI PUSH2 0x100 DUP1 DUP4 SLOAD DIV MUL DUP4 MSTORE SWAP2 PUSH1 0x20 ADD SWAP2 PUSH2 0x460 JUMP JUMPDEST DUP3 ADD SWAP2 SWAP1 PUSH0 MSTORE PUSH1 0x20 PUSH0 KECCAK256 SWAP1 JUMPDEST DUP2 SLOAD DUP2 MSTORE SWAP1 PUSH1 0x1 ADD SWAP1 PUSH1 0x20 ADD DUP1 DUP4 GT PUSH2 0x443 JUMPI DUP3 SWAP1 SUB PUSH1 0x1F AND DUP3 ADD SWAP2 JUMPDEST POP POP POP POP POP SWAP5 POP DUP1 DUP1 SLOAD DUP1 PUSH1 0x20 MUL PUSH1 0x20 ADD PUSH1 0x40 MLOAD SWAP1 DUP2 ADD PUSH1 0x40 MSTORE DUP1 SWAP3 SWAP2 SWAP1 DUP2 DUP2 MSTORE PUSH1 0x20 ADD PUSH0 SWAP1 JUMPDEST DUP3 DUP3 LT ISZERO PUSH2 0x52F JUMPI DUP4 DUP3 SWAP1 PUSH0 MSTORE PUSH1 0x20 PUSH0 KECCAK256 ADD DUP1 SLOAD PUSH2 0x4A4 SWAP1 PUSH2 0x14BD JUMP JUMPDEST DUP1 PUSH1 0x1F ADD PUSH1 0x20 DUP1 SWAP2 DIV MUL PUSH1 0x20 ADD PUSH1 0x40 MLOAD SWAP1 DUP2 ADD PUSH1 0x40 MSTORE DUP1 SWAP3 SWAP2 SWAP1 DUP2 DUP2 MSTORE PUSH1 0x20 ADD DUP3 DUP1 SLOAD PUSH2 0x4D0 SWAP1 PUSH2 0x14BD JUMP JUMPDEST DUP1 ISZERO PUSH2 0x51B JUMPI DUP1 PUSH1 0x1F LT PUSH2 0x4F2 JUMPI PUSH2 0x100 DUP1 DUP4 SLOAD DIV MUL DUP4 MSTORE SWAP2 PUSH1 0x20 ADD SWAP2 PUSH2 0x51B JUMP JUMPDEST DUP3 ADD SWAP2 SWAP1 PUSH0 MSTORE PUSH1 0x20 PUSH0 KECCAK256 SWAP1 JUMPDEST DUP2 SLOAD DUP2 MSTORE SWAP1 PUSH1 0x1 ADD SWAP1 PUSH1 0x20 ADD DUP1 DUP4 GT PUSH2 0x4FE JUMPI DUP3 SWAP1 SUB PUSH1 0x1F AND DUP3 ADD SWAP2 JUMPDEST POP POP POP POP POP DUP2 MSTORE PUSH1 0x20 ADD SWAP1 PUSH1 0x1 ADD SWAP1 PUSH2 0x487 JUMP JUMPDEST POP POP POP POP SWAP1 POP SWAP7 POP SWAP7 POP SWAP7 POP SWAP7 POP SWAP7 POP SWAP7 POP POP SWAP2 SWAP4 SWAP6 POP SWAP2 SWAP4 SWAP6 JUMP JUMPDEST PUSH0 PUSH1 0x2 PUSH0 CALLER PUSH20 0xFFFFFFFFFFFFFFFFFFFFFFFFFFFFFFFFFFFFFFFF AND PUSH20 0xFFFFFFFFFFFFFFFFFFFFFFFFFFFFFFFFFFFFFFFF AND DUP2 MSTORE PUSH1 0x20 ADD SWAP1 DUP2 MSTORE PUSH1 0x20 ADD PUSH0 KECCAK256 SWAP1 POP DUP3 DUP2 PUSH0 ADD SWAP1 DUP2 PUSH2 0x59B SWAP2 SWAP1 PUSH2 0x168A JUMP JUMPDEST POP DUP2 DUP2 PUSH1 0x1 ADD SWAP1 DUP2 PUSH2 0x5AD SWAP2 SWAP1 PUSH2 0x168A JUMP JUMPDEST POP POP POP POP JUMP JUMPDEST PUSH0 PUSH1 0x3 PUSH0 DUP5 DUP2 MSTORE PUSH1 0x20 ADD SWAP1 DUP2 MSTORE PUSH1 0x20 ADD PUSH0 KECCAK256 SWAP1 POP PUSH0 PUSH20 0xFFFFFFFFFFFFFFFFFFFFFFFFFFFFFFFFFFFFFFFF AND DUP2 PUSH0 ADD PUSH0 SWAP1 SLOAD SWAP1 PUSH2 0x100 EXP SWAP1 DIV PUSH20 0xFFFFFFFFFFFFFFFFFFFFFFFFFFFFFFFFFFFFFFFF AND PUSH20 0xFFFFFFFFFFFFFFFFFFFFFFFFFFFFFFFFFFFFFFFF AND SUB PUSH2 0x657 JUMPI PUSH1 0x40 MLOAD PUSH32 0x8C379A000000000000000000000000000000000000000000000000000000000 DUP2 MSTORE PUSH1 0x4 ADD PUSH2 0x64E SWAP1 PUSH2 0x17A3 JUMP JUMPDEST PUSH1 0x40 MLOAD DUP1 SWAP2 SUB SWAP1 REVERT JUMPDEST PUSH7 0x2386F26FC10000 CALLVALUE LT ISZERO PUSH2 0x6A1 JUMPI PUSH1 0x40 MLOAD PUSH32 0x8C379A000000000000000000000000000000000000000000000000000000000 DUP2 MSTORE PUSH1 0x4 ADD PUSH2 0x698 SWAP1 PUSH2 0x1831 JUMP JUMPDEST PUSH1 0x40 MLOAD DUP1 SWAP2 SUB SWAP1 REVERT JUMPDEST DUP1 PUSH1 0x4 ADD DUP3 SWAP1 DUP1 PUSH1 0x1 DUP2 SLOAD ADD DUP1 DUP3 SSTORE DUP1 SWAP2 POP POP PUSH1 0x1 SWAP1 SUB SWAP1 PUSH0 MSTORE PUSH1 0x20 PUSH0 KECCAK256 ADD PUSH0 SWAP1 SWAP2 SWAP1 SWAP2 SWAP1 SWAP2 POP SWAP1 DUP2 PUSH2 0x6D4 SWAP2 SWAP1 PUSH2 0x168A JUMP JUMPDEST POP PUSH32 0x9C1033B06EA0DBDDC7885A63D2534017794BAC1BE72A3F67D4FD997C9296CA43 DUP4 CALLER PUSH1 0x40 MLOAD PUSH2 0x706 SWAP3 SWAP2 SWAP1 PUSH2 0x1899 JUMP JUMPDEST PUSH1 0x40 MLOAD DUP1 SWAP2 SUB SWAP1 LOG1 POP POP POP JUMP JUMPDEST PUSH1 0x1 SLOAD DUP2 JUMP JUMPDEST PUSH0 PUSH1 0x3 PUSH0 DUP4 DUP2 MSTORE PUSH1 0x20 ADD SWAP1 DUP2 MSTORE PUSH1 0x20 ADD PUSH0 KECCAK256 SWAP1 POP PUSH0 PUSH20 0xFFFFFFFFFFFFFFFFFFFFFFFFFFFFFFFFFFFFFFFF AND DUP2 PUSH0 ADD PUSH0 SWAP1 SLOAD SWAP1 PUSH2 0x100 EXP SWAP1 DIV PUSH20 0xFFFFFFFFFFFFFFFFFFFFFFFFFFFFFFFFFFFFFFFF AND PUSH20 0xFFFFFFFFFFFFFFFFFFFFFFFFFFFFFFFFFFFFFFFF AND SUB PUSH2 0x7BD JUMPI PUSH1 0x40 MLOAD PUSH32 0x8C379A000000000000000000000000000000000000000000000000000000000 DUP2 MSTORE PUSH1 0x4 ADD PUSH2 0x7B4 SWAP1 PUSH2 0x17A3 JUMP JUMPDEST PUSH1 0x40 MLOAD DUP1 SWAP2 SUB SWAP1 REVERT JUMPDEST PUSH7 0x11C37937E08000 CALLVALUE LT ISZERO PUSH2 0x807 JUMPI PUSH1 0x40 MLOAD PUSH32 0x8C379A000000000000000000000000000000000000000000000000000000000 DUP2 MSTORE PUSH1 0x4 ADD PUSH2 0x7FE SWAP1 PUSH2 0x191D JUMP JUMPDEST PUSH1 0x40 MLOAD DUP1 SWAP2 SUB SWAP1 REVERT JUMPDEST DUP1 PUSH1 0x3 ADD PUSH0 DUP2 SLOAD DUP1 SWAP3 SWAP2 SWAP1 PUSH2 0x81B SWAP1 PUSH2 0x1968 JUMP JUMPDEST SWAP2 SWAP1 POP SSTORE POP PUSH32 0x9C1033B06EA0DBDDC7885A63D2534017794BAC1BE72A3F67D4FD997C9296CA43 DUP3 CALLER PUSH1 0x40 MLOAD PUSH2 0x851 SWAP3 SWAP2 SWAP1 PUSH2 0x19F9 JUMP JUMPDEST PUSH1 0x40 MLOAD DUP1 SWAP2 SUB SWAP1 LOG1 POP POP JUMP JUMPDEST PUSH0 DUP1 SLOAD SWAP1 PUSH2 0x100 EXP SWAP1 DIV PUSH20 0xFFFFFFFFFFFFFFFFFFFFFFFFFFFFFFFFFFFFFFFF AND PUSH20 0xFFFFFFFFFFFFFFFFFFFFFFFFFFFFFFFFFFFFFFFF AND CALLER PUSH20 0xFFFFFFFFFFFFFFFFFFFFFFFFFFFFFFFFFFFFFFFF AND EQ PUSH2 0x8EA JUMPI PUSH1 0x40 MLOAD PUSH32 0x8C379A000000000000000000000000000000000000000000000000000000000 DUP2 MSTORE PUSH1 0x4 ADD PUSH2 0x8E1 SWAP1 PUSH2 0x1A7D JUMP JUMPDEST PUSH1 0x40 MLOAD DUP1 SWAP2 SUB SWAP1 REVERT JUMPDEST PUSH0 DUP1 SLOAD SWAP1 PUSH2 0x100 EXP SWAP1 DIV PUSH20 0xFFFFFFFFFFFFFFFFFFFFFFFFFFFFFFFFFFFFFFFF AND PUSH20 0xFFFFFFFFFFFFFFFFFFFFFFFFFFFFFFFFFFFFFFFF AND PUSH2 0x8FC SELFBALANCE SWAP1 DUP2 ISZERO MUL SWAP1 PUSH1 0x40 MLOAD PUSH0 PUSH1 0x40 MLOAD DUP1 DUP4 SUB DUP2 DUP6 DUP9 DUP9 CALL SWAP4 POP POP POP POP ISZERO DUP1 ISZERO PUSH2 0x94C JUMPI RETURNDATASIZE PUSH0 DUP1 RETURNDATACOPY RETURNDATASIZE PUSH0 REVERT JUMPDEST POP JUMP JUMPDEST PUSH0 DUP1 SLOAD SWAP1 PUSH2 0x100 EXP SWAP1 DIV PUSH20 0xFFFFFFFFFFFFFFFFFFFFFFFFFFFFFFFFFFFFFFFF AND DUP2 JUMP JUMPDEST PUSH0 PUSH1 0x1 SLOAD SWAP1 POP SWAP1 JUMP JUMPDEST PUSH1 0x2 PUSH1 0x20 MSTORE DUP1 PUSH0 MSTORE PUSH1 0x40 PUSH0 KECCAK256 PUSH0 SWAP2 POP SWAP1 POP DUP1 PUSH0 ADD DUP1 SLOAD PUSH2 0x99A SWAP1 PUSH2 0x14BD JUMP JUMPDEST DUP1 PUSH1 0x1F ADD PUSH1 0x20 DUP1 SWAP2 DIV MUL PUSH1 0x20 ADD PUSH1 0x40 MLOAD SWAP1 DUP2 ADD PUSH1 0x40 MSTORE DUP1 SWAP3 SWAP2 SWAP1 DUP2 DUP2 MSTORE PUSH1 0x20 ADD DUP3 DUP1 SLOAD PUSH2 0x9C6 SWAP1 PUSH2 0x14BD JUMP JUMPDEST DUP1 ISZERO PUSH2 0xA11 JUMPI DUP1 PUSH1 0x1F LT PUSH2 0x9E8 JUMPI PUSH2 0x100 DUP1 DUP4 SLOAD DIV MUL DUP4 MSTORE SWAP2 PUSH1 0x20 ADD SWAP2 PUSH2 0xA11 JUMP JUMPDEST DUP3 ADD SWAP2 SWAP1 PUSH0 MSTORE PUSH1 0x20 PUSH0 KECCAK256 SWAP1 JUMPDEST DUP2 SLOAD DUP2 MSTORE SWAP1 PUSH1 0x1 ADD SWAP1 PUSH1 0x20 ADD DUP1 DUP4 GT PUSH2 0x9F4 JUMPI DUP3 SWAP1 SUB PUSH1 0x1F AND DUP3 ADD SWAP2 JUMPDEST POP POP POP POP POP SWAP1 DUP1 PUSH1 0x1 ADD DUP1 SLOAD PUSH2 0xA26 SWAP1 PUSH2 0x14BD JUMP JUMPDEST DUP1 PUSH1 0x1F ADD PUSH1 0x20 DUP1 SWAP2 DIV MUL PUSH1 0x20 ADD PUSH1 0x40 MLOAD SWAP1 DUP2 ADD PUSH1 0x40 MSTORE DUP1 SWAP3 SWAP2 SWAP1 DUP2 DUP2 MSTORE PUSH1 0x20 ADD DUP3 DUP1 SLOAD PUSH2 0xA52 SWAP1 PUSH2 0x14BD JUMP JUMPDEST DUP1 ISZERO PUSH2 0xA9D JUMPI DUP1 PUSH1 0x1F LT PUSH2 0xA74 JUMPI PUSH2 0x100 DUP1 DUP4 SLOAD DIV MUL DUP4 MSTORE SWAP2 PUSH1 0x20 ADD SWAP2 PUSH2 0xA9D JUMP JUMPDEST DUP3 ADD SWAP2 SWAP1 PUSH0 MSTORE PUSH1 0x20 PUSH0 KECCAK256 SWAP1 JUMPDEST DUP2 SLOAD DUP2 MSTORE SWAP1 PUSH1 0x1 ADD SWAP1 PUSH1 0x20 ADD DUP1 DUP4 GT PUSH2 0xA80 JUMPI DUP3 SWAP1 SUB PUSH1 0x1F AND DUP3 ADD SWAP2 JUMPDEST POP POP POP POP POP SWAP1 POP DUP3 JUMP JUMPDEST PUSH0 DUP2 MLOAD GT PUSH2 0xAEA JUMPI PUSH1 0x40 MLOAD PUSH32 0x8C379A000000000000000000000000000000000000000000000000000000000 DUP2 MSTORE PUSH1 0x4 ADD PUSH2 0xAE1 SWAP1 PUSH2 0x1AE5 JUMP JUMPDEST PUSH1 0x40 MLOAD DUP1 SWAP2 SUB SWAP1 REVERT JUMPDEST PUSH7 0x2386F26FC10000 CALLVALUE LT ISZERO PUSH2 0xB34 JUMPI PUSH1 0x40 MLOAD PUSH32 0x8C379A000000000000000000000000000000000000000000000000000000000 DUP2 MSTORE PUSH1 0x4 ADD PUSH2 0xB2B SWAP1 PUSH2 0x1B4D JUMP JUMPDEST PUSH1 0x40 MLOAD DUP1 SWAP2 SUB SWAP1 REVERT JUMPDEST PUSH1 0x40 MLOAD DUP1 PUSH1 0xA0 ADD PUSH1 0x40 MSTORE DUP1 CALLER PUSH20 0xFFFFFFFFFFFFFFFFFFFFFFFFFFFFFFFFFFFFFFFF AND DUP2 MSTORE PUSH1 0x20 ADD DUP3 DUP2 MSTORE PUSH1 0x20 ADD TIMESTAMP DUP2 MSTORE PUSH1 0x20 ADD PUSH0 DUP2 MSTORE PUSH1 0x20 ADD PUSH0 PUSH8 0xFFFFFFFFFFFFFFFF DUP2 GT ISZERO PUSH2 0xB87 JUMPI PUSH2 0xB86 PUSH2 0x1179 JUMP JUMPDEST JUMPDEST PUSH1 0x40 MLOAD SWAP1 DUP1 DUP3 MSTORE DUP1 PUSH1 0x20 MUL PUSH1 0x20 ADD DUP3 ADD PUSH1 0x40 MSTORE DUP1 ISZERO PUSH2 0xBBA JUMPI DUP2 PUSH1 0x20 ADD JUMPDEST PUSH1 0x60 DUP2 MSTORE PUSH1 0x20 ADD SWAP1 PUSH1 0x1 SWAP1 SUB SWAP1 DUP2 PUSH2 0xBA5 JUMPI SWAP1 POP JUMPDEST POP DUP2 MSTORE POP PUSH1 0x3 PUSH0 PUSH1 0x1 SLOAD DUP2 MSTORE PUSH1 0x20 ADD SWAP1 DUP2 MSTORE PUSH1 0x20 ADD PUSH0 KECCAK256 PUSH0 DUP3 ADD MLOAD DUP2 PUSH0 ADD PUSH0 PUSH2 0x100 EXP DUP2 SLOAD DUP2 PUSH20 0xFFFFFFFFFFFFFFFFFFFFFFFFFFFFFFFFFFFFFFFF MUL NOT AND SWAP1 DUP4 PUSH20 0xFFFFFFFFFFFFFFFFFFFFFFFFFFFFFFFFFFFFFFFF AND MUL OR SWAP1 SSTORE POP PUSH1 0x20 DUP3 ADD MLOAD DUP2 PUSH1 0x1 ADD SWAP1 DUP2 PUSH2 0xC2A SWAP2 SWAP1 PUSH2 0x168A JUMP JUMPDEST POP PUSH1 0x40 DUP3 ADD MLOAD DUP2 PUSH1 0x2 ADD SSTORE PUSH1 0x60 DUP3 ADD MLOAD DUP2 PUSH1 0x3 ADD SSTORE PUSH1 0x80 DUP3 ADD MLOAD DUP2 PUSH1 0x4 ADD SWAP1 DUP1 MLOAD SWAP1 PUSH1 0x20 ADD SWAP1 PUSH2 0xC5B SWAP3 SWAP2 SWAP1 PUSH2 0xD9E JUMP JUMPDEST POP SWAP1 POP POP PUSH32 0x8E40A51278ABE2F4B410C0A96FF0BDD024B22666CA334062BF72AFD596984BD6 PUSH1 0x1 SLOAD CALLER DUP4 PUSH1 0x40 MLOAD PUSH2 0xC94 SWAP4 SWAP3 SWAP2 SWAP1 PUSH2 0x1B6B JUMP JUMPDEST PUSH1 0x40 MLOAD DUP1 SWAP2 SUB SWAP1 LOG1 PUSH1 0x1 PUSH0 DUP2 SLOAD DUP1 SWAP3 SWAP2 SWAP1 PUSH2 0xCAE SWAP1 PUSH2 0x1968 JUMP JUMPDEST SWAP2 SWAP1 POP SSTORE POP POP JUMP JUMPDEST PUSH1 0x60 PUSH1 0x3 PUSH0 DUP4 DUP2 MSTORE PUSH1 0x20 ADD SWAP1 DUP2 MSTORE PUSH1 0x20 ADD PUSH0 KECCAK256 PUSH1 0x4 ADD DUP1 SLOAD DUP1 PUSH1 0x20 MUL PUSH1 0x20 ADD PUSH1 0x40 MLOAD SWAP1 DUP2 ADD PUSH1 0x40 MSTORE DUP1 SWAP3 SWAP2 SWAP1 DUP2 DUP2 MSTORE PUSH1 0x20 ADD PUSH0 SWAP1 JUMPDEST DUP3 DUP3 LT ISZERO PUSH2 0xD93 JUMPI DUP4 DUP3 SWAP1 PUSH0 MSTORE PUSH1 0x20 PUSH0 KECCAK256 ADD DUP1 SLOAD PUSH2 0xD08 SWAP1 PUSH2 0x14BD JUMP JUMPDEST DUP1 PUSH1 0x1F ADD PUSH1 0x20 DUP1 SWAP2 DIV MUL PUSH1 0x20 ADD PUSH1 0x40 MLOAD SWAP1 DUP2 ADD PUSH1 0x40 MSTORE DUP1 SWAP3 SWAP2 SWAP1 DUP2 DUP2 MSTORE PUSH1 0x20 ADD DUP3 DUP1 SLOAD PUSH2 0xD34 SWAP1 PUSH2 0x14BD JUMP JUMPDEST DUP1 ISZERO PUSH2 0xD7F JUMPI DUP1 PUSH1 0x1F LT PUSH2 0xD56 JUMPI PUSH2 0x100 DUP1 DUP4 SLOAD DIV MUL DUP4 MSTORE SWAP2 PUSH1 0x20 ADD SWAP2 PUSH2 0xD7F JUMP JUMPDEST DUP3 ADD SWAP2 SWAP1 PUSH0 MSTORE PUSH1 0x20 PUSH0 KECCAK256 SWAP1 JUMPDEST DUP2 SLOAD DUP2 MSTORE SWAP1 PUSH1 0x1 ADD SWAP1 PUSH1 0x20 ADD DUP1 DUP4 GT PUSH2 0xD62 JUMPI DUP3 SWAP1 SUB PUSH1 0x1F AND DUP3 ADD SWAP2 JUMPDEST POP POP POP POP POP DUP2 MSTORE PUSH1 0x20 ADD SWAP1 PUSH1 0x1 ADD SWAP1 PUSH2 0xCEB JUMP JUMPDEST POP POP POP POP SWAP1 POP SWAP2 SWAP1 POP JUMP JUMPDEST DUP3 DUP1 SLOAD DUP3 DUP3 SSTORE SWAP1 PUSH0 MSTORE PUSH1 0x20 PUSH0 KECCAK256 SWAP1 DUP2 ADD SWAP3 DUP3 ISZERO PUSH2 0xDE4 JUMPI SWAP2 PUSH1 0x20 MUL DUP3 ADD JUMPDEST DUP3 DUP2 GT ISZERO PUSH2 0xDE3 JUMPI DUP3 MLOAD DUP3 SWAP1 DUP2 PUSH2 0xDD3 SWAP2 SWAP1 PUSH2 0x168A JUMP JUMPDEST POP SWAP2 PUSH1 0x20 ADD SWAP2 SWAP1 PUSH1 0x1 ADD SWAP1 PUSH2 0xDBC JUMP JUMPDEST JUMPDEST POP SWAP1 POP PUSH2 0xDF1 SWAP2 SWAP1 PUSH2 0xDF5 JUMP JUMPDEST POP SWAP1 JUMP JUMPDEST JUMPDEST DUP1 DUP3 GT ISZERO PUSH2 0xE14 JUMPI PUSH0 DUP2 DUP2 PUSH2 0xE0B SWAP2 SWAP1 PUSH2 0xE18 JUMP JUMPDEST POP PUSH1 0x1 ADD PUSH2 0xDF6 JUMP JUMPDEST POP SWAP1 JUMP JUMPDEST POP DUP1 SLOAD PUSH2 0xE24 SWAP1 PUSH2 0x14BD JUMP JUMPDEST PUSH0 DUP3 SSTORE DUP1 PUSH1 0x1F LT PUSH2 0xE35 JUMPI POP PUSH2 0xE52 JUMP JUMPDEST PUSH1 0x1F ADD PUSH1 0x20 SWAP1 DIV SWAP1 PUSH0 MSTORE PUSH1 0x20 PUSH0 KECCAK256 SWAP1 DUP2 ADD SWAP1 PUSH2 0xE51 SWAP2 SWAP1 PUSH2 0xE55 JUMP JUMPDEST JUMPDEST POP JUMP JUMPDEST JUMPDEST DUP1 DUP3 GT ISZERO PUSH2 0xE6C JUMPI PUSH0 DUP2 PUSH0 SWAP1 SSTORE POP PUSH1 0x1 ADD PUSH2 0xE56 JUMP JUMPDEST POP SWAP1 JUMP JUMPDEST PUSH0 PUSH1 0x40 MLOAD SWAP1 POP SWAP1 JUMP JUMPDEST PUSH0 DUP1 REVERT JUMPDEST PUSH0 DUP1 REVERT JUMPDEST PUSH0 DUP2 SWAP1 POP SWAP2 SWAP1 POP JUMP JUMPDEST PUSH2 0xE93 DUP2 PUSH2 0xE81 JUMP JUMPDEST DUP2 EQ PUSH2 0xE9D JUMPI PUSH0 DUP1 REVERT JUMPDEST POP JUMP JUMPDEST PUSH0 DUP2 CALLDATALOAD SWAP1 POP PUSH2 0xEAE DUP2 PUSH2 0xE8A JUMP JUMPDEST SWAP3 SWAP2 POP POP JUMP JUMPDEST PUSH0 PUSH1 0x20 DUP3 DUP5 SUB SLT ISZERO PUSH2 0xEC9 JUMPI PUSH2 0xEC8 PUSH2 0xE79 JUMP JUMPDEST JUMPDEST PUSH0 PUSH2 0xED6 DUP5 DUP3 DUP6 ADD PUSH2 0xEA0 JUMP JUMPDEST SWAP2 POP POP SWAP3 SWAP2 POP POP JUMP JUMPDEST PUSH0 PUSH20 0xFFFFFFFFFFFFFFFFFFFFFFFFFFFFFFFFFFFFFFFF DUP3 AND SWAP1 POP SWAP2 SWAP1 POP JUMP JUMPDEST PUSH0 PUSH2 0xF08 DUP3 PUSH2 0xEDF JUMP JUMPDEST SWAP1 POP SWAP2 SWAP1 POP JUMP JUMPDEST PUSH2 0xF18 DUP2 PUSH2 0xEFE JUMP JUMPDEST DUP3 MSTORE POP POP JUMP JUMPDEST PUSH0 DUP2 MLOAD SWAP1 POP SWAP2 SWAP1 POP JUMP JUMPDEST PUSH0 DUP3 DUP3 MSTORE PUSH1 0x20 DUP3 ADD SWAP1 POP SWAP3 SWAP2 POP POP JUMP JUMPDEST PUSH0 JUMPDEST DUP4 DUP2 LT ISZERO PUSH2 0xF55 JUMPI DUP1 DUP3 ADD MLOAD DUP2 DUP5 ADD MSTORE PUSH1 0x20 DUP2 ADD SWAP1 POP PUSH2 0xF3A JUMP JUMPDEST PUSH0 DUP5 DUP5 ADD MSTORE POP POP POP POP JUMP JUMPDEST PUSH0 PUSH1 0x1F NOT PUSH1 0x1F DUP4 ADD AND SWAP1 POP SWAP2 SWAP1 POP JUMP JUMPDEST PUSH0 PUSH2 0xF7A DUP3 PUSH2 0xF1E JUMP JUMPDEST PUSH2 0xF84 DUP2 DUP6 PUSH2 0xF28 JUMP JUMPDEST SWAP4 POP PUSH2 0xF94 DUP2 DUP6 PUSH1 0x20 DUP7 ADD PUSH2 0xF38 JUMP JUMPDEST PUSH2 0xF9D DUP2 PUSH2 0xF60 JUMP JUMPDEST DUP5 ADD SWAP2 POP POP SWAP3 SWAP2 POP POP JUMP JUMPDEST PUSH2 0xFB1 DUP2 PUSH2 0xE81 JUMP JUMPDEST DUP3 MSTORE POP POP JUMP JUMPDEST PUSH0 PUSH1 0x80 DUP3 ADD SWAP1 POP PUSH2 0xFCA PUSH0 DUP4 ADD DUP8 PUSH2 0xF0F JUMP JUMPDEST DUP2 DUP2 SUB PUSH1 0x20 DUP4 ADD MSTORE PUSH2 0xFDC DUP2 DUP7 PUSH2 0xF70 JUMP JUMPDEST SWAP1 POP PUSH2 0xFEB PUSH1 0x40 DUP4 ADD DUP6 PUSH2 0xFA8 JUMP JUMPDEST PUSH2 0xFF8 PUSH1 0x60 DUP4 ADD DUP5 PUSH2 0xFA8 JUMP JUMPDEST SWAP6 SWAP5 POP POP POP POP POP JUMP JUMPDEST PUSH0 DUP2 MLOAD SWAP1 POP SWAP2 SWAP1 POP JUMP JUMPDEST PUSH0 DUP3 DUP3 MSTORE PUSH1 0x20 DUP3 ADD SWAP1 POP SWAP3 SWAP2 POP POP JUMP JUMPDEST PUSH0 DUP2 SWAP1 POP PUSH1 0x20 DUP3 ADD SWAP1 POP SWAP2 SWAP1 POP JUMP JUMPDEST PUSH0 DUP3 DUP3 MSTORE PUSH1 0x20 DUP3 ADD SWAP1 POP SWAP3 SWAP2 POP POP JUMP JUMPDEST PUSH0 PUSH2 0x1044 DUP3 PUSH2 0xF1E JUMP JUMPDEST PUSH2 0x104E DUP2 DUP6 PUSH2 0x102A JUMP JUMPDEST SWAP4 POP PUSH2 0x105E DUP2 DUP6 PUSH1 0x20 DUP7 ADD PUSH2 0xF38 JUMP JUMPDEST PUSH2 0x1067 DUP2 PUSH2 0xF60 JUMP JUMPDEST DUP5 ADD SWAP2 POP POP SWAP3 SWAP2 POP POP JUMP JUMPDEST PUSH0 PUSH2 0x107D DUP4 DUP4 PUSH2 0x103A JUMP JUMPDEST SWAP1 POP SWAP3 SWAP2 POP POP JUMP JUMPDEST PUSH0 PUSH1 0x20 DUP3 ADD SWAP1 POP SWAP2 SWAP1 POP JUMP JUMPDEST PUSH0 PUSH2 0x109B DUP3 PUSH2 0x1001 JUMP JUMPDEST PUSH2 0x10A5 DUP2 DUP6 PUSH2 0x100B JUMP JUMPDEST SWAP4 POP DUP4 PUSH1 0x20 DUP3 MUL DUP6 ADD PUSH2 0x10B7 DUP6 PUSH2 0x101B JUMP JUMPDEST DUP1 PUSH0 JUMPDEST DUP6 DUP2 LT ISZERO PUSH2 0x10F2 JUMPI DUP5 DUP5 SUB DUP10 MSTORE DUP2 MLOAD PUSH2 0x10D3 DUP6 DUP3 PUSH2 0x1072 JUMP JUMPDEST SWAP5 POP PUSH2 0x10DE DUP4 PUSH2 0x1085 JUMP JUMPDEST SWAP3 POP PUSH1 0x20 DUP11 ADD SWAP10 POP POP PUSH1 0x1 DUP2 ADD SWAP1 POP PUSH2 0x10BA JUMP JUMPDEST POP DUP3 SWAP8 POP DUP8 SWAP6 POP POP POP POP POP POP SWAP3 SWAP2 POP POP JUMP JUMPDEST PUSH0 PUSH1 0xC0 DUP3 ADD SWAP1 POP PUSH2 0x1117 PUSH0 DUP4 ADD DUP10 PUSH2 0xF0F JUMP JUMPDEST DUP2 DUP2 SUB PUSH1 0x20 DUP4 ADD MSTORE PUSH2 0x1129 DUP2 DUP9 PUSH2 0xF70 JUMP JUMPDEST SWAP1 POP PUSH2 0x1138 PUSH1 0x40 DUP4 ADD DUP8 PUSH2 0xFA8 JUMP JUMPDEST PUSH2 0x1145 PUSH1 0x60 DUP4 ADD DUP7 PUSH2 0xFA8 JUMP JUMPDEST PUSH2 0x1152 PUSH1 0x80 DUP4 ADD DUP6 PUSH2 0xFA8 JUMP JUMPDEST DUP2 DUP2 SUB PUSH1 0xA0 DUP4 ADD MSTORE PUSH2 0x1164 DUP2 DUP5 PUSH2 0x1091 JUMP JUMPDEST SWAP1 POP SWAP8 SWAP7 POP POP POP POP POP POP POP JUMP JUMPDEST PUSH0 DUP1 REVERT JUMPDEST PUSH0 DUP1 REVERT JUMPDEST PUSH32 0x4E487B7100000000000000000000000000000000000000000000000000000000 PUSH0 MSTORE PUSH1 0x41 PUSH1 0x4 MSTORE PUSH1 0x24 PUSH0 REVERT JUMPDEST PUSH2 0x11AF DUP3 PUSH2 0xF60 JUMP JUMPDEST DUP2 ADD DUP2 DUP2 LT PUSH8 0xFFFFFFFFFFFFFFFF DUP3 GT OR ISZERO PUSH2 0x11CE JUMPI PUSH2 0x11CD PUSH2 0x1179 JUMP JUMPDEST JUMPDEST DUP1 PUSH1 0x40 MSTORE POP POP POP JUMP JUMPDEST PUSH0 PUSH2 0x11E0 PUSH2 0xE70 JUMP JUMPDEST SWAP1 POP PUSH2 0x11EC DUP3 DUP3 PUSH2 0x11A6 JUMP JUMPDEST SWAP2 SWAP1 POP JUMP JUMPDEST PUSH0 PUSH8 0xFFFFFFFFFFFFFFFF DUP3 GT ISZERO PUSH2 0x120B JUMPI PUSH2 0x120A PUSH2 0x1179 JUMP JUMPDEST JUMPDEST PUSH2 0x1214 DUP3 PUSH2 0xF60 JUMP JUMPDEST SWAP1 POP PUSH1 0x20 DUP2 ADD SWAP1 POP SWAP2 SWAP1 POP JUMP JUMPDEST DUP3 DUP2 DUP4 CALLDATACOPY PUSH0 DUP4 DUP4 ADD MSTORE POP POP POP JUMP JUMPDEST PUSH0 PUSH2 0x1241 PUSH2 0x123C DUP5 PUSH2 0x11F1 JUMP JUMPDEST PUSH2 0x11D7 JUMP JUMPDEST SWAP1 POP DUP3 DUP2 MSTORE PUSH1 0x20 DUP2 ADD DUP5 DUP5 DUP5 ADD GT ISZERO PUSH2 0x125D JUMPI PUSH2 0x125C PUSH2 0x1175 JUMP JUMPDEST JUMPDEST PUSH2 0x1268 DUP5 DUP3 DUP6 PUSH2 0x1221 JUMP JUMPDEST POP SWAP4 SWAP3 POP POP POP JUMP JUMPDEST PUSH0 DUP3 PUSH1 0x1F DUP4 ADD SLT PUSH2 0x1284 JUMPI PUSH2 0x1283 PUSH2 0x1171 JUMP JUMPDEST JUMPDEST DUP2 CALLDATALOAD PUSH2 0x1294 DUP5 DUP3 PUSH1 0x20 DUP7 ADD PUSH2 0x122F JUMP JUMPDEST SWAP2 POP POP SWAP3 SWAP2 POP POP JUMP JUMPDEST PUSH0 DUP1 PUSH1 0x40 DUP4 DUP6 SUB SLT ISZERO PUSH2 0x12B3 JUMPI PUSH2 0x12B2 PUSH2 0xE79 JUMP JUMPDEST JUMPDEST PUSH0 DUP4 ADD CALLDATALOAD PUSH8 0xFFFFFFFFFFFFFFFF DUP2 GT ISZERO PUSH2 0x12D0 JUMPI PUSH2 0x12CF PUSH2 0xE7D JUMP JUMPDEST JUMPDEST PUSH2 0x12DC DUP6 DUP3 DUP7 ADD PUSH2 0x1270 JUMP JUMPDEST SWAP3 POP POP PUSH1 0x20 DUP4 ADD CALLDATALOAD PUSH8 0xFFFFFFFFFFFFFFFF DUP2 GT ISZERO PUSH2 0x12FD JUMPI PUSH2 0x12FC PUSH2 0xE7D JUMP JUMPDEST JUMPDEST PUSH2 0x1309 DUP6 DUP3 DUP7 ADD PUSH2 0x1270 JUMP JUMPDEST SWAP2 POP POP SWAP3 POP SWAP3 SWAP1 POP JUMP JUMPDEST PUSH0 DUP1 PUSH1 0x40 DUP4 DUP6 SUB SLT ISZERO PUSH2 0x1329 JUMPI PUSH2 0x1328 PUSH2 0xE79 JUMP JUMPDEST JUMPDEST PUSH0 PUSH2 0x1336 DUP6 DUP3 DUP7 ADD PUSH2 0xEA0 JUMP JUMPDEST SWAP3 POP POP PUSH1 0x20 DUP4 ADD CALLDATALOAD PUSH8 0xFFFFFFFFFFFFFFFF DUP2 GT ISZERO PUSH2 0x1357 JUMPI PUSH2 0x1356 PUSH2 0xE7D JUMP JUMPDEST JUMPDEST PUSH2 0x1363 DUP6 DUP3 DUP7 ADD PUSH2 0x1270 JUMP JUMPDEST SWAP2 POP POP SWAP3 POP SWAP3 SWAP1 POP JUMP JUMPDEST PUSH0 PUSH1 0x20 DUP3 ADD SWAP1 POP PUSH2 0x1380 PUSH0 DUP4 ADD DUP5 PUSH2 0xFA8 JUMP JUMPDEST SWAP3 SWAP2 POP POP JUMP JUMPDEST PUSH0 PUSH1 0x20 DUP3 ADD SWAP1 POP PUSH2 0x1399 PUSH0 DUP4 ADD DUP5 PUSH2 0xF0F JUMP JUMPDEST SWAP3 SWAP2 POP POP JUMP JUMPDEST PUSH2 0x13A8 DUP2 PUSH2 0xEFE JUMP JUMPDEST DUP2 EQ PUSH2 0x13B2 JUMPI PUSH0 DUP1 REVERT JUMPDEST POP JUMP JUMPDEST PUSH0 DUP2 CALLDATALOAD SWAP1 POP PUSH2 0x13C3 DUP2 PUSH2 0x139F JUMP JUMPDEST SWAP3 SWAP2 POP POP JUMP JUMPDEST PUSH0 PUSH1 0x20 DUP3 DUP5 SUB SLT ISZERO PUSH2 0x13DE JUMPI PUSH2 0x13DD PUSH2 0xE79 JUMP JUMPDEST JUMPDEST PUSH0 PUSH2 0x13EB DUP5 DUP3 DUP6 ADD PUSH2 0x13B5 JUMP JUMPDEST SWAP2 POP POP SWAP3 SWAP2 POP POP JUMP JUMPDEST PUSH0 PUSH1 0x40 DUP3 ADD SWAP1 POP DUP2 DUP2 SUB PUSH0 DUP4 ADD MSTORE PUSH2 0x140C DUP2 DUP6 PUSH2 0xF70 JUMP JUMPDEST SWAP1 POP DUP2 DUP2 SUB PUSH1 0x20 DUP4 ADD MSTORE PUSH2 0x1420 DUP2 DUP5 PUSH2 0xF70 JUMP JUMPDEST SWAP1 POP SWAP4 SWAP3 POP POP POP JUMP JUMPDEST PUSH0 PUSH1 0x20 DUP3 DUP5 SUB SLT ISZERO PUSH2 0x143E JUMPI PUSH2 0x143D PUSH2 0xE79 JUMP JUMPDEST JUMPDEST PUSH0 DUP3 ADD CALLDATALOAD PUSH8 0xFFFFFFFFFFFFFFFF DUP2 GT ISZERO PUSH2 0x145B JUMPI PUSH2 0x145A PUSH2 0xE7D JUMP JUMPDEST JUMPDEST PUSH2 0x1467 DUP5 DUP3 DUP6 ADD PUSH2 0x1270 JUMP JUMPDEST SWAP2 POP POP SWAP3 SWAP2 POP POP JUMP JUMPDEST PUSH0 PUSH1 0x20 DUP3 ADD SWAP1 POP DUP2 DUP2 SUB PUSH0 DUP4 ADD MSTORE PUSH2 0x1488 DUP2 DUP5 PUSH2 0x1091 JUMP JUMPDEST SWAP1 POP SWAP3 SWAP2 POP POP JUMP JUMPDEST PUSH32 0x4E487B7100000000000000000000000000000000000000000000000000000000 PUSH0 MSTORE PUSH1 0x22 PUSH1 0x4 MSTORE PUSH1 0x24 PUSH0 REVERT JUMPDEST PUSH0 PUSH1 0x2 DUP3 DIV SWAP1 POP PUSH1 0x1 DUP3 AND DUP1 PUSH2 0x14D4 JUMPI PUSH1 0x7F DUP3 AND SWAP2 POP JUMPDEST PUSH1 0x20 DUP3 LT DUP2 SUB PUSH2 0x14E7 JUMPI PUSH2 0x14E6 PUSH2 0x1490 JUMP JUMPDEST JUMPDEST POP SWAP2 SWAP1 POP JUMP JUMPDEST PUSH0 DUP2 SWAP1 POP DUP2 PUSH0 MSTORE PUSH1 0x20 PUSH0 KECCAK256 SWAP1 POP SWAP2 SWAP1 POP JUMP JUMPDEST PUSH0 PUSH1 0x20 PUSH1 0x1F DUP4 ADD DIV SWAP1 POP SWAP2 SWAP1 POP JUMP JUMPDEST PUSH0 DUP3 DUP3 SHL SWAP1 POP SWAP3 SWAP2 POP POP JUMP JUMPDEST PUSH0 PUSH1 0x8 DUP4 MUL PUSH2 0x1549 PUSH32 0xFFFFFFFFFFFFFFFFFFFFFFFFFFFFFFFFFFFFFFFFFFFFFFFFFFFFFFFFFFFFFFFF DUP3 PUSH2 0x150E JUMP JUMPDEST PUSH2 0x1553 DUP7 DUP4 PUSH2 0x150E JUMP JUMPDEST SWAP6 POP DUP1 NOT DUP5 AND SWAP4 POP DUP1 DUP7 AND DUP5 OR SWAP3 POP POP POP SWAP4 SWAP3 POP POP POP JUMP JUMPDEST PUSH0 DUP2 SWAP1 POP SWAP2 SWAP1 POP JUMP JUMPDEST PUSH0 PUSH2 0x158E PUSH2 0x1589 PUSH2 0x1584 DUP5 PUSH2 0xE81 JUMP JUMPDEST PUSH2 0x156B JUMP JUMPDEST PUSH2 0xE81 JUMP JUMPDEST SWAP1 POP SWAP2 SWAP1 POP JUMP JUMPDEST PUSH0 DUP2 SWAP1 POP SWAP2 SWAP1 POP JUMP JUMPDEST PUSH2 0x15A7 DUP4 PUSH2 0x1574 JUMP JUMPDEST PUSH2 0x15BB PUSH2 0x15B3 DUP3 PUSH2 0x1595 JUMP JUMPDEST DUP5 DUP5 SLOAD PUSH2 0x151A JUMP JUMPDEST DUP3 SSTORE POP POP POP POP JUMP JUMPDEST PUSH0 SWAP1 JUMP JUMPDEST PUSH2 0x15CF PUSH2 0x15C3 JUMP JUMPDEST PUSH2 0x15DA DUP2 DUP5 DUP5 PUSH2 0x159E JUMP JUMPDEST POP POP POP JUMP JUMPDEST JUMPDEST DUP2 DUP2 LT ISZERO PUSH2 0x15FD JUMPI PUSH2 0x15F2 PUSH0 DUP3 PUSH2 0x15C7 JUMP JUMPDEST PUSH1 0x1 DUP2 ADD SWAP1 POP PUSH2 0x15E0 JUMP JUMPDEST POP POP JUMP JUMPDEST PUSH1 0x1F DUP3 GT ISZERO PUSH2 0x1642 JUMPI PUSH2 0x1613 DUP2 PUSH2 0x14ED JUMP JUMPDEST PUSH2 0x161C DUP5 PUSH2 0x14FF JUMP JUMPDEST DUP2 ADD PUSH1 0x20 DUP6 LT ISZERO PUSH2 0x162B JUMPI DUP2 SWAP1 POP JUMPDEST PUSH2 0x163F PUSH2 0x1637 DUP6 PUSH2 0x14FF JUMP JUMPDEST DUP4 ADD DUP3 PUSH2 0x15DF JUMP JUMPDEST POP POP JUMPDEST POP POP POP JUMP JUMPDEST PUSH0 DUP3 DUP3 SHR SWAP1 POP SWAP3 SWAP2 POP POP JUMP JUMPDEST PUSH0 PUSH2 0x1662 PUSH0 NOT DUP5 PUSH1 0x8 MUL PUSH2 0x1647 JUMP JUMPDEST NOT DUP1 DUP4 AND SWAP2 POP POP SWAP3 SWAP2 POP POP JUMP JUMPDEST PUSH0 PUSH2 0x167A DUP4 DUP4 PUSH2 0x1653 JUMP JUMPDEST SWAP2 POP DUP3 PUSH1 0x2 MUL DUP3 OR SWAP1 POP SWAP3 SWAP2 POP POP JUMP JUMPDEST PUSH2 0x1693 DUP3 PUSH2 0xF1E JUMP JUMPDEST PUSH8 0xFFFFFFFFFFFFFFFF DUP2 GT ISZERO PUSH2 0x16AC JUMPI PUSH2 0x16AB PUSH2 0x1179 JUMP JUMPDEST JUMPDEST PUSH2 0x16B6 DUP3 SLOAD PUSH2 0x14BD JUMP JUMPDEST PUSH2 0x16C1 DUP3 DUP3 DUP6 PUSH2 0x1601 JUMP JUMPDEST PUSH0 PUSH1 0x20 SWAP1 POP PUSH1 0x1F DUP4 GT PUSH1 0x1 DUP2 EQ PUSH2 0x16F2 JUMPI PUSH0 DUP5 ISZERO PUSH2 0x16E0 JUMPI DUP3 DUP8 ADD MLOAD SWAP1 POP JUMPDEST PUSH2 0x16EA DUP6 DUP3 PUSH2 0x166F JUMP JUMPDEST DUP7 SSTORE POP PUSH2 0x1751 JUMP JUMPDEST PUSH1 0x1F NOT DUP5 AND PUSH2 0x1700 DUP7 PUSH2 0x14ED JUMP JUMPDEST PUSH0 JUMPDEST DUP3 DUP2 LT ISZERO PUSH2 0x1727 JUMPI DUP5 DUP10 ADD MLOAD DUP3 SSTORE PUSH1 0x1 DUP3 ADD SWAP2 POP PUSH1 0x20 DUP6 ADD SWAP5 POP PUSH1 0x20 DUP2 ADD SWAP1 POP PUSH2 0x1702 JUMP JUMPDEST DUP7 DUP4 LT ISZERO PUSH2 0x1744 JUMPI DUP5 DUP10 ADD MLOAD PUSH2 0x1740 PUSH1 0x1F DUP10 AND DUP3 PUSH2 0x1653 JUMP JUMPDEST DUP4 SSTORE POP JUMPDEST PUSH1 0x1 PUSH1 0x2 DUP9 MUL ADD DUP9 SSTORE POP POP POP JUMPDEST POP POP POP POP POP POP JUMP JUMPDEST PUSH32 0x506F737420646F6573206E6F7420657869737400000000000000000000000000 PUSH0 DUP3 ADD MSTORE POP JUMP JUMPDEST PUSH0 PUSH2 0x178D PUSH1 0x13 DUP4 PUSH2 0xF28 JUMP JUMPDEST SWAP2 POP PUSH2 0x1798 DUP3 PUSH2 0x1759 JUMP JUMPDEST PUSH1 0x20 DUP3 ADD SWAP1 POP SWAP2 SWAP1 POP JUMP JUMPDEST PUSH0 PUSH1 0x20 DUP3 ADD SWAP1 POP DUP2 DUP2 SUB PUSH0 DUP4 ADD MSTORE PUSH2 0x17BA DUP2 PUSH2 0x1781 JUMP JUMPDEST SWAP1 POP SWAP2 SWAP1 POP JUMP JUMPDEST PUSH32 0x496E73756666696369656E7420657468657220666F7220636F6D6D656E74696E PUSH0 DUP3 ADD MSTORE PUSH32 0x6700000000000000000000000000000000000000000000000000000000000000 PUSH1 0x20 DUP3 ADD MSTORE POP JUMP JUMPDEST PUSH0 PUSH2 0x181B PUSH1 0x21 DUP4 PUSH2 0xF28 JUMP JUMPDEST SWAP2 POP PUSH2 0x1826 DUP3 PUSH2 0x17C1 JUMP JUMPDEST PUSH1 0x40 DUP3 ADD SWAP1 POP SWAP2 SWAP1 POP JUMP JUMPDEST PUSH0 PUSH1 0x20 DUP3 ADD SWAP1 POP DUP2 DUP2 SUB PUSH0 DUP4 ADD MSTORE PUSH2 0x1848 DUP2 PUSH2 0x180F JUMP JUMPDEST SWAP1 POP SWAP2 SWAP1 POP JUMP JUMPDEST PUSH32 0x436F6D6D656E7400000000000000000000000000000000000000000000000000 PUSH0 DUP3 ADD MSTORE POP JUMP JUMPDEST PUSH0 PUSH2 0x1883 PUSH1 0x7 DUP4 PUSH2 0xF28 JUMP JUMPDEST SWAP2 POP PUSH2 0x188E DUP3 PUSH2 0x184F JUMP JUMPDEST PUSH1 0x20 DUP3 ADD SWAP1 POP SWAP2 SWAP1 POP JUMP JUMPDEST PUSH0 PUSH1 0x60 DUP3 ADD SWAP1 POP PUSH2 0x18AC PUSH0 DUP4 ADD DUP6 PUSH2 0xFA8 JUMP JUMPDEST PUSH2 0x18B9 PUSH1 0x20 DUP4 ADD DUP5 PUSH2 0xF0F JUMP JUMPDEST DUP2 DUP2 SUB PUSH1 0x40 DUP4 ADD MSTORE PUSH2 0x18CA DUP2 PUSH2 0x1877 JUMP JUMPDEST SWAP1 POP SWAP4 SWAP3 POP POP POP JUMP JUMPDEST PUSH32 0x496E73756666696369656E7420657468657220666F72206C696B696E67000000 PUSH0 DUP3 ADD MSTORE POP JUMP JUMPDEST PUSH0 PUSH2 0x1907 PUSH1 0x1D DUP4 PUSH2 0xF28 JUMP JUMPDEST SWAP2 POP PUSH2 0x1912 DUP3 PUSH2 0x18D3 JUMP JUMPDEST PUSH1 0x20 DUP3 ADD SWAP1 POP SWAP2 SWAP1 POP JUMP JUMPDEST PUSH0 PUSH1 0x20 DUP3 ADD SWAP1 POP DUP2 DUP2 SUB PUSH0 DUP4 ADD MSTORE PUSH2 0x1934 DUP2 PUSH2 0x18FB JUMP JUMPDEST SWAP1 POP SWAP2 SWAP1 POP JUMP JUMPDEST PUSH32 0x4E487B7100000000000000000000000000000000000000000000000000000000 PUSH0 MSTORE PUSH1 0x11 PUSH1 0x4 MSTORE PUSH1 0x24 PUSH0 REVERT JUMPDEST PUSH0 PUSH2 0x1972 DUP3 PUSH2 0xE81 JUMP JUMPDEST SWAP2 POP PUSH32 0xFFFFFFFFFFFFFFFFFFFFFFFFFFFFFFFFFFFFFFFFFFFFFFFFFFFFFFFFFFFFFFFF DUP3 SUB PUSH2 0x19A4 JUMPI PUSH2 0x19A3 PUSH2 0x193B JUMP JUMPDEST JUMPDEST PUSH1 0x1 DUP3 ADD SWAP1 POP SWAP2 SWAP1 POP JUMP JUMPDEST PUSH32 0x4C696B6500000000000000000000000000000000000000000000000000000000 PUSH0 DUP3 ADD MSTORE POP JUMP JUMPDEST PUSH0 PUSH2 0x19E3 PUSH1 0x4 DUP4 PUSH2 0xF28 JUMP JUMPDEST SWAP2 POP PUSH2 0x19EE DUP3 PUSH2 0x19AF JUMP JUMPDEST PUSH1 0x20 DUP3 ADD SWAP1 POP SWAP2 SWAP1 POP JUMP JUMPDEST PUSH0 PUSH1 0x60 DUP3 ADD SWAP1 POP PUSH2 0x1A0C PUSH0 DUP4 ADD DUP6 PUSH2 0xFA8 JUMP JUMPDEST PUSH2 0x1A19 PUSH1 0x20 DUP4 ADD DUP5 PUSH2 0xF0F JUMP JUMPDEST DUP2 DUP2 SUB PUSH1 0x40 DUP4 ADD MSTORE PUSH2 0x1A2A DUP2 PUSH2 0x19D7 JUMP JUMPDEST SWAP1 POP SWAP4 SWAP3 POP POP POP JUMP JUMPDEST PUSH32 0x4F6E6C79206F776E65722063616E207769746864726177000000000000000000 PUSH0 DUP3 ADD MSTORE POP JUMP JUMPDEST PUSH0 PUSH2 0x1A67 PUSH1 0x17 DUP4 PUSH2 0xF28 JUMP JUMPDEST SWAP2 POP PUSH2 0x1A72 DUP3 PUSH2 0x1A33 JUMP JUMPDEST PUSH1 0x20 DUP3 ADD SWAP1 POP SWAP2 SWAP1 POP JUMP JUMPDEST PUSH0 PUSH1 0x20 DUP3 ADD SWAP1 POP DUP2 DUP2 SUB PUSH0 DUP4 ADD MSTORE PUSH2 0x1A94 DUP2 PUSH2 0x1A5B JUMP JUMPDEST SWAP1 POP SWAP2 SWAP1 POP JUMP JUMPDEST PUSH32 0x436F6E74656E742063616E6E6F7420626520656D707479000000000000000000 PUSH0 DUP3 ADD MSTORE POP JUMP JUMPDEST PUSH0 PUSH2 0x1ACF PUSH1 0x17 DUP4 PUSH2 0xF28 JUMP JUMPDEST SWAP2 POP PUSH2 0x1ADA DUP3 PUSH2 0x1A9B JUMP JUMPDEST PUSH1 0x20 DUP3 ADD SWAP1 POP SWAP2 SWAP1 POP JUMP JUMPDEST PUSH0 PUSH1 0x20 DUP3 ADD SWAP1 POP DUP2 DUP2 SUB PUSH0 DUP4 ADD MSTORE PUSH2 0x1AFC DUP2 PUSH2 0x1AC3 JUMP JUMPDEST SWAP1 POP SWAP2 SWAP1 POP JUMP JUMPDEST PUSH32 0x496E73756666696369656E7420657468657220666F7220706F7374696E670000 PUSH0 DUP3 ADD MSTORE POP JUMP JUMPDEST PUSH0 PUSH2 0x1B37 PUSH1 0x1E DUP4 PUSH2 0xF28 JUMP JUMPDEST SWAP2 POP PUSH2 0x1B42 DUP3 PUSH2 0x1B03 JUMP JUMPDEST PUSH1 0x20 DUP3 ADD SWAP1 POP SWAP2 SWAP1 POP JUMP JUMPDEST PUSH0 PUSH1 0x20 DUP3 ADD SWAP1 POP DUP2 DUP2 SUB PUSH0 DUP4 ADD MSTORE PUSH2 0x1B64 DUP2 PUSH2 0x1B2B JUMP JUMPDEST SWAP1 POP SWAP2 SWAP1 POP JUMP JUMPDEST PUSH0 PUSH1 0x60 DUP3 ADD SWAP1 POP PUSH2 0x1B7E PUSH0 DUP4 ADD DUP7 PUSH2 0xFA8 JUMP JUMPDEST PUSH2 0x1B8B PUSH1 0x20 DUP4 ADD DUP6 PUSH2 0xF0F JUMP JUMPDEST DUP2 DUP2 SUB PUSH1 0x40 DUP4 ADD MSTORE PUSH2 0x1B9D DUP2 DUP5 PUSH2 0xF70 JUMP JUMPDEST SWAP1 POP SWAP5 SWAP4 POP POP POP POP JUMP INVALID LOG2 PUSH5 0x6970667358 0x22 SLT KECCAK256 0x2E 0xD4 0xC3 BYTE SWAP14 DUP7 0x2C SWAP9 PUSH9 0xC6BFEA378A3A6B018E MSIZE SIGNEXTEND 0xCE 0xA7 0xAF 0xE7 PC PUSH15 0x7C227293C9DA64736F6C6343000816 STOP CALLER "
				},
				"gasEstimates": {
					"creation": {
						"codeDepositCost": "1426600",
						"executionCost": "25749",
						"totalCost": "1452349"
					},
					"external": {
						"commentOnPost(uint256,string)": "infinite",
						"createPost(string)": "infinite",
						"getNextPostID()": "2476",
						"getPost(uint256)": "infinite",
						"getPostComments(uint256)": "infinite",
						"likePost(uint256)": "infinite",
						"owner()": "2527",
						"postIdCounter()": "2514",
						"posts(uint256)": "infinite",
						"profiles(address)": "infinite",
						"updateUserProfile(string,string)": "infinite",
						"withdrawEther()": "infinite"
					}
				},
				"methodIdentifiers": {
					"commentOnPost(uint256,string)": "64732154",
					"createPost(string)": "c7303c61",
					"getNextPostID()": "ad77c4d0",
					"getPost(uint256)": "40731c24",
					"getPostComments(uint256)": "d524ff76",
					"likePost(uint256)": "725009d3",
					"owner()": "8da5cb5b",
					"postIdCounter()": "6a571859",
					"posts(uint256)": "0b1e7f83",
					"profiles(address)": "bbe15627",
					"updateUserProfile(string,string)": "40e06979",
					"withdrawEther()": "7362377b"
				}
			},
			"storageLayout": {
				"storage": [
					{
						"astId": 3,
						"contract": "contracts/HelloWorld.sol:SocialMediaPlatform",
						"label": "owner",
						"offset": 0,
						"slot": "0",
						"type": "t_address"
					},
					{
						"astId": 5,
						"contract": "contracts/HelloWorld.sol:SocialMediaPlatform",
						"label": "postIdCounter",
						"offset": 0,
						"slot": "1",
						"type": "t_uint256"
					},
					{
						"astId": 10,
						"contract": "contracts/HelloWorld.sol:SocialMediaPlatform",
						"label": "profiles",
						"offset": 0,
						"slot": "2",
						"type": "t_mapping(t_address,t_struct(UserProfile)36_storage)"
					},
					{
						"astId": 15,
						"contract": "contracts/HelloWorld.sol:SocialMediaPlatform",
						"label": "posts",
						"offset": 0,
						"slot": "3",
						"type": "t_mapping(t_uint256,t_struct(Post)48_storage)"
					}
				],
				"types": {
					"t_address": {
						"encoding": "inplace",
						"label": "address",
						"numberOfBytes": "20"
					},
					"t_array(t_string_storage)dyn_storage": {
						"base": "t_string_storage",
						"encoding": "dynamic_array",
						"label": "string[]",
						"numberOfBytes": "32"
					},
					"t_mapping(t_address,t_struct(UserProfile)36_storage)": {
						"encoding": "mapping",
						"key": "t_address",
						"label": "mapping(address => struct SocialMediaPlatform.UserProfile)",
						"numberOfBytes": "32",
						"value": "t_struct(UserProfile)36_storage"
					},
					"t_mapping(t_uint256,t_struct(Post)48_storage)": {
						"encoding": "mapping",
						"key": "t_uint256",
						"label": "mapping(uint256 => struct SocialMediaPlatform.Post)",
						"numberOfBytes": "32",
						"value": "t_struct(Post)48_storage"
					},
					"t_string_storage": {
						"encoding": "bytes",
						"label": "string",
						"numberOfBytes": "32"
					},
					"t_struct(Post)48_storage": {
						"encoding": "inplace",
						"label": "struct SocialMediaPlatform.Post",
						"members": [
							{
								"astId": 38,
								"contract": "contracts/HelloWorld.sol:SocialMediaPlatform",
								"label": "creator",
								"offset": 0,
								"slot": "0",
								"type": "t_address"
							},
							{
								"astId": 40,
								"contract": "contracts/HelloWorld.sol:SocialMediaPlatform",
								"label": "content",
								"offset": 0,
								"slot": "1",
								"type": "t_string_storage"
							},
							{
								"astId": 42,
								"contract": "contracts/HelloWorld.sol:SocialMediaPlatform",
								"label": "creationTime",
								"offset": 0,
								"slot": "2",
								"type": "t_uint256"
							},
							{
								"astId": 44,
								"contract": "contracts/HelloWorld.sol:SocialMediaPlatform",
								"label": "likes",
								"offset": 0,
								"slot": "3",
								"type": "t_uint256"
							},
							{
								"astId": 47,
								"contract": "contracts/HelloWorld.sol:SocialMediaPlatform",
								"label": "comments",
								"offset": 0,
								"slot": "4",
								"type": "t_array(t_string_storage)dyn_storage"
							}
						],
						"numberOfBytes": "160"
					},
					"t_struct(UserProfile)36_storage": {
						"encoding": "inplace",
						"label": "struct SocialMediaPlatform.UserProfile",
						"members": [
							{
								"astId": 33,
								"contract": "contracts/HelloWorld.sol:SocialMediaPlatform",
								"label": "username",
								"offset": 0,
								"slot": "0",
								"type": "t_string_storage"
							},
							{
								"astId": 35,
								"contract": "contracts/HelloWorld.sol:SocialMediaPlatform",
								"label": "bio",
								"offset": 0,
								"slot": "1",
								"type": "t_string_storage"
							}
						],
						"numberOfBytes": "64"
					},
					"t_uint256": {
						"encoding": "inplace",
						"label": "uint256",
						"numberOfBytes": "32"
					}
				}
			},
			"userdoc": {
				"kind": "user",
				"methods": {},
				"version": 1
			}
		}
	}
}